:020000040800F2
:10000000984F0020290300089D2B00085526000862
:100010003529000883050008CD31000800000000E4
:10002000000000000000000000000000690200085D
:100030003508000800000000C5020008E52B000894
:100040004303000843030008430300084303000878
:100050004303000843030008430300084303000868
:100060004303000843030008430300084303000858
:100070004303000843030008430300084303000848
:10008000AD070008430300084303000843030008CA
:10009000AD050008430300084303000843030008BC
:1000A0004303000843030008430300084303000818
:1000B000B92C000843030008430300084303000869
:1000C00043030008430300084303000843030008F8
:1000D0004303000843030008C1310008430300083C
:1000E00043030008430300084303000843030008D8
:1000F00043030008430300084303000843030008C8
:1001000043030008430300084303000843030008B7
:1001100043030008430300084303000843030008A7
:100120004303000843030008430300084303000897
:100130004303000843030008430300084303000887
:10014000690600084303000843030008430300084E
:100150004303000843030008430300084303000867
:100160004303000843030008430300084303000857
:100170004303000843030008430300080000000095
:10018000430300084303000800F002F800F05CF8A5
:100190000AA090E8000C82448344AAF10107DA45E2
:1001A00001D100F051F8AFF2090EBAE80F0013F0D8
:1001B000010F18BFFB1A43F001031847604300000A
:1001C000804300000A444FF0000C10F8013B13F08C
:1001D000070408BF10F8014B1D1108BF10F8015BA0
:1001E000641E05D010F8016B641E01F8016BF9D193
:1001F00013F0080F1EBF10F8014BAD1C0C1B09D1EA
:100200006D1E58BF01F801CBFAD505E014F8016B5B
:1002100001F8016B6D1EF9D59142D6D370470000ED
:100220000023002400250026103A28BF78C1FBD8FF
:10023000520728BF30C148BF0B6070471FB504F09C
:100240002DF91FBD10B510BD00F061F91146FFF783
:10025000F5FF03F003F900F07FF903B4FFF7F2FFB5
:1002600003BC00F087F900002C4B19680868B0E85F
:10027000F04F80F30988BFF36F8F4FF0000080F3D9
:10028000118870470000000008480068006880F38B
:1002900008884FF0000080F3148862B661B6BFF39F
:1002A0004F8FBFF36F8F00DF00BF00BF08ED00E08E
:1002B000DFF80C00016841F470010160704700BF75
:1002C00088ED00E0EFF30980BFF36F8F134B1A68DE
:1002D0001EF0100F08BF20ED108A20E9F04F1060CB
:1002E00009B44FF0500080F31188BFF34F8FBFF374
:1002F0006F8F03F00BFF4FF0000080F3118809BCF3
:1003000019680868B0E8F04F1EF0100F08BFB0EC95
:10031000108A80F30988BFF36F8F70471C0000209C
:10032000EFF30580704700000948804709480047FF
:10033000FEE7FEE7FEE7FEE7FEE7FEE7FEE7FEE795
:10034000FEE7FEE704480549054A064B70470000F2
:10035000A92C00088901000898490020984F002026
:10036000984B0020984B002053EA020C00F0698063
:100370002DE9F04B4FF00006002B1FBFB3FA83F5B9
:1003800003FA05F424FA05F65E4012BF1643B2FAEA
:1003900082F502FA05F4C5F120051EBF22FA05FC1C
:1003A00044EA0C04203556EA044C4FEA144418BFC2
:1003B000641C4FF000084FF00009904271EB030CF1
:1003C00039D3002919BFB1FA81F701FA07F6B0FA5B
:1003D00080F700FA07F6C7F120071EBF20FA07FCD6
:1003E00046EA0C062037B6FBF4FCA7EB0507103FE6
:1003F00007F01F0BCBF120060CFA0BFB2CFA06F6CC
:1004000044BFB3460026202FA4BF5E464FF0000B2A
:100410005BEA060C08BF4FF0010B19EB0B09ABFBB5
:10042000027C48EB0608C01B06FB02CC0BFB03CC8E
:1004300071EB0C01C1E70B46024641464846BDE858
:10044000F08B13B54FF000004FF00001AFF30080C8
:10045000BDE81C40704710B5203AC0F00B80B1E8F1
:100460001850203AA0E81850B1E81850A0E81850E9
:10047000BFF4F5AF5FEA027C24BFB1E81850A0E8F2
:10048000185044BF18C918C0BDE810405FEA827C0C
:1004900024BF51F8043B40F8043B08BF7047D20723
:1004A00028BF31F8023B48BF11F8012B28BF20F8C4
:1004B000023B48BF00F8012B70474FF0000200B527
:1004C000134694469646203922BFA0E80C50A0E877
:1004D0000C50B1F12001BFF4F7AF090728BFA0E825
:1004E0000C5048BF0CC05DF804EB890028BF40F8F1
:1004F000042B08BF704748BF20F8022B11F0804F33
:1005000018BF00F8012B7047704770477047754659
:1005100000F02CF8AE4605006946534620F007006F
:10052000854618B020B5FFF70DFFBDE820404FF01D
:1005300000064FF000074FF000084FF0000B21F0CD
:100540000701AC46ACE8C009ACE8C009ACE8C0099A
:10055000ACE8C0098D46704710B50446AFF3008083
:100560002046BDE81040FFF778BE00000048704705
:100570003449002001491820ABBEFEE726000200E6
:100580007047FEE700B58BB0684600F0B7F86946E3
:10059000054800F0D3F90221034800F059F9024858
:1005A00000F004FD0BB000BD140A0020014800F06B
:1005B000C0BA0000140A00201CB50A88120A8DF87F
:1005C00000200A788DF801204A88120A8DF802204E
:1005D0008A788DF803208A88120A8DF804200A7917
:1005E0008DF80520CA88120A8DF8062089798DF8C1
:1005F000071001466A46024800F08EF81CBD000054
:10060000140A0020A0F5007001380DD0032806D090
:1006100004280ED107480822D0F8243208E0064802
:100620000822D0F8243203E004480822D0F824320B
:1006300018477047F0020020A8000020380500206D
:1006400000B58BB0684600F059F86946054800F0DF
:1006500075F90221034800F0FBF8024800F0A6FCFF
:100660000BB000BD3C0A0020014800F062BA000057
:100670003C0A00201CB50A88120A8DF800200A786E
:100680008DF801204A88120A8DF802208A788DF8A8
:1006900003208A88120A8DF804200A798DF8052033
:1006A000CA88120A8DF8062089798DF8071001464C
:1006B0006A46024800F030F81CBD00003C0A0020E9
:1006C000A0F5007001380DD0032806D004280ED103
:1006D00007480822D0F8243208E006480822D0F85B
:1006E000243203E004480822D0F824321847704727
:1006F000F0020020A8000020380500200021016041
:1007000041608160C160016101224161C0E906125E
:10071000C0E908217047000010B50B4C036888B091
:10072000A34202D0094CA3420BD1009100210291B7
:1007300003910821049106AB694600F09BF800285C
:1007400000D0012008B010BD0064004000680040E7
:1007500002F03EFA104D40F2FF16771CB5F900008A
:1007600002F030FA02F0CCF902F0E0F90B4934461D
:100770003046FFF721FF0A492046FFF77BFF094972
:100780003C463846FFF718FF07492046FFF772FF3F
:10079000012003F02FF9E1E7A400002094000020DD
:1007A0009C000020840000208C000020014800F004
:1007B0008BBC0000380B002001681823CAB2103A25
:1007C000B2FBF3F2054B6FF30901032A9B5CC3658F
:1007D00000D9091D8165084670470000E044000803
:1007E00010B5014600208B698A6A4FF0C07453B17E
:1007F000B3F5005F15D072B1012A0CD0022A0AD0DD
:10080000032A09D104E01AB1012A06D0022A03D131
:10081000C96AC90100D5012010BDC96AA142FAD038
:1008200010BD002AF7D0012AF2D0022AF3D0032A01
:10083000F3D010BD704702F081B910B5FFF7A2FEEA
:10084000FFF7FEFEBDE8104002F0AAB972B6FEE75F
:1008500090F82020012A07D0022A05D0416A41F4ED
:100860008021416201207047006842690A43426169
:1008700000207047F0B590F820500468A468012D5E
:1008800005D0022D03D0416A41F4802153E014F0D9
:10089000406F01D1E5004BD5C4F30164022C03D9AC
:1008A000416A41F4000146E00125A5401D608D68C4
:1008B0004FF4C0739DB1CE6835434E6845EAC60516
:1008C000066803EB0417F5514FF4C275076805EB92
:1008D00004150E697E51097D012905D009E00E88B5
:1008E000CD6845EA4655EBE701684E5946F48076F7
:1008F0004E511179D2F805504FF4C67641EA0525DC
:10090000016806EB04168D511178D2F801204FF4DE
:10091000C47541EA0221026805EB041551510068D3
:1009200003EB0411425842F0010242500020F0BD96
:10093000416A41F4001141620120F0BD10B590F808
:100940002020012A07D0022A05D0416A41F48021E3
:100950004162012010BD3B48D0F8002242F0010264
:10096000C0F80022D0F8002222F47C52C0F8002205
:10097000D0F800224B6A42EA0322C0F800220A7D26
:1009800002F01F0301229A40D0F81C329343C0F8B2
:100990001C32CB69B3B9D0F80C329343C0F80C3297
:1009A0008C894B6864F31F434C6900EBC404C4F8A2
:1009B00040320C890B6864F31F434C6900EBC4049C
:1009C000C4F84432CB69012B16D1D0F80C32134352
:1009D000C0F80C320C884B6864F31F434C6900EB81
:1009E000C404C4F840320C89CB6864F31F434C69DB
:1009F00000EBC404C4F844328B69002BD0F80432F5
:100A00000ED01343C0F804320B69002BD0F8143217
:100A100008D01343C0F81432096A012904D008E051
:100A20009343EFE79343F5E7D0F81C121143C0F866
:100A30001C12D0F8001221F00101C0F800120020B1
:100A400010BD000000640040704730B590F82040B1
:100A5000012C05D0022C03D0416A41F480215DE0D5
:100A60000468002955D02469A40754D04FF4D874E1
:100A7000056804EB01142D5915F00405956005680F
:100A80002D594ED0ED08556005682C5904F002042C
:100A9000D4604FF4DA74056804EB01142D5905F0A5
:100AA0000F05156105682D59C5F307259561056882
:100AB0002C59240C54614FF4DC72046802EB0112CF
:100AC000A4581C700468A458240A5C700468A458D4
:100AD000240C9C700468A258120EDA704FF4DE7277
:100AE000046802EB0112A4581C710468A458240A7B
:100AF0005C710468A458240C9C710468A258120EFE
:100B0000DA71006881B1016941F0200101610020C2
:100B100030BDE468A8E7416A41F400114162012058
:100B200030BD6D0D1560AFE7C16841F02001C160B7
:100B3000EDE72DE9F05F0546006800244669D0F82E
:100B400004908768D0F80CB0D0F810A0D0F81880C6
:100B5000F10748D0F90714D001218160B80703D507
:100B6000284600F050FA0CE0780702D54FF40064F4
:100B700007E0380702D54FF4805402E0284600F021
:100B800041FAF80516D529684FF480708860B805D9
:100B900003D5284600F039FA0CE0780502D544F474
:100BA000005407E0380502D544F4804402E02846AA
:100BB00000F02AFAF80316D529684FF480308860CF
:100BC000B80303D5284600F022FA0CE0780302D5DA
:100BD00044F4004407E0380302D544F4803402E0D2
:100BE000284600F013FA300707D55FEACB6004D53A
:100BF0002968102044F40074C86070074FF008079B
:100C000007D55FEA0B7004D52868C760284600F056
:100C100099F9B00706D52868C068800702D0284631
:100C200000F092F9700607D55FEACA6004D529681A
:100C3000102044F480640861B00607D55FEA0A70AA
:100C400004D528680761284600F0ACF9F00606D5FF
:100C500028680069800702D0284600F0A4F9B00394
:100C600008D55FEAC96005D5296810204860284684
:100C700000F09AF9F00307D55FEA097004D52868F7
:100C80004760284600F0C4F9300446D55FEA497051
:100C900040D5F00504D55FEAC87001D044F00104E6
:100CA000B00504D55FEA887001D544F002047005F0
:100CB00004D55FEA487001D544F00404300529D515
:100CC00018F0700F26D008F07000402815D006DC10
:100CD000102809D020280AD0302816D10AE0502840
:100CE0000ED0602811D10EE044F008040DE044F06D
:100CF00010040AE044F0200407E044F0400404E05B
:100D000044F0800401E044F480742868816921F093
:100D100070018161296804204860002C05D0686A50
:100D2000204368622846FFF78FFEBDE8F09F70B54C
:100D3000040003D094F8200010B104E0012070BD3D
:100D4000204600F081F82068016841F0010101604F
:100D500000F0ECFB0546052604E000F0E7FB401B35
:100D60000A2811D820684068C007F6D020680168BA
:100D700021F00201016000F0D9FB05460BE000F014
:100D8000D5FB401B0A2806D9606A40F40030606237
:100D900084F82060D2E7206840688007EFD4207E86
:100DA0000128206801683DD021F080010160607E4B
:100DB00001282068016838D021F040010160A07E40
:100DC00001282068016833D021F020010160E07E15
:100DD0000128206801682ED041F010010160207FB9
:100DE00001282068016829D021F008010160607F96
:100DF00001282068016824D021F004010160D4E9B1
:100E000002010843D4E90412114308436168491EF2
:100E100008432168C86100206062012084F8200036
:100E2000002070BD41F08001C0E741F04001C5E7FE
:100E300041F02001CAE721F01001CFE741F008019D
:100E4000D4E741F00401D9E7F0B587B00446142196
:100E50006846FFF732FB364B3648DFF8D0E01968BA
:100E6000D4F800C0334A0325022609271030002495
:100E7000491CF44522D11960012907D1016841F0CC
:100E800000710160006800F000700590106840F08B
:100E9000080010601068CDE9005600F00800CDE9A8
:100EA000047069462448CDE9024500F047FA002263
:100EB0000521142000F0C6FB142032E0DFF87CE0AE
:100EC000F44530D1D0F800C04CF0806CC0F800C0C0
:100ED000D0F800C001290CF0806CCDF814C0196066
:100EE00007D1016841F000710160006800F00070F6
:100EF0000590106840F002001060106802AB00F02E
:100F0000020005906020CDE9000683E8B000694644
:100F10000B4800F013FA00220521402000F092FB5C
:100F2000402000F081FB07B0F0BD000000640040ED
:100F30000800002030380240000C024000680040E9
:100F40000004024070470000134910B588420ED1DA
:100F5000124B00211C46A3F11C02FFF776FD0F483F
:100F600021461C380068BDE81040FFF74BBB0C4918
:100F700088420FD1094B002124331C46A3F11C02E7
:100F8000FFF763FD0548214608300068BDE81040C2
:100F9000FFF796BB10BD0000140A0020EC480020AB
:100FA0003C0A0020704770477047000070B5044647
:100FB00090F82000012804D0606A40F400206062AC
:100FC00018E0022084F820002068016821F0010167
:100FD000016000F0ABFA05460EE000BF00F0A6FA93
:100FE000401B0A2808D9606A40F40030606205207E
:100FF00084F82000012070BD20684068C007EDD152
:10100000606270BD704770477047704770477047A7
:1010100070472DE9F0410446876D00F087FA0646D7
:1010200094F835000025022806D08020606584F8F9
:1010300034500120BDE8F0812068016821F01601DC
:1010400001602068416921F080014161206C08B98C
:10105000A06C20B12068016821F0080101602068BF
:10106000016821F0010101600CE000F05FFA801BD3
:10107000052807D920206065032084F8350084F80E
:101080003450D7E720680068C007EED194F85C10B0
:101090003F208840B860012084F8350084F834503F
:1010A0000020C7E790F83510022903D08021416560
:1010B00001207047052180F835100068016821F093
:1010C00001010160002070472DE9F84304464FF00C
:1010D0000009CDF8009063484FF41651A56D0068E3
:1010E000B0FBF1F72E6894F85C10082000FA01F1CB
:1010F00031420FD021680A6852070BD50A6822F0E6
:1011000004020A6094F85C108840A860606D40F0AA
:101110000100606594F85C104FF0010808FA01F0D6
:10112000304208D021684969090604D5A860606D7D
:1011300040F00200606594F85C1004208840304262
:1011400008D021680968890704D5A860606D40F05F
:101150000400606594F85C1010208840304218D07C
:1011600021680968090714D5A86020680168490347
:1011700004D50068000308D5A16C07E00168C90523
:1011800003D4016821F008010160216C09B12046F7
:10119000884794F85C1020208840304231D0216884
:1011A0000968C9062DD5A86094F83500052820687F
:1011B000016806D0490347D5006800031DD4616C5F
:1011C0001CE021F0160101602068416921F08001D6
:1011D0004161206C08B9A06C20B12068016821F041
:1011E0000801016094F85C103F208840A86084F8F2
:1011F000358084F83490216D1FE0E16B09B1204601
:101200008847606D00282BD0606DC00714D0052082
:1012100084F835002068016821F001010160009820
:10122000401C0090B84203D820680068C007F6D17F
:1012300084F8358084F83490E16C002910D001B036
:101240002046BDE8F04308470168C905D5D40168C8
:1012500021F01001016084F8358084F83490CCE7E7
:10126000BDE8F883180000202DE9F041044600F0A5
:101270005DF906465CB1022084F83500002584F84B
:1012800034502068016821F0010101600DE0012067
:10129000BDE8F08100F04AF9801B052805D920201F
:1012A0006065032084F83500F2E720680068C00715
:1012B000F0D12268116820480140D4E901031843A5
:1012C000D4E903363343184363691843A3691843C9
:1012D000E3691843236A18430843616A042903D168
:1012E000D4E90B1319430843106020684069666A0B
:1012F00020F0070130460E43012704280CD1A06AD4
:101300000643E06A40B12046FFF76AFA20B1402068
:10131000606584F83570BAE7206846612046FFF7BB
:101320004BFA94F85C203F2191408160656584F818
:1013300035700020ACE700003F8010F02DE9F84F39
:10134000DFF8BCA1002201250AF1040B03264FF0AF
:101350000F090BF1040E00BF0B6805FA02F42340DD
:10136000A34270D10F7907F00307012F01D0022F9C
:1013700016D187684FEA420806FA08FC27EA0C07EC
:10138000D1F80CC00CFA08FC4CEA070CC0F808C0F5
:101390004768A7430C79C4F3001494403C4344606D
:1013A0000C79E443A4070AD0C4684FEA420C06FA59
:1013B0000CF7BC438F6807FA0CF72743C7600C791A
:1013C00004F00304022C12D1D40800EB840CDCF8E6
:1013D00020405707FF0E09FA07F824EA0804D1F85D
:1013E000108008FA07F848EA0408CCF8208004685E
:1013F0004FEA420C06FA0CF7BC430F7907F00307DB
:1014000007FA0CF7274307604C6814F4403F70D08C
:101410003C4C276847F480472760246822F0030784
:1014200004F480440094384C07EB040CDCF80848C2
:1014300097074FEA177809FA08F7BC43334FB842C9
:1014400002D1002724E054E0314FB84201D10127F6
:101450001EE0304FB84201D1022719E02E4FB842AA
:1014600001D1032714E02D4FB84201D104270FE02A
:101470002B4FB84201D105270AE02A4FB84201D1CB
:10148000062705E0284FB84201D1072700E00827CA
:1014900007FA08F72743CCF80878DAF800405746EF
:1014A000D1F804C09C435FEACC3C00D51C433C60AF
:1014B000DBF800405F46D1F804C09C435FEA8C3CF7
:1014C00000D51C433C60DEF800407746D1F804C0EC
:1014D0009C435FEACC2C00D51C433C60084F0C3782
:1014E0003C68D1F804C09C435FEA8C2C00D51C43B7
:1014F0003C60521C102AFFF42FAFBDE8F88F0000AB
:10150000003C0140443802400030014000000240ED
:101510000004024000080240000C0240001002409B
:101520000014024000180240001C0240014880687C
:10153000704700000C0000200248816802781144C6
:10154000816070470C0000200B4810B5016841F421
:1015500000710160016841F480610160016841F43B
:1015600080710160032000F08DF80F2000F006F874
:1015700000F03EF8002010BD003C024010B50146CE
:1015800088B000221C2000F05DF81C2000F04CF810
:1015900014480024016841F001010160006805A9B8
:1015A00000F001000690684600F018F900F036F9E6
:1015B0000D494000B0FBF1F10C484FF08042491E4C
:1015C000026040F2E732C0E90324C0E9011400F0F0
:1015D000A1FB10B1012008B010BD044800F0EAFBE7
:1015E000F9E700004038024040420F00980B00200D
:1015F0000C4882B0016841F480410160006800F449
:10160000804000900748001F016841F08051016050
:101610000068002200F0805000900F21901E02B060
:1016200000F010B844380240002809DB00F01F0227
:10163000012191404009800000F1E020C0F8001134
:1016400070470000F0B40E4B1B680C46C3F3022336
:10165000C3F10705042D00D90425191D072901D25E
:10166000002300E0DB1E012606FA05F1491E214099
:1016700099409E40761E16403143F0BC01F0A7BD54
:101680000CED00E0064900F0070208684FF6FF0382
:10169000184040EA0220034A1043086070470000E7
:1016A0000CED00E00000FA052DE9F0470E460500BC
:1016B00065D0DFF81481D8F80000F7B200F0070019
:1016C000B04207D288F80070D8F8000000F0070098
:1016D000B04254D128683D4C810712D5400703D54C
:1016E000206840F4E05020602878000703D5206887
:1016F00040F4604020602068A96820F0F0000843B2
:1017000020602878C0072DD0304968680839012842
:1017100012D0022813D0032811D0096889070029A4
:101720002DDA216821F0030101432160FFF7FEFE5D
:10173000814641F2883A0EE009688903EFE70968BB
:101740008901ECE7FFF7F2FEA0EB0901514502D950
:101750000320BDE8F0872068696800F00C00B0EB5A
:10176000810FEFD1D8F80010404601F00701B142D7
:1017700007D90770006800F00700B04201D00120CF
:10178000E7E72878400705D52068E96820F4E050AD
:10179000084320602878000706D52068296920F4CE
:1017A000604040EAC100206000F058F82168084A13
:1017B000C1F30311515CC84006490860064800683F
:1017C000FFF7DCFE0020C4E7003C0240083802407E
:1017D000E844000818000020100000200F220260DA
:1017E0000C4A136803F003034360136803F0F0032B
:1017F0008360136803F4E053C36012684FF4E0534E
:1018000003EAD20202610448006800F007000860A1
:101810007047000008380240003C02400448054977
:1018200000680968044AC1F38221515CC8407047CE
:101830001800002008380240F84400080448054910
:1018400000680968044AC1F34231515CC8407047DE
:101850001800002008380240F8440008154810B568
:10186000006810F00C02144813D01449042A0FD059
:10187000082A0ED10F4C241F2268236802F03F0271
:101880005B0207D52068C0F38810A0FB010106E0C9
:10189000084610BD2168C1F38811A1FB0001002397
:1018A000FEF762FD2168C1F30141491C4900B0FB0C
:1018B000F1F010BD083802400024F40040787D01AA
:1018C0002DE9F84F04006ED02078DFF84C93C00764
:1018D000A9F104054AD009F104000168C1F38101AE
:1018E000012908D00068C0F3810002280AD1D9F884
:1018F0000000400206D52868800337D560680028BC
:10190000E1D033E06068B0F5803F10D0B0F5A02F93
:10191000286810D020F480302860286820F48020C7
:1019200028606068A8B1FFF701FE06460DE0286850
:1019300040F48030F4E740F480202860F7E700BFEF
:10194000FFF7F4FD801B642873D828688003F7D55F
:101950000CE0FFF7EBFD064605E000BFFFF7E6FDF4
:10196000801B6428F0D828688003F7D42078DFF83B
:10197000AC8280074FF0000A3ED5A748001D0168E1
:1019800011F00C0F08D00068C0F3810002280BD1C1
:10199000D9F80000400207D42868800716D5E0680F
:1019A000012800D112E033E1E068B8B10120C8F8A5
:1019B0000000FFF7BBFD064605E000BFFFF7B6FDE0
:1019C000801B0228C0D828688007F7D528682169BD
:1019D00020F0F80040EAC10028600DE0C8F800A03F
:1019E000FFF7A4FD064604E0FFF7A0FD801B0228D8
:1019F0001FD828688007F7D42078000722D5864FA3
:101A000087486169703771B101210160FFF78EFD70
:101A1000064604E0FFF78AFD801B022809D83868D3
:101A20008007F7D50EE0C0F800A0FFF77FFD06465F
:101A300005E082E0FFF77AFD801B02287DD8386838
:101A40008007F7D42078400768D5DFF8CCB10027AD
:101A50000BF13C0BDBF80000C0000BD4DBF80010EE
:101A600041F08051CBF80010DBF80000012700F0B6
:101A7000805000906B4E3068C00510D4306840F440
:101A800080703060FFF752FD009005E0FFF74EFDDB
:101A90000099401A022850D83068C005F6D55E4E2D
:101AA000A0686C3601280FD00528306810D020F0CF
:101AB00001003060306820F004003060A068B8B1E8
:101AC000FFF734FD00900FE0306840F00100F4E7CC
:101AD00040F004003060F7E7FFF728FD0099411A55
:101AE00041F28830814266D830688007F4D50EE034
:101AF000FFF71CFD009007E0FFF718FD0099411A61
:101B000041F28830814256D830688007F4D42FB132
:101B1000DBF8001021F08051CBF80010A069C8B3A9
:101B20003D49091D0968C1F3810102294AD00228F3
:101B3000504607D0C8F8600000E03CE0FFF7F6FC34
:101B400004463BE04746C8F86000FFF7EFFC064656
:101B500005E000BFFFF7EAFC801B02282BD82868AD
:101B60008001F7D4D4E907010843A16A2E4A490845
:101B700002EB0141626A41EA8211084394F82C1099
:101B800040EA0161C9F8001001203866FFF7CEFC79
:101B9000044606E03EE000BFFFF7C8FC001B022839
:101BA00009D828688001F7D534E000BFFFF7BEFCF4
:101BB000001B022802D90320BDE8F88F28688001A5
:101BC000F4D427E00128F7D0D9F80000E26900F446
:101BD000800191421CD1226A00F03F01914217D14D
:101BE00047F6C071626A0140B1EB821F10D1A26A50
:101BF0004FF0FF3300F4403103EB5202B1EB024FE0
:101C000006D194F82C1000F07060B0EB016F01D099
:101C10000120D1E70020CFE704380240000047420E
:101C2000800E4742007000400000FFFF7047704781
:101C300010B590F83C20012A22D0012280F83C20E7
:101C4000CA688C6822F4407222434C6822F4806295
:101C500022430C6822F4006222430C6922F4805271
:101C600022434C6922F400522243C969002322F422
:101C700080420A4301684A6480F83C30002010BD6D
:101C8000022010BD70B590F83C20012A32D001240A
:101C900080F83C40022280F83D2003685A689D6825
:101CA00022F070060A6832435A60134B02689A4267
:101CB00014D0B2F1804F11D0104B9A420ED0104B7D
:101CC0009A420BD00F4B9A4208D00F4B9A4205D044
:101CD0000E4B9A4202D00E4B9A4204D1496825F02D
:101CE00080031943916080F83D40002180F83C104A
:101CF000084670BD022070BD000001400004004095
:101D000000080040000C0040000401400040014079
:101D10000018004010B5040003D094F83D0010B145
:101D200007E0012010BD002084F83C00204600F0B0
:101D30001FF8022084F83D00211D206800F0C2FF3A
:101D4000012084F8460084F83E0084F83F0084F8BF
:101D5000400084F8410084F8420084F8430084F88D
:101D6000440084F8450084F83D00002010BD0000C8
:101D700008B500680C49884208D10C48016841F058
:101D800001010160006800F001000BE00849884291
:101D900009D10648001F016841F004010160006894
:101DA00000F00400009008BD0000014044380240EB
:101DB0000008004090F83D10012901D00120704733
:101DC000022180F83D100168CA6842F00102CA6031
:101DD00000681149884214D0B0F1804F11D00F49EA
:101DE00088420ED00E4988420BD00E49884208D056
:101DF0000D49884205D00D49884202D00C498842DD
:101E000004D1816801F00701062903D0016841F07F
:101E10000101016000207047000001400004004003
:101E200000080040000C0040000401400040014058
:101E30000018004070B5044690F83C0000250128C9
:101E400017D0012684F83C60022084F83D00206809
:101E5000826822F0770222F47F428260086850286C
:101E600038D00DDC20284FD005DC90B3102811D1DC
:101E70004AE0022070BD302846D040280AD13BE01D
:101E800060282FD070280DD0B0F5805F03D0B0F55A
:101E9000005F12D0012584F83D60002084F83C00EA
:101EA000284670BDCB68D1E90121206800F07BFF96
:101EB0002068816841F0770109E0CB68D1E9012110
:101EC000206800F070FF2068816841F480418160E3
:101ED000E1E719E0CA684968206801F039F8502143
:101EE000206806E0CA684968206801F042F860216D
:101EF000206800F062FFCEE7CA684968206801F0F8
:101F000027F840212068F4E7226801461046F0E7F0
:101F1000704770B50446006801694FF00005C94379
:101F2000890715D4C168C943890711D4E91E016125
:101F300001202077206880698007204602D0FFF7C3
:101F4000E7FF04E000F0C2F8204600F054F92577DE
:101F500020680169C943490717D4C168C9434907C3
:101F600013D46FF00401016102202077206880699A
:101F700010F4407F204602D0FFF7CAFF04E000F0D3
:101F8000A5F8204600F037F9257720680169C94394
:101F9000090716D4C168C943090712D46FF00801B4
:101FA0000161042020772068C0698007204602D0A4
:101FB000FFF7AEFF04E000F089F8204600F01BF9BF
:101FC000257720680169C943C90617D4C168C94388
:101FD000C90613D46FF01001016108202077206832
:101FE000C06910F4407F204602D0FFF791FF04E063
:101FF00000F06CF8204600F0FEF8257720680169B3
:10200000C943C90708D1C168C943C90704D1891E9A
:102010000161204600F054F920680169C9430906AE
:1020200009D4C168C943090605D46FF08001016174
:102030002046FFF7FBFD20680169C943490609D422
:10204000C168C943490605D46FF0400101612046CB
:1020500000F03DF920680169C94389060BD4C168C5
:10206000C943890607D46FF0200101612046BDE80D
:102070007040FFF7DCBD70BD10B586B0044614217A
:102080006846FEF71AFA0E492068884216D10D48B4
:102090000021026842F010020260006800F01000A7
:1020A00005904FF4206000900220CDE9010101204D
:1020B000CDE9031069460448FFF740F906B010BDAA
:1020C000000001403038024000100240704770B5F7
:1020D000044690F83C0000260D4601280FD0012050
:1020E00084F83C006AB1042A1DD0082A2FD00C2A9B
:1020F0003FD00126002084F83C00304670BD02200D
:1021000070BD206800F062FE2068816941F008011E
:1021100081612068816921F0040181612068816901
:102120002A69114311E0206800F080FE206881696F
:1021300041F4006181612068816921F480618161DD
:10214000206881692A6941EA02218161D2E7206819
:1021500000F0A2FE2068C16941F00801C161206859
:10216000C16921F00401C1612068C1692A69114374
:1021700011E0206800F0C4FE2068C16941F40061EC
:10218000C1612068C16921F48061C1612068C169B1
:102190002A6941EA0221C161ACE710B5040003D00D
:1021A00094F83D0010B107E0012010BD002084F834
:1021B0003C00204600F01EF8022084F83D00211D5E
:1021C000206800F07FFD012084F8460084F83E007E
:1021D00084F83F0084F8400084F8410084F842000D
:1021E00084F8430084F8440084F8450084F83D00F6
:1021F000002010BD7047704710B50446022249B157
:1022000004290ED0082913D094F84100012816D0D3
:10221000012010BD94F83E000128F9D184F83E2039
:102220000FE094F83F000128F2D184F83F2008E045
:1022300094F840000128EBD184F8402001E084F8B4
:1022400041200122206800F0A1FD16492068164AAD
:10225000884201D0904203D1436C43F4004343646D
:102260002068884213D0B0F1804F10D00F498842C7
:102270000DD00F4988420AD00E49884207D09042BB
:1022800005D00D49884202D00C49884204D18168AA
:1022900001F00701062903D0016841F00101016046
:1022A000002010BD00000140000401400004004077
:1022B00000080040000C00400040014000180040B1
:1022C0000068B0F1804F01D1FFF736B97047704711
:1022D00070477047F8B5016804460868CA684B69DA
:1022E00010F00F0F4FF000055AD003F0010602F472
:1022F0009077374365D0C10705D0D10503D5216C50
:1023000041F001012164410705D5D90703D0216CB3
:1023100041F002012164810705D5D90703D0216C62
:1023200041F004012164010707D502F02001314387
:1023300003D0216C41F008012164216C00293BD0BD
:10234000800604D5900602D5204600F053FE206892
:102350004069216CC0F3801001F008010143204660
:102360002BD000F020FE20684069400621D520686F
:10237000143050E8001F21F0400140E80012002A0C
:10238000F5D1A06BA8B16C490165A06BFEF78AFE80
:10239000002811D0A06B016D01B0BDE8F0400847E6
:1023A00083060ED593060CD52046BDE8F84000F014
:1023B00021BE2046FFF78DFFF8BDFFF78AFF256499
:1023C000F8BD266B2023012E79D1C60677D5D60617
:1023D00075D50868486800904869400640D5A16BEB
:1023E000086840680004000CEAD0A28D8242E7D958
:1023F000E085C869B0F5807F2DD020680C3050E8AA
:10240000001F21F4807140E80012002AF5D12068F5
:10241000143050E8001F21F0010140E80012002AAA
:10242000F5D12068143050E8001F21F0400140E849
:102430000012002AF5D184F83E30256320680C3064
:1024400050E8001F21F0100140E80012002AF5D1E9
:10245000A06BFEF7DEFDA08DE18D401A81B229E070
:10246000A08DE18D401A81B2E08D0028A8D000290E
:10247000A6D020680C3050E8002F22F4907240E87B
:102480000026002EF5D12068143050E8002F22F0ED
:10249000010240E80026002EF5D184F83E30256385
:1024A00020680C3050E8002F22F0100240E8002392
:1024B000002BF5D12046FFF70BFFF8BDFFE705061F
:1024C0002BD5150629D594F83D002128F5D1A06813
:1024D000B0F5805F01D12069B0B1206A411C216252
:1024E000216800784860E08C401E0004000CE08405
:1024F000E3D12068C16821F08001C1602068C16813
:1025000041F04001C160D8E7206A0088C0F30800AC
:102510004860206A801C2062E5E74006CDD5500661
:10252000CBD5CA68204622F04002CA6084F83D300C
:1025300000F08FF8C1E70000972F000870B5040085
:1025400004D094F83D00002510B106E0012070BDD4
:1025500084F83C50204600F023F8242084F83D0005
:102560002068C16821F40051C160204600F0A2FD3E
:102570002068016921F4904101612068416921F0DE
:102580002A0141612068C16841F40051C16025649D
:10259000202084F83D0084F83E00002070BD00003B
:1025A00070B586B0064614216846FDF786FF2349BC
:1025B0003068884240D122480025016841F400314A
:1025C0000160006800F4003005901D481038016873
:1025D00041F0010101600068694600F001000590CA
:1025E0000C2000900220CDE9010503200390072074
:1025F00004901448FEF7A2FE144C134820604FF0DC
:102600000060C4E901054014C4E90350801065610D
:10261000C4E90650256220466562FEF725FE08B132
:10262000FEF714F9B463002205212620A663FFF704
:1026300009F82620FEF7F8FF06B070BD0044004000
:10264000403802400000024088600240380B002001
:1026500070477047FEE70000104810B50E49016052
:102660000321416000214FF400228160C0E9031280
:102670004FF4401242610176012242768276C176A1
:1026800001774277FEF753FB002803D0BDE81040E6
:10269000FEF7DCB810BD000000640040140A002002
:1026A000104810B50E4901600321416000214FF42C
:1026B00000228160C0E903124FF4401242610176AA
:1026C000012242768276C17601774277FEF72FFBB0
:1026D000002803D0BDE81040FEF7B8B810BD0000D8
:1026E000006800403C0A0020094808B5016841F430
:1026F000001101600068002200F400100090052124
:102700001020FEF79FFFBDE808401020FEF78CBFA9
:102710003038024010B58EB01C220B496846FDF7D8
:102720009AFE0021684601F071F9084C06491C2206
:1027300020601C3107A8FDF78EFE002107A801F0DC
:1027400065F960600EB010BDA844000800000020CC
:10275000154808B5016841F080010160016801F089
:1027600080010091016841F001010160016801F000
:1027700001010091016841F010010160016801F060
:1027800010010091016841F008010160016801F049
:1027900008010091016841F002010160006800F049
:1027A0000200009008BD00003038024010B596B01D
:1027B00000240F9410941194129413941C216846D1
:1027C0001494FDF77AFE202107A8FDF776FE2D4828
:1027D0002B49016040F28F61C0E9011440F2E731FA
:1027E000C0E9031444618461FFF794FA08B1FEF76D
:1027F0002DF84FF480500F900FA92248FFF71AFBD5
:1028000008B1FEF723F81F48FFF7C7FC08B1FEF731
:102810001DF8139413A91B481494FFF733FA08B159
:10282000FEF714F86020CDE90004029403940494A8
:1028300005940022694613480694FFF748FC08B146
:10284000FEF704F8042269460E48FFF740FC08B181
:10285000FDF7FCFF0794089409944FF400500A9484
:10286000CDE90B4007A907480E94FFF7E1F908B13D
:10287000FDF7ECFF0348FFF7FFFB16B010BD0000AB
:1028800000000140640A002010B586B000241848FA
:1028900000940194029403940494144905940160F3
:1028A00042F2CF01C0E9011441F26F71C0E9031493
:1028B00080218161FFF72EFA08B1FDF7C7FF4FF4C1
:1028C0008050009069460A48FFF7B4FA08B1FDF756
:1028D000BDFF049404A906480594FFF7D3F9002826
:1028E00001D0FDF7B3FF06B010BD000000080040A6
:1028F000AC0A00200D4810B50B4901600C4941603D
:1029000000214FF480628160C0E903120C22C0E90B
:102910000521C161FFF712FE002803D0BDE8104079
:10292000FDF794BF10BD000000440040F40A0020F1
:10293000A0860100FEE700002DE9F05F334C344D26
:10294000344EE07DDFF8D090DFF8D0A001280BD026
:10295000216A002025F8110026F8110029F811003D
:102960002AF81100BDE8F09F284994F8248040F22D
:102970000223C8695F1C2A4AD1F8301240F2012CA8
:102980004FF4017BB8F1000F13D0604505D0984299
:1029900003D0B84201D058452BD192ED010A1B4813
:1029A0008847BDEEC00A226A10EE100A29F812000C
:1029B000D8E7604505D0984203D0B84201D05845C9
:1029C0000BD192ED010A11488847BDEEC00A216A79
:1029D00010EE100A25F81100C4E792ED010A0B4829
:1029E0008847BDEEC00A216A10EE100A26F81100D1
:1029F000B8E792ED010A05488847BDEEC00A226A91
:102A000010EE100A2AF81200ACE70000380500208A
:102A100084000020940000208C0000209C000020F6
:102A2000800700202DE9F0472F4C304D304EE07DDF
:102A3000304FDFF8C49001280BD0216A002025F820
:102A4000110026F8110027F8110029F81100BDE83F
:102A5000F0872A48244994F8248090ED000A40F237
:102A60000222C869531CD1F8301240F2012C4FF4F5
:102A7000017AB8F1000F11D0604505D0904203D023
:102A8000984201D0504525D117488847BDEEC00A6D
:102A9000216A10EE100A27F81100D8E7604505D02A
:102AA000904203D0984201D0504509D10E48884742
:102AB000BDEEC00A216A10EE100A25F81100C6E723
:102AC00009488847BDEEC00A216A10EE100A26F8B0
:102AD0001100BCE704488847BDEEC00A226A10EE28
:102AE000100A29F81200B2E7A80000208400002094
:102AF000940000208C0000209C0000208007002013
:102B0000074810B5D0F8181288470648D0F81812B0
:102B100088470548D0F81812BDE810400847000063
:102B2000A800002038050020F002002010B5FFF7B3
:102B300079FFBDE81040FFF7FFBE000070B5124CF2
:102B40002046D4F814128847104D2846D5F81412A0
:102B500088470F4E3046D6F814128847D4F81C2206
:102B60000C4904F12C0090470A49D5F81C221C316D
:102B700005F12C00904706F12C00D6F81C22BDE888
:102B80007040054910470000A800002038050020CB
:102B9000F00200208807002018490020FEE700000E
:102BA00010B50548FFF706F904210448FFF724FB98
:102BB00003490020886310BDAC0A0020640A00208D
:102BC0000000014001498863704700000000014097
:102BD00004210148FFF710BB640A0020012000F027
:102BE00009FFFBE710B5502080F31188BFF34F8F2A
:102BF000BFF36F8F01F08AFB18B104494FF080508A
:102C00000860002080F3118810BD000004ED00E092
:102C100030B593B030216846FDF74FFC14210CA865
:102C2000FDF74BFC1E480025016841F08051016012
:102C3000006800F0805011901A48016841F480410A
:102C400001600068022400F480401190012000908F
:102C5000000401908001CDE90640192008904FF44E
:102C6000A870CDE9090404200B906846FEF728FE01
:102C700008B172B6FEE70CA90F2081E831004FF4CD
:102C8000A0500F904FF48050109005210CA8FEF733
:102C90000BFD002801D072B6FEE713B030BD000076
:102CA00040380240007000400248016841F4700161
:102CB0000160704788ED00E00148FFF72AB9000085
:102CC000980B0020F0B50268254C264D264E274F64
:102CD000274B4FF0804CA04209D0604507D0A84256
:102CE00005D0B04203D0B84201D0984204D122F0BE
:102CF000700E4A6842EA0E02A0421BD0604519D00D
:102D0000A84217D0B04215D0B84213D0984211D083
:102D1000184DA8420ED0184DA8420BD0174DA8420E
:102D200008D0174DA84205D0164DA84202D0164D26
:102D3000A84203D122F44075CA682A434D6922F0A3
:102D400080022A4302608A68C2620A688262A042E4
:102D500001D0984201D10969016301214161F0BDAF
:102D6000000001400004004000080040000C00404A
:102D7000000401400040014000440140004801407F
:102D800000180040001C00400020004010B501F079
:102D90001F030121046A99408C430462016A9A402E
:102DA0001143016210BD10B5846842EA032224F485
:102DB0007F440A432243826010BD826822F0700281
:102DC0000A4342F00701816070470000F0B5026AD3
:102DD00022F001020262036A42688469124E24F002
:102DE00073050C682C4323F002058B682B430D4DB3
:102DF000A84201D0B04205D123F00807CB683B437D
:102E000023F00403A84201D0B04205D14D6922F459
:102E1000407215438A692A4342608461496841636C
:102E20000362F0BD0000014000040140F0B5026AF9
:102E300022F010020262026A436884690D6824F479
:102E4000E64444EA05248D6822F0200242EA051295
:102E50000F4D104EA84201D0B04206D1CF6822F0EB
:102E6000800242EA071222F04002A84201D0B0429A
:102E700007D14D6923F4406343EA85038D6943EA32
:102E8000850343608461496881630262F0BD00008C
:102E90000000014000040140F0B5026A22F4807293
:102EA0000262026A4368C46922F4007224F0730566
:102EB0000C68124E2C438D6842EA05220E4DA84242
:102EC00001D0B04206D1CF6822F4006242EA072264
:102ED00022F48062A84201D0B04207D14D6923F4A8
:102EE000405343EA05138D6943EA05134360C46107
:102EF0004968C1630262F0BD000001400004014066
:102F000030B5026A22F480520262046A4268C369E0
:102F10000D6823F4E64343EA05238D6824F4005446
:102F200044EA0534084DA84202D0084DA84204D115
:102F30004D6922F4804242EA85124260C3614968C9
:102F40000164046230BD0000000001400004014043
:102F500010B5036A046A24F001040462846924F051
:102F6000F00444EA021423F00A020A438461026274
:102F700010BD10B5036A23F0100303628369046A6D
:102F800023F4704343EA023224F0A00343EA011120
:102F90008261016210BD10B5806B0021C185C184C2
:102FA000FFF797F910BD01680C3151E8002F22F4AA
:102FB000907241E80023002BF5D10168143151E8EB
:102FC000002F22F0010241E80023002BF5D1016B14
:102FD000012909D101680C3151E8002F22F01002BB
:102FE00041E80023002BF5D1202180F83E1000217C
:102FF0000163704708B590F83E10222901D00220E5
:1030000008BD82684FF480539A4201D1016921B111
:10301000816A9A421BD04AB10AE00268816A52680A
:10302000C2F308020A80816A891C08E0026972B151
:103030000268526802F07F020A70816A491C81624C
:10304000C18D491E0904090CC18503D019E002682D
:103050005268F1E70168CA6822F02002CA6001687C
:10306000CA6822F48072CA6001684A6922F00102CB
:103070004A61202180F83E10016B012903D0FFF73F
:10308000E7FA002008BD0021016301680C3151E816
:10309000002F22F0100241E80023002BF5D1016837
:1030A0000A68D20602D50A6849680091818DFFF747
:1030B0000FF9E6E770B5044600680169E26821F49B
:1030C0004051114301612169A068E26908436169C7
:1030D000114308432168CA6849F20C639A430243CA
:1030E000CA6020684169A26921F4407111434161BD
:1030F00031492068884202D03049884202D1FEF727
:103100009DFB01E0FEF78AFBE2690023192164259B
:103110003226B2F5004F626828D0A0FB0101930F60
:103120009200FDF721F90146B0FBF5F06FF01802AF
:10313000504301EB800006EB0010B0FBF5F000F00F
:10314000F002B1FBF5F002EB0012B1FBF5F06FF00D
:103150001803584301EB800006EB0010B0FBF5F0BC
:1031600000F00F0021681044886070BDA0FB0101D1
:1031700092185B41FDF7F8F80146B0FBF5F002014B
:10318000B1FBF5F06FF01803584301EB800006EB3C
:10319000C000B0FBF5F000F0F80002EB4002B1FB1C
:1031A000F5F0584301EB800006EBC000B0FBF5F0F2
:1031B00000F00700D6E700000010014000140140B5
:1031C0000148FFF787B80000F40A0020FEE709076E
:1031D000090E002804DB00F1E02080F8001470479D
:1031E00000F00F0000F1E02080F8141D704700B5DA
:1031F00050B149B1027D3AB190F82520531E022BFF
:1032000004D800F0FBF806E0002000BD121F012AE0
:1032100001D800F003F8204600BD7047F0B50D78E6
:10322000D0F81032002403F10C024FF6FF76942DF3
:1032300079D008DC302D0DD0332D18D0902D26D02C
:10324000922D13D139E09A2D7CD09C2D6AD09D2DE2
:10325000F7D196E08A781A70CA785A700A799A700B
:103260004A79DA708A791A71C97959719AE0CA79FA
:1032700012025A868D792A4312025A864D792A43C0
:1032800012025A8609790A43110259868AE0CB78DC
:1032900006EA032313818D782B4313814B7906EAC9
:1032A000032353810D792B435381CB7906EA032302
:1032B000938189790B43938174E0CD79220242EAAC
:1032C00015622D02C3E90A528E791202354342EA91
:1032D00015622D02C3E90A524E791202354342EAC1
:1032E00015622D02C3E90A520E791202354342EAF1
:1032F00015622D02C3E90A52CE781202354342EA22
:1033000015622D02C3E90A528E783543160246EA49
:1033100015662A02C3E90A2649780A439A6241E0FF
:1033200001E00FE01AE0CA7912021A628D792A438D
:1033300012021A624D792A4312021A6209790A436B
:103340001A622FE04B7813700B7906EA032353803F
:10335000CD782B435380C979117123E04D781570D6
:10336000CD782D02D5808D78D5804D792D021D86A2
:103370000D791D86CB7906EA0323138189791181A2
:1033800010E04B781370CB781B02D3818B78D381FC
:103390004B791B0213820B791382CB791B02538268
:1033A000897951828475F0BD002822D01149C0F876
:1033B00024121149C0F8201290F8252040F2FF1184
:1033C000012A0BD04B1C022A01D0032A11D1C26959
:1033D000A2F20122042A08D2836107E0C269A2F2A4
:1033E0000522042A01D340F2FF21816102F003018A
:1033F00001627047EF3100081B3200080A8852BA98
:1034000002804A8852BA42808A8852BA82808A8868
:1034100052BA02818979C180B0F90A1041F6FE7270
:1034200009B903696BB10388591A09B201F6FF7330
:10343000934207D90269002906DBA1F5F851FF394B
:1034400005E00021026902E041F6FF7319440A44D5
:10345000026102884281002181757047FEF774F88D
:10346000FFF7D6FBFFF774F9FFF73EF9FFF7F4F823
:10347000FFF716F9FFF73EFAFFF798F9FFF704FA9E
:10348000FDF7D9F9FDF7D9F9FFF744F900F0B9FADA
:10349000FEE701460020842900D0C81C70470028A0
:1034A00011D0017D00290ED0817D491CCAB28275E0
:1034B000417D8A4202D98175002103E0C17D002946
:1034C00001D10121C175704710B5040034D094F8C2
:1034D0002500052803D1D4F8100200282CD00020A4
:1034E000E075A0756420607594F8240008B1012887
:1034F00002D12046FFF758FF1048C4F81C021048BC
:10350000C4F818020F48C4F844020F48C4F8400237
:103510000E48C4F83C020E48C4F830020D48C4F806
:103520002C020D48C4F828020C48C4F838020C4894
:10353000C4F834020120207510BD00006535000874
:103540009F340008D9350008BB36000889360008CA
:10355000B53900080537000859390008A1390008B5
:103560002D390008002834D0002932D09FED190AE7
:1035700080ED000A80ED010A80ED020A80ED030A69
:1035800080ED040A80ED050A80ED060A80ED070A49
:1035900080ED080A91ED000A80ED0A0A91ED010A1A
:1035A00080ED0B0A91ED020A80ED0C0A91ED030A01
:1035B00080ED0D0A91ED040A80ED0E0A91ED050AE9
:1035C00080ED0F0A91ED060A012180ED100A80F8C6
:1035D0002410704700000000027D0021EAB1C27D86
:1035E000DAB1D0ED820AF5EEC00AF1EE10FA01DC94
:1035F000F1EE600AF4EEC00AF1EE10FA11DDB0F956
:103600000220121D082A0CD890F80C22521CD2B2AB
:1036100080F80C22642A02D006E0002070470121C5
:1036200002E0002280F80C2208467047B5EEC00A7E
:10363000F1EE10FA02D230EE200A7047B4EEE00A42
:10364000F1EE10FAF9DB30EE600A7047B5EEC00A11
:10365000F1EE10FA02DDB0EE401A01E0B1EE401AD0
:10366000F6EE001A60EEA11AB4EEE11AF1EE10FACD
:1036700006DDB5EEC00AF1EE10FA02DB30EE600AAC
:10368000704730EE200A704710B5B0F90030B0F93D
:1036900028401A1BA34200DA0A4412B2A2EB5103DB
:1036A000002B01DCC2EB5103B3EB910F01DA0121D6
:1036B00000E0002180F82A1010BD10B5B0F90030EC
:1036C000B0F928401A1BA34200DA0A4412B28A1A3F
:1036D00002EB910212B28A4201DD521A12B2A2EB3F
:1036E000910200EE102A00EE901AB8EEC00AF8EE31
:1036F000600AFFF79BFFBDEEC00A10EE101A818131
:1037000010BD000010B50446007DDFED100AD0B1F9
:1037100094F89400B8B184ED1C0AB4F902000122B7
:1037200000EE100AB4F9000004F1B401F8EEC00A8A
:1037300000EE100A04F17000B8EEC00A00F094F830
:1037400084ED820A10BDB0EE600A10BD00000000DA
:1037500090F824109FED430A00297CD0D0ED020A96
:1037600000F12801F5EEC00AF1EE10FA01DCF1EEED
:10377000600A91ED031AF4EEC10AF1EE10FA01D8D5
:1037800080ED020A90ED040AD0ED020A30EE200A24
:1037900080ED040AD1ED040AB4EEE00AF1EE10FA6D
:1037A00006DCF1EE600AB4EEE00AF1EE10FA01D2A6
:1037B000B0EE600A80ED040A91ED000AD0ED020A35
:1037C00020EE200A80ED050A91ED010AD0ED040AF1
:1037D00020EE200A80ED060A90ED020AD0ED030AE1
:1037E00030EE600AD1ED020A20EE200A80ED070AD1
:1037F00090ED060AD1ED050AB4EEE00AF1EE10FAFA
:1038000006DCF1EE600AB4EEE00AF1EE10FA01D245
:10381000B0EE600A80ED060AD0ED050A30EE800AAF
:10382000D0ED070A30EE200A80ED080AD1ED060A35
:10383000B4EEE00AF1EE10FA06DCF1EE600AB4EE46
:10384000E00AF1EE10FA01D2B0EE600A80ED080A4B
:1038500090ED020A00E003E080ED030A90ED080A13
:10386000704700000000000010B5F0EE602A0C4622
:1038700003000CD09FED2A1A9FED2A2A54B100F0C4
:1038800059F8DAB3012A26D0022A37D128E09FED71
:10389000260A10BD00F04EF8BAB1012A02D0022A61
:1038A00013D104E093ED020AF0EE410A09E093ED32
:1038B000020AF0EE410AFFF7C9FE83ED020AF0EEBC
:1038C000420AFFF7C3FE83ED020A1846FFF740FFE6
:1038D00093ED080A10BD93ED020AF0EE410A09E0EB
:1038E00093ED020AF0EE410AFFF7B0FE83ED020A03
:1038F000F0EE420AFFF7AAFE83ED020A1846FFF730
:1039000027FF93ED080A204684ED000AB0EE620A14
:1039100000F010F82046FFF71BFF94ED080A10BDD9
:1039200000F8FF4500F07F450000000080ED001A20
:10393000FFF79ABF90F8241041B180ED010AD0ED55
:10394000000A30EEC00A80ED020A70479FED010ABE
:10395000704700000000000010B50446007DDFED58
:103960000F0AC0B194F81C01A8B184ED3E0AB4F965
:103970000200002200EE100A04F59E7104F1F80026
:10398000F8EEC00A94ED040AB8EEC00AFFF76CFF27
:1039900084ED820A10BDB0EE600A10BD0000000088
:1039A000C0ED000A0022DFED020A1146FFF75CBFFE
:1039B0000000000010B50446007DDFED0D0A98B14F
:1039C00094F8500080B184ED0B0AB4F90200002293
:1039D00000EE100A114604F12C00B8EEC00AFFF701
:1039E00043FF84ED820A10BDB0EE600A10BD0000F6
:1039F0000000000010B500B9012000F023FB0020FA
:103A000010BD10B500F044FB002010BD7FB50D4681
:103A100004464169B0F9080081B1A16971B1FFF7AD
:103A200038FDD4E905128DE80700D4E900102B46D3
:103A3000226900F040FC039004B070BDFFF729FD3F
:103A400003A9CDE90001208A2B4682B2D4E90010F7
:103A500000F004FC012801D00020EDE70398EBE71B
:103A60002DE9F041184C0F460546E6682068001D18
:103A700000F020FA38B9206890F82C100120884016
:103A8000216981432161681C07D137B12168BDE8F4
:103A9000F0410E48091D00F051BA20683544B54286
:103AA0004560216805D2A06BBDE8F041091D00F01A
:103AB0002DBA606B091D00F029FAA06A854200D278
:103AC000A562BDE8F08100001C000020BC0C0020B5
:103AD0002DE9F041054600F03DFA2E4CA068401C4F
:103AE000A06020682C4F10B1606940B32DE02560C4
:103AF000A068012829D1002606EB860007EB80008C
:103B000000F0F6F9761C072EF6D323488C3000F02F
:103B1000EFF92148A03000F0EBF91F48B43000F075
:103B2000E7F91D48C83000F0E3F91B48DC3000F02D
:103B3000DFF919488C3060631430A06305E0206819
:103B4000E96AC06A884200D82560606A401C6062E9
:103B5000E96A0120226988401043206101EB81005D
:103B600007EB8000291D00F0E9F900F013FA606905
:103B700000280CD02068E96AC06A884207D2074949
:103B80004FF080500860BFF34F8FBFF36F8FBDE8D9
:103B9000F08100001C000020E00B002004ED00E09C
:103BA00010B5044690F8510058B101280CD00228F5
:103BB0000FD0502080F31188BFF34F8FBFF36F8F6A
:103BC000FEE7206B00F0FAF92046BDE8104000F057
:103BD000F5B910BD10484FF47051420706D0C01D12
:103BE0000D4920F00700411AC1F570510B4A00231E
:103BF0000144C2E900030839183A21F007011160B5
:103C00004B600B600B1AC0E9001393604FF000404B
:103C10005360506170470000D00C002070000020FD
:103C2000144E154CA6F1C8074FF08058DFF84C90A1
:103C300012E000BF00F08EF9F068C568281D00F0A2
:103C400039F9A068401EA0606068401E606000F006
:103C5000A1F92846FFF7A4FF60680028EAD1386878
:103C60000128F9D9C9F80080BFF34F8FBFF36F8FD8
:103C7000F2E70000A80C00201C00002004ED00E08A
:103C80002DE9F0479A46DDE9098481466FF0030388
:103C9000206B03EB82021044089E20F00707780790
:103CA00007D0502080F31188BFF34F8FBFF36F8F81
:103CB000FEE7002561B1002023180A5C83F8342058
:103CC0000A5C12B1401C1028F6D384F8435001E07E
:103CD00084F83450072E00D30626E662C4E9116545
:103CE000201D00F010F904F1180000F00CF9246117
:103CF000C6F107006462A061E56484F85050524642
:103D00004946384600F0C0F82060B8F1000F01D0F5
:103D1000C8F80040BDE8F08730B5114900E0114611
:103D20000A688242FBD34B685C18844203D1406826
:103D300018444860084643681C18944209D1084C4E
:103D4000183C2468A24209D052681A4442600A68AA
:103D500012680260814200D0086030BD0460F9E75B
:103D6000700000200648416B096829B1416BC968A1
:103D7000C9684968816270474FF0FF31FAE7000077
:103D80001C00002008484068401C4FF0500080F3A1
:103D9000118804D0BFF34F8FBFF36F8FFEE7BFF3DF
:103DA0004F8FBFF36F8FFEE7780000202DE9F041C1
:103DB0000546002700F0A2F9324E306808B9FFF737
:103DC00009FF706905424ED1C5B3083568070ED0AA
:103DD00005F00700C0F108000544680707D050202F
:103DE00080F31188BFF34F8FBFF36F8FFEE72DB3C2
:103DF0007068854237D82348183001460C6801E0C6
:103E000020460C466168A94202D221680029F7D1F8
:103E100031688C4227D007682168016060680837E4
:103E2000411B10290FD96019420708D0502080F398
:103E30001188BFF34F8FBFF36F8FFEE713E0416030
:103E40006560FFF769FF61687068401A7060B2686A
:103E5000904200D2B060706901430020C4E90001C3
:103E6000F068401CF06000F0B7FA780707D05020E7
:103E700080F31188BFF34F8FBFF36F8FFEE7384693
:103E8000BDE8F0815800002010B5031F4FF080748A
:103E90001C601B1F21F001011960191F044B0B60EE
:103EA00014390A60091F6FF0020244380A6010BD1D
:103EB000853D0008D0E9013201699A60D0E901230B
:103EC0005A604A68824201D182684A6000220261D7
:103ED0000868401E0860086870470000034B0360D4
:103EE00003F154000860802010607047C007002074
:103EF00000F108014FF0FF32C0E90112C160016119
:103F000000210160704700210161704730B50B68E6
:103F10005A1C02D000F1080202E0026904E02246C5
:103F2000546825689D42FAD953684B6099608A604D
:103F3000516008610168491C016030BD42684A60F7
:103F400093688B6093685960916008610168491CAF
:103F500001607047502080F31188BFF34F8FBFF38B
:103F60006F8F0A494868401C486001280CD10848F6
:103F7000006810F0FF0F07D0502080F31188BFF3C6
:103F80004F8FBFF36F8FFEE770470000780000206F
:103F900004ED00E00849486828B1401E486001D19E
:103FA00080F311887047502080F31188BFF34F8F42
:103FB000BFF36F8FFEE700007800002070B5002887
:103FC0002AD0164DA0F1080460686969084207D13B
:103FD000502080F31188BFF34F8FBFF36F8FFEE740
:103FE00022683AB1502080F31188BFF34F8FBFF39E
:103FF0006F8FFEE78843606000F080F86068696852
:10400000084468602046FFF787FE2869401C286145
:10401000BDE8704000F0E0B970BD0000580000201D
:104020004FF0E02000210161816105494FF47A726F
:104030000968B1FBF2F1491E416107210161704736
:104040001800002010B5020014D00F48006B38B1E2
:10405000502080F31188BFF34F8FBFF36F8FFEE7BF
:1040600000F04CF800211046FFF7FAFC00F0B4F91C
:10407000002807D105494FF080500860BFF34F8FEB
:10408000BFF36F8F10BD00001C00002004ED00E0A6
:1040900010B586B00024039405AA04A903A80494CB
:1040A000FFF71CFFDDE903010094CDE901100023B7
:1040B0000EA11048059A00F0FEF80F490028C862CA
:1040C00011D0502080F31188BFF34F8FBFF36F8F53
:1040D0004FF0FF30886201204861CC6006B0BDE837
:1040E000104000F041B806B010BD000049444C45F6
:1040F00000000000213C00081C0000200248016B69
:10410000491C0163704700001C0000201448016B2B
:1041100011B10121C16170470021C1610169B1FA8A
:1041200081F1C1F11F0101EB81020E4951F82230EA
:104130006BB101EB820101F108034A6852684A60E1
:104140009A4201D152684A60D1680160704750209C
:1041500080F31188BFF34F8FBFF36F8FFEE700002E
:104160001C000020E00B00201CB537480168374ACE
:10417000914207D1502080F31188BFF34F8FBFF3D6
:104180006F8FFEE700683149491E884207D15020F1
:1041900080F31188BFF34F8FBFF36F8FFEE72C4979
:1041A00008780190FF20087008788DF800009DF8CD
:1041B00000009DF8002000F0F000904207D0502051
:1041C00080F31188BFF34F8FBFF36F8FFEE79DF829
:1041D0000000204C00F0500020700720A06005E097
:1041E0009DF8002052008DF80020401E9DF8002010
:1041F0001206F5D4A060032807D0502080F3118860
:10420000BFF34F8FBFF36F8FFEE74FF44070A06096
:10421000019808700C482030016841F47001016079
:10422000016841F070410160FFF7FAFE0020606014
:10423000FCF73EF80848016841F040410160FCF796
:1042400023F800201CBD000000ED00E071C20F410A
:1042500000E400E07800002034EF00E02DE9FF5F8B
:104260008346DDE90E87994616468A469000FFF799
:104270009DFD05001CD05420FFF798FD040014D0CC
:104280000020256384F85100CDE90240CDE9008784
:104290004B46324651465846FFF7F2FC2046FFF7A0
:1042A00017FC012004B0BDE8F09F2846FFF786FE0A
:1042B0004FF0FF30F6E7F0B585B0DDE90B640A9DFD
:1042C000A6B1DCB1542700972663022684F851601A
:1042D000002604AFCDE90246CDE90057FFF7D0FC38
:1042E0002046FFF7F5FB049805B0F0BD502080F3A1
:1042F0001188BFF34F8FBFF36F8FFEE7502080F31D
:104300001188BFF34F8FBFF36F8FFEE72DE9F041A8
:104310002F4C0026206B28B1A069401CA0613046BC
:10432000BDE8F081E5686D1CE56013D1606B006845
:1043300038B1502080F31188BFF34F8FBFF36F8FD8
:10434000FEE7606BA16B6163A063206A401C206282
:10435000FFF708FDA06ADFF87C80854209D3606B17
:104360000068A0B1606BC068C7687868854211D2E8
:10437000A0622068C06A00EB800158F82100012883
:1043800000D90126E0690028C9D00126C7E74FF00F
:10439000FF30EDE7381DFFF78DFDB86A18B107F162
:1043A0001800FFF787FDF96A012022698840104351
:1043B000206101EB810108EB8100391DFFF7BEFD93
:1043C000F86A2168C96A8842C9D30126C7E7000094
:1043D0001C000020E00B00202DE9F0472C4D0024AC
:1043E0002746286B38B1FFF7B5FD286B401E2863C0
:1043F000286B40B146E0502080F31188BFF34F8F07
:10440000BFF36F8FFEE7A968224E0120D1B3A6F15A
:10441000B40980463068E8B1F068C46804F1180057
:10442000FFF748FD201DFFF745FDE06A2A6908FAFD
:1044300000F11143296100EB800109EB8100211D8E
:10444000FFF77CFDE06A2968C96A8842E2D3C5F8B3
:104450001C80DFE70CB1FFF785FCAC6944B1464630
:10446000FFF754FF00B1EE61641EF9D10020A8618E
:10447000E86938B10849012738070860BFF34F8F52
:10448000BFF36F8FFFF786FD3846BDE8F087000069
:104490001C000020940C002004ED00E04FF0407060
:1044A000E1EE100A7047000010450008DD2B0008FF
:1044B000000000000000000080000000000000007C
:1044C000000000000045000851070008000000003F
:1044D00000000000000400000000000000000000D8
:1044E0000006101600061016000000000000000074
:1044F000010203040607080900000000010203048A
:10450000436F6E74726F6C5F5461736B5F54000025
:1045100064656661756C745461736B003C4500089A
:1045200000000020C0070000C401000894450008F6
:10453000C0070020D847000020020008C1320182D5
:1045400010036124F41AAA010144730402690801EA
:10455000FF01E813C934024C0873050202FF010190
:10456000EF13C934024C085B01020802FF0301EF9C
:1045700013C934023A0833D841923F3C80BB45040A
:1045800024401C468E70419A99191C291429040450
:0445900000A00C4635
:040000050800018965
:00000001FF
