:020000040800F2
:1000000088500020E90200085B280008B526000897
:1000100059280008870500081B2E00080000000072
:10002000000000000000000000000000290200089D
:10003000B3090008000000008502000865280008D8
:100040000303000803030008030300080303000878
:100050000303000803030008030300080303000868
:100060000303000803030008030300081106000847
:100070001D0600082906000835060008410600088C
:100080004D060008030300080303000803030008EB
:10009000B105000803030008030300080303000878
:1000A0000303000803030008030300080303000818
:1000B0003D290008030300080303000803030008A8
:1000C00003030008030300080303000803030008F8
:1000D00003030008952C0008DD2C0008512D0008B2
:1000E00003030008030300080303000803030008D8
:1000F000030300080303000803030008590600086F
:1001000003030008030300080303000803030008B7
:10011000392A0008512A00080303000803030008D5
:100120000303000803030008650600080303000832
:100130000303000803030008030300080303000887
:10014000E90500080303000803030008030300088F
:1001500003030008030300087106000803030008F6
:100160000303000803030008030300080303000857
:100170000303000803030008030300080000000055
:10018000030300080303000800F002F800F03CF845
:100190000AA090E8000C82448344AAF10107DA45E2
:1001A00001D100F031F8AFF2090EBAE80F0013F0F8
:1001B000010F18BFFB1A43F001031847903D0000E0
:1001C000B03D0000103A24BF78C878C1FAD8520771
:1001D00024BF30C830C144BF04680C6070470000C1
:1001E0000023002400250026103A28BF78C1FBD840
:1001F000520728BF30C148BF0B6070471FB503F0DE
:100200003FFE1FBD10B510BD00F088F91146FFF785
:10021000F5FF02F045FE00F0A6F903B4FFF7F2FF88
:1002200003BC00F0A9F900002C4B19680868B0E87D
:10023000F04F80F30988BFF36F8F4FF0000080F319
:10024000118870470000000008480068006880F3CB
:1002500008884FF0000080F3148862B661B6BFF3DF
:100260004F8FBFF36F8F00DF00BF00BF08ED00E0CE
:10027000DFF80C00016841F470010160704700BFB5
:1002800088ED00E0EFF30980BFF36F8F134B1A681E
:100290001EF0100F08BF20ED108A20E9F04F10600B
:1002A00009B44FF0500080F31188BFF34F8FBFF3B4
:1002B0006F8F03F01DFC4FF0000080F3118809BC24
:1002C00019680868B0E8F04F1EF0100F08BFB0ECD6
:1002D000108A80F30988BFF36F8F704724000020D5
:1002E000EFF3058070470000094880470948004740
:1002F000FEE7FEE7FEE7FEE7FEE7FEE7FEE7FEE7D6
:10030000FEE7FEE704480549054A064B7047000032
:100310002D29000889010008884A00208850002003
:10032000884C0020884C002053EA020C00F06980C1
:100330002DE9F04B4FF00006002B1FBFB3FA83F5F9
:1003400003FA05F424FA05F65E4012BF1643B2FA2A
:1003500082F502FA05F4C5F120051EBF22FA05FC5C
:1003600044EA0C04203556EA044C4FEA144418BF02
:10037000641C4FF000084FF00009904271EB030C31
:1003800039D3002919BFB1FA81F701FA07F6B0FA9B
:1003900080F700FA07F6C7F120071EBF20FA07FC16
:1003A00046EA0C062037B6FBF4FCA7EB0507103F26
:1003B00007F01F0BCBF120060CFA0BFB2CFA06F60C
:1003C00044BFB3460026202FA4BF5E464FF0000B6B
:1003D0005BEA060C08BF4FF0010B19EB0B09ABFBF6
:1003E000027C48EB0608C01B06FB02CC0BFB03CCCF
:1003F00071EB0C01C1E70B46024641464846BDE899
:10040000F08B13B54FF000004FF00001AFF3008008
:10041000BDE81C40704710B5203AC0F00B80B1E831
:100420001850203AA0E81850B1E81850A0E8185029
:10043000BFF4F5AF5FEA027C24BFB1E81850A0E832
:10044000185044BF18C918C0BDE810405FEA827C4C
:1004500024BF51F8043B40F8043B08BF7047D20763
:1004600028BF31F8023B48BF11F8012B28BF20F804
:10047000023B48BF00F8012B70474FF000020429EF
:10048000C0F0128010F0030C00F01B80CCF1040CC3
:10049000BCF1020F18BF00F8012BA8BF20F8022BF7
:1004A000A1EB0C0100F00DB85FEAC17C24BF00F89D
:1004B000012B00F8012B48BF00F8012B70474FF0CB
:1004C000000200B5134694469646203922BFA0E8A4
:1004D0000C50A0E80C50B1F12001BFF4F7AF0907B0
:1004E00028BFA0E80C5048BF0CC05DF804EB8900A1
:1004F00028BF40F8042B08BF704748BF20F8022BE4
:1005000011F0804F18BF00F8012B704770477047FB
:100510007047000000487047284A00207546FFF7E2
:10052000F9FFAE4605006946534620F007008546B0
:1005300018B020B5FFF7E6FEBDE820404FF00006FA
:100540004FF000074FF000084FF0000B21F00701BB
:10055000AC46ACE8C009ACE8C009ACE8C009ACE8FE
:10056000C0098D46704710B50446AFF300802046A1
:10057000BDE81040FFF751BE01491820ABBEFEE7B1
:10058000260002007047FEE700B58BB0684600F019
:1005900032F86946054800F039FA0221034800F0B4
:1005A00022FA024800F06AFD0BB000BD980000205E
:1005B000014800F026BB00009800002070470000B2
:1005C00000B58BB0684600F016F86946054800F0A3
:1005D0001DFA0221034800F006FA024800F04EFD21
:1005E0000BB000BDC0000020014800F00ABB0000B5
:1005F000C000002070470021016041608160C1603F
:10060000016101224161C0E90612C0E90821704779
:10061000014800F0C1BD000008030020014800F0BF
:10062000BBBD0000E8040020014800F0B5BD00009B
:1006300048020020014800F0AFBD0000480500203E
:10064000014800F0A9BD0000A8020020014800F008
:10065000A3BD000088040020014800F09DBD0000FB
:1006600068030020014800F097BD0000C803002087
:10067000014800F091BD0000280400202DE9F04F52
:1006800085680024099E802D18D0894DC563894D49
:10069000456490F83450012D15D0012580F8345070
:1006A00090F83550012D10D0002180F8341002242C
:1006B000002180F834102046BDE8F08F4FF480719F
:1006C00041650120F8E70220F6E7022580F8355061
:1006D0000025456505682F6847F480272F60056869
:1006E0002B6103685E608368402B03682AD09960A1
:1006F0000168CA60714D704E704FDFF8BC81DFF841
:10070000B891DFF8B8A1DFF8B4B1EA14DFF8A8E1D6
:100710000168183630379302A9F148090AF1600AD6
:100720000BF1180BAEF1300E4FF0006C41452DD996
:10073000A94205D0494503D0514501D0B14205D168
:10074000202220E09A600268D160D3E759451AD090
:10075000714518D0594D7835A94214D0564D3035D1
:10076000A94210D0B9420BD0534A183A914207D04F
:10077000524A9032914203D04F4A4832914201D1BD
:100780001A4600E062464C494C392EE0DFF82C81D5
:1007900008F1A80841452AD9A94205D0494503D006
:1007A000514501D0B14201D120221CE059451AD057
:1007B000714518D0414D7835A94214D03E4D3035A1
:1007C000A94210D0B9420BD03B4A183A914207D007
:1007D0003A4A9032914203D0374A4832914201D18D
:1007E0001A4600E06246344950390A605AE0DFF8A0
:1007F000CC8008F1480841452AD9A94205D049458D
:1008000003D0514501D0B14201D120221CE059450D
:100810001AD0714518D0294D7835A94214D0264DEB
:100820003035A94210D0B9420BD0234A183A914230
:1008300007D0224A9032914203D01F4A4832914257
:1008400001D11A4600E062461C491039CA6029E00D
:10085000A94205D0494503D0514501D0B14201D14B
:1008600020221CE059451AD0714518D0134D783517
:10087000A94214D0104D3035A94210D0B9420BD046
:100880000D4A183A914207D00C4A9032914203D057
:10089000094A4832914201D11A4600E062460749AE
:1008A00010398A6001680A6842F001020A60FFE6B6
:1008B0003D2E0008512E000858640240106002408E
:1008C00001681823CAB2103AB2FBF3F2054B6FF37A
:1008D0000901032A9B5CC36500D9091D816508468F
:1008E00070470000FC3E000810B5014600208B69EF
:1008F0008A6A4FF0C07453B1B3F5005F15D072B17E
:10090000012A0CD0022A0AD0032A09D104E01AB124
:10091000012A06D0022A03D1C96AC90100D50120E3
:1009200010BDC96AA142FAD010BD002AF7D0012A31
:10093000F2D0022AF3D0032AF3D010BD70B590F89C
:1009400034500024012D0CD0012580F8345090F84B
:1009500035600025012E06D080F834500224204650
:1009600070BD022070BD022680F8356045650568BF
:100970002E6826F480262E6005686B608368402B05
:10098000036808D099600168CA600068016841F096
:1009900001010160E3E79A600268D160F5E7016850
:1009A0000A68D20604D5C968C90601D502F0FCBEA2
:1009B00070477047014802F089BE00009000002097
:1009C00010B5FFF7E1FDFFF7FBFD02F069F902F05A
:1009D00091F902F0C9F902F0E5F9BDE8104002F022
:1009E000FFB972B6FEE790F82020012A07D0022A4C
:1009F00005D0416A41F480214162012070470068BE
:100A000042690A43426100207047000010B590F827
:100A10002020012A07D0022A05D0416A41F4802112
:100A20004162012010BD3B48D0F8002242F0010293
:100A3000C0F80022D0F8002222F47C52C0F8002234
:100A4000D0F800224B6A42EA0322C0F800220A7D55
:100A500002F01F0301229A40D0F81C329343C0F8E1
:100A60001C32CB69B3B9D0F80C329343C0F80C32C6
:100A70008C894B6864F31F434C6900EBC404C4F8D1
:100A800040320C890B6864F31F434C6900EBC404CB
:100A9000C4F84432CB69012B16D1D0F80C32134381
:100AA000C0F80C320C884B6864F31F434C6900EBB0
:100AB000C404C4F840320C89CB6864F31F434C690A
:100AC00000EBC404C4F844328B69002BD0F8043224
:100AD0000ED01343C0F804320B69002BD0F8143247
:100AE00008D01343C0F81432096A012904D008E081
:100AF0009343EFE79343F5E7D0F81C121143C0F896
:100B00001C12D0F8001221F00101C0F800120020E0
:100B100010BD000000640040704730B590F82040E0
:100B2000012C05D0022C03D0416A41F480215DE004
:100B30000468002955D02469A40754D04FF4D87410
:100B4000056804EB01142D5915F00405956005683E
:100B50002D594ED0ED08556005682C5904F002045B
:100B6000D4604FF4DA74056804EB01142D5905F0D4
:100B70000F05156105682D59C5F3072595610568B1
:100B80002C59240C54614FF4DC72046802EB0112FE
:100B9000A4581C700468A458240A5C700468A45803
:100BA000240C9C700468A258120EDA704FF4DE72A6
:100BB000046802EB0112A4581C710468A458240AAA
:100BC0005C710468A458240C9C710468A258120E2D
:100BD000DA71006881B1016941F0200101610020F2
:100BE00030BDE468A8E7416A41F400114162012088
:100BF00030BD6D0D1560AFE7C16841F02001C160E7
:100C0000EDE72DE9F05F0546006800244669D0F85D
:100C100004908768D0F80CB0D0F810A0D0F81880F5
:100C2000F10748D0F90714D001218160B80703D536
:100C3000284600F050FA0CE0780702D54FF4006423
:100C400007E0380702D54FF4805402E0284600F050
:100C500041FAF80516D529684FF480708860B80508
:100C600003D5284600F039FA0CE0780502D544F4A3
:100C7000005407E0380502D544F4804402E02846D9
:100C800000F02AFAF80316D529684FF480308860FE
:100C9000B80303D5284600F022FA0CE0780302D509
:100CA00044F4004407E0380302D544F4803402E001
:100CB000284600F013FA300707D55FEACB6004D569
:100CC0002968102044F40074C86070074FF00807CA
:100CD00007D55FEA0B7004D52868C760284600F086
:100CE00099F9B00706D52868C068800702D0284661
:100CF00000F092F9700607D55FEACA6004D529684A
:100D0000102044F480640861B00607D55FEA0A70D9
:100D100004D528680761284600F0ACF9F00606D52E
:100D200028680069800702D0284600F0A4F9B003C3
:100D300008D55FEAC96005D52968102048602846B3
:100D400000F09AF9F00307D55FEA097004D5286826
:100D50004760284600F0C4F9300446D55FEA497080
:100D600040D5F00504D55FEAC87001D044F0010415
:100D7000B00504D55FEA887001D544F0020470051F
:100D800004D55FEA487001D544F00404300529D544
:100D900018F0700F26D008F07000402815D006DC3F
:100DA000102809D020280AD0302816D10AE050286F
:100DB0000ED0602811D10EE044F008040DE044F09C
:100DC00010040AE044F0200407E044F0400404E08A
:100DD00044F0800401E044F480742868816921F0C3
:100DE00070018161296804204860002C05D0686A80
:100DF000204368622846FFF78FFEBDE8F09F70B57C
:100E0000040003D094F8200010B104E0012070BD6C
:100E1000204600F081F82068016841F0010101607E
:100E200000F0ECFB0546052604E000F0E7FB401B64
:100E30000A2811D820684068C007F6D020680168E9
:100E400021F00201016000F0D9FB05460BE000F043
:100E5000D5FB401B0A2806D9606A40F40030606266
:100E600084F82060D2E7206840688007EFD4207EB5
:100E70000128206801683DD021F080010160607E7A
:100E800001282068016838D021F040010160A07E6F
:100E900001282068016833D021F020010160E07E44
:100EA0000128206801682ED041F010010160207FE8
:100EB00001282068016829D021F008010160607FC5
:100EC00001282068016824D021F004010160D4E9E0
:100ED00002010843D4E90412114308436168491E22
:100EE00008432168C86100206062012084F8200066
:100EF000002070BD41F08001C0E741F04001C5E72E
:100F000041F02001CAE721F01001CFE741F00801CC
:100F1000D4E741F00401D9E7F0B587B004461421C5
:100F20006846FFF7CCFA364B3648DFF8D0E0196850
:100F3000D4F800C0334A03250226092710300024C4
:100F4000491CF44522D11960012907D1016841F0FB
:100F500000710160006800F000700590106840F0BA
:100F6000080010601068CDE9005600F00800CDE9D7
:100F7000047069462448CDE9024500F047FA002292
:100F80000521142000F0F4FB142032E0DFF87CE0AF
:100F9000F44530D1D0F800C04CF0806CC0F800C0EF
:100FA000D0F800C001290CF0806CCDF814C0196095
:100FB00007D1016841F000710160006800F0007025
:100FC0000590106840F002001060106802AB00F05D
:100FD000020005906020CDE9000683E8B000694674
:100FE0000B4800F013FA00220521402000F0C0FB5E
:100FF000402000F0AFFB07B0F0BD000000640040EF
:101000001000002030380240000C02400068004010
:101010000004024070470000134910B588420ED109
:10102000124B00211C46A3F11C02FFF776FD0F486E
:1010300021461C380068BDE81040FFF7BFBA0C49D4
:1010400088420FD1094B002124331C46A3F11C0216
:10105000FFF763FD0548214608300068BDE81040F1
:10106000FFF7C8BA10BD00009800002038490020E2
:10107000C0000020704770477047000070B50446FC
:1010800090F82000012804D0606A40F400206062DB
:1010900018E0022084F820002068016821F0010196
:1010A000016000F0ABFA05460EE000BF00F0A6FAC2
:1010B000401B0A2808D9606A40F4003060620520AD
:1010C00084F82000012070BD20684068C007EDD181
:1010D000606270BD704770477047704770477047D7
:1010E00070472DE9F0410446876D00F087FA064607
:1010F00094F835000025022806D08020606584F829
:1011000034500120BDE8F0812068016821F016010B
:1011100001602068416921F080014161206C08B9BB
:10112000A06C20B12068016821F0080101602068EE
:10113000016821F0010101600CE000F05FFA801B02
:10114000052807D920206065032084F8350084F83D
:101150003450D7E720680068C007EED194F85C10DF
:101160003F208840B860012084F8350084F834506E
:101170000020C7E790F83510022903D0802141658F
:1011800001207047052180F835100068016821F0C2
:1011900001010160002070472DE9F84304464FF03B
:1011A0000009CDF8009063484FF41651A56D006812
:1011B000B0FBF1F72E6894F85C10082000FA01F1FA
:1011C00031420FD021680A6852070BD50A6822F015
:1011D00004020A6094F85C108840A860606D40F0DA
:1011E0000100606594F85C104FF0010808FA01F006
:1011F000304208D021684969090604D5A860606DAD
:1012000040F00200606594F85C1004208840304291
:1012100008D021680968890704D5A860606D40F08E
:101220000400606594F85C1010208840304218D0AB
:1012300021680968090714D5A86020680168490376
:1012400004D50068000308D5A16C07E00168C90552
:1012500003D4016821F008010160216C09B1204626
:10126000884794F85C1020208840304231D02168B3
:101270000968C9062DD5A86094F8350005282068AE
:10128000016806D0490347D5006800031DD4616C8E
:101290001CE021F0160101602068416921F0800105
:1012A0004161206C08B9A06C20B12068016821F070
:1012B0000801016094F85C103F208840A86084F821
:1012C000358084F83490216D1FE0E16B09B1204630
:1012D0008847606D00282BD0606DC00714D00520B2
:1012E00084F835002068016821F001010160009850
:1012F000401C0090B84203D820680068C007F6D1AF
:1013000084F8358084F83490E16C002910D001B065
:101310002046BDE8F04308470168C905D5D40168F7
:1013200021F01001016084F8358084F83490CCE716
:10133000BDE8F883200000202DE9F041044600F0CC
:101340005DF906465CB1022084F83500002584F87A
:1013500034502068016821F0010101600DE0012096
:10136000BDE8F08100F04AF9801B052805D920204E
:101370006065032084F83500F2E720680068C00744
:10138000F0D12268116820480140D4E901031843D4
:10139000D4E903363343184363691843A3691843F8
:1013A000E3691843236A18430843616A042903D197
:1013B000D4E90B1319430843106020684069666A3A
:1013C00020F0070130460E43012704280CD1A06A03
:1013D0000643E06A40B12046FFF786FA20B140207C
:1013E000606584F83570BAE7206846612046FFF7EB
:1013F00067FA94F85C203F2191408160656584F82C
:1014000035700020ACE700003F8010F02DE9F84F68
:10141000DFF8BCA1002201250AF1040B03264FF0DE
:101420000F090BF1040E00BF0B6805FA02F423400C
:10143000A34270D10F7907F00307012F01D0022FCB
:1014400016D187684FEA420806FA08FC27EA0C071B
:10145000D1F80CC00CFA08FC4CEA070CC0F808C024
:101460004768A7430C79C4F3001494403C4344609C
:101470000C79E443A4070AD0C4684FEA420C06FA88
:101480000CF7BC438F6807FA0CF72743C7600C7949
:1014900004F00304022C12D1D40800EB840CDCF815
:1014A00020405707FF0E09FA07F824EA0804D1F88C
:1014B000108008FA07F848EA0408CCF8208004688D
:1014C0004FEA420C06FA0CF7BC430F7907F003070A
:1014D00007FA0CF7274307604C6814F4403F70D0BC
:1014E0003C4C276847F480472760246822F00307B4
:1014F00004F480440094384C07EB040CDCF80848F2
:1015000097074FEA177809FA08F7BC43334FB842F8
:1015100002D1002724E054E0314FB84201D1012725
:101520001EE0304FB84201D1022719E02E4FB842D9
:1015300001D1032714E02D4FB84201D104270FE059
:101540002B4FB84201D105270AE02A4FB84201D1FA
:10155000062705E0284FB84201D1072700E00827F9
:1015600007FA08F72743CCF80878DAF8004057461E
:10157000D1F804C09C435FEACC3C00D51C433C60DE
:10158000DBF800405F46D1F804C09C435FEA8C3C26
:1015900000D51C433C60DEF800407746D1F804C01B
:1015A0009C435FEACC2C00D51C433C60084F0C37B1
:1015B0003C68D1F804C09C435FEA8C2C00D51C43E6
:1015C0003C60521C102AFFF42FAFBDE8F88F0000DA
:1015D000003C01404438024000300140000002401D
:1015E0000004024000080240000C024000100240CB
:1015F0000014024000180240001C024001488068AC
:10160000704700001400002070B5040011D021685C
:101610004CF6CC400860216845F255500860D4E98A
:10162000000141602168A0688860FFF7E7FF054678
:101630000DE0012070BD00BFFFF7E0FF401B312827
:1016400005D92068C068800701D0032070BD2068DC
:10165000C0688007F0D121684AF6AA2008600020FF
:1016600070BD0000024881680278114481607047B3
:10167000140000200B4810B5016841F400710160AE
:10168000016841F480610160016841F4807101608A
:10169000032000F08DF80F2000F006F800F03EF86F
:1016A000002010BD003C024010B5014688B0002269
:1016B0001C2000F05DF81C2000F04CF814480024B9
:1016C000016841F001010160006805A900F0010016
:1016D0000690684600F018F900F036F90D49400010
:1016E000B0FBF1F10C484FF08042491E026040F21D
:1016F000E732C0E90324C0E9011400F02FFB10B168
:10170000012008B010BD044800F056FBF9E70000C6
:101710004038024040420F00FC0700200C4882B0D5
:10172000016841F480410160006800F4804000904D
:101730000748001F016841F08051016000680022E5
:1017400000F0805000900F21901E02B000F010B801
:1017500044380240002809DB00F01F0201219140BB
:101760004009800000F1E020C0F80011704700003F
:10177000F0B40E4B1B680C46C3F30223C3F10705FC
:10178000042D00D90425191D072901D2002300E0EA
:10179000DB1E012606FA05F1491E214099409E40B4
:1017A000761E16403143F0BC01F038BB0CED00E072
:1017B000064900F0070208684FF6FF03184040EAA8
:1017C0000220034A10430860704700000CED00E05F
:1017D0000000FA052DE9F0470E46050065D0DFF858
:1017E0001481D8F80000F7B200F00700B04207D229
:1017F00088F80070D8F8000000F00700B04254D11B
:1018000028683D4C810712D5400703D5206840F475
:10181000E05020602878000703D5206840F460403D
:1018200020602068A96820F0F00008432060287834
:10183000C0072DD0304968680839012812D0022825
:1018400013D0032811D00968890700292DDA2168EF
:1018500021F0030101432160FFF7D0FE814641F2F0
:10186000883A0EE009688903EFE709688901ECE727
:10187000FFF7C4FEA0EB0901514502D90320BDE8E2
:10188000F0872068696800F00C00B0EB810FEFD1A1
:10189000D8F80010404601F00701B14207D907709F
:1018A000006800F00700B04201D00120E7E7287887
:1018B000400705D52068E96820F4E050084320601F
:1018C0002878000706D52068296920F4604040EA9E
:1018D000C100206000F058F82168084AC1F30311E4
:1018E000515CC8400649086006480068FFF7DCFE06
:1018F0000020C4E7003C024008380240043F0008D2
:1019000020000020180000200F2202600C4A1368FB
:1019100003F003034360136803F0F003836013686C
:1019200003F4E053C36012684FF4E05303EAD202B9
:1019300002610448006800F007000860704700007A
:1019400008380240003C0240044805490068096824
:10195000044AC1F38221515CC84070472000002036
:1019600008380240143F0008044805490068096827
:10197000044AC1F34231515CC84070472000002046
:1019800008380240143F0008154810B5006810F0F0
:101990000C02144813D01449042A0FD0082A0ED17F
:1019A0000F4C241F2268236802F03F025B0207D518
:1019B0002068C0F38810A0FB010106E0084610BDB6
:1019C0002168C1F38811A1FB00010023FEF7ACFCE4
:1019D0002168C1F30141491C4900B0FBF1F010BD81
:1019E000083802400024F40040787D012DE9F84FCA
:1019F00004006ED02078DFF84C93C007A9F10405ED
:101A00004AD009F104000168C1F38101012908D01D
:101A10000068C0F3810002280AD1D9F80000400212
:101A200006D52868800337D560680028E1D033E008
:101A30006068B0F5803F10D0B0F5A02F286810D0B6
:101A400020F480302860286820F4802028606068B6
:101A5000A8B1FFF7D3FD06460DE0286840F48030BA
:101A6000F4E740F480202860F7E700BFFFF7C6FDE9
:101A7000801B642873D828688003F7D50CE0FFF733
:101A8000BDFD064605E000BFFFF7B8FD801B6428DA
:101A9000F0D828688003F7D42078DFF8AC8280077C
:101AA0004FF0000A3ED5A748001D016811F00C0F49
:101AB00008D00068C0F3810002280BD1D9F80000DB
:101AC000400207D42868800716D5E068012800D1B5
:101AD00012E033E1E068B8B10120C8F80000FFF778
:101AE0008DFD064605E000BFFFF788FD801B02283C
:101AF000C0D828688007F7D52868216920F0F80049
:101B000040EAC10028600DE0C8F800A0FFF776FDAC
:101B1000064604E0FFF772FD801B02281FD82868E4
:101B20008007F7D42078000722D5864F874861695F
:101B3000703771B101210160FFF760FD064604E0D6
:101B4000FFF75CFD801B022809D838688007F7D5AD
:101B50000EE0C0F800A0FFF751FD064605E082E068
:101B6000FFF74CFD801B02287DD838688007F7D42A
:101B70002078400768D5DFF8CCB100270BF13C0B8B
:101B8000DBF80000C0000BD4DBF8001041F08051FE
:101B9000CBF80010DBF80000012700F08050009027
:101BA0006B4E3068C00510D4306840F480703060EF
:101BB000FFF724FD009005E0FFF720FD0099401A93
:101BC000022850D83068C005F6D55E4EA0686C3645
:101BD00001280FD00528306810D020F001003060B7
:101BE000306820F004003060A068B8B1FFF706FD4F
:101BF00000900FE0306840F00100F4E740F004008E
:101C00003060F7E7FFF7FAFC0099411A41F288309B
:101C1000814266D830688007F4D50EE0FFF7EEFC0D
:101C2000009007E0FFF7EAFC0099411A41F2883082
:101C3000814256D830688007F4D42FB1DBF8001009
:101C400021F08051CBF80010A069C8B33D49091DAF
:101C50000968C1F3810102294AD00228504607D001
:101C6000C8F8600000E03CE0FFF7C8FC04463BE039
:101C70004746C8F86000FFF7C1FC064605E000BF14
:101C8000FFF7BCFC801B02282BD828688001F7D402
:101C9000D4E907010843A16A2E4A490802EB014131
:101CA000626A41EA8211084394F82C1040EA01610B
:101CB000C9F8001001203866FFF7A0FC044606E0D2
:101CC0003EE000BFFFF79AFC001B022809D82868F5
:101CD0008001F7D534E000BFFFF790FC001B02281D
:101CE00002D90320BDE8F88F28688001F4D427E0EA
:101CF0000128F7D0D9F80000E26900F48001914290
:101D00001CD1226A00F03F01914217D147F6C07101
:101D1000626A0140B1EB821F10D1A26A4FF0FF331B
:101D200000F4403103EB5202B1EB024F06D194F8BC
:101D30002C1000F07060B0EB016F01D00120D1E7F2
:101D40000020CFE70438024000004742800E47429F
:101D5000007000400000FFFF7047704710B504009E
:101D600003D094F83D0010B107E0012010BD002021
:101D700084F83C00204600F01EF8022084F83D0064
:101D8000211D206800F0E8FD012084F8460084F859
:101D90003E0084F83F0084F8400084F8410084F855
:101DA000420084F8430084F8440084F8450084F835
:101DB0003D00002010BD704790F83D10012901D072
:101DC00001207047022180F83D100168CA6842F086
:101DD0000102CA6000681149884214D0B0F1804FF6
:101DE00011D00F4988420ED00E4988420BD00E49BF
:101DF000884208D00D49884205D00D49884202D05A
:101E00000C49884204D1816801F00701062903D0FA
:101E1000016841F0010101600020704700000140AD
:101E20000004004000080040000C00400004014095
:101E30000040014000180040704770B5044600683B
:101E400001694FF00005C943890715D4C168C9432A
:101E5000890711D4E91E016101202077206880697B
:101E60008007204602D0FFF7E7FF04E000F098F873
:101E7000204600F096F8257720680169C943490794
:101E800017D4C168C943490713D46FF00401016135
:101E9000022020772068806910F4407F204602D01D
:101EA000FFF7CAFF04E000F07BF8204600F079F865
:101EB000257720680169C943090716D4C168C94359
:101EC000090712D46FF0080101610420207720680F
:101ED000C0698007204602D0FFF7AEFF04E000F0A3
:101EE0005FF8204600F05DF8257720680169C94356
:101EF000C90617D4C168C943C90613D46FF01001CD
:101F00000161082020772068C06910F4407F2046D6
:101F100002D0FFF791FF04E000F042F8204600F005
:101F200040F8257720680169C943C90708D1C1680D
:101F3000C943C90704D1891E0161204600F032F867
:101F400020680169C943090609D4C168C943090663
:101F500005D46FF0800101612046FFF7FDFE206887
:101F60000169C943490609D4C168C943490605D472
:101F70006FF040010161204600F01BF82068016904
:101F8000C94389060BD4C168C943890607D46FF0D9
:101F9000200101612046BDE87040FFF7DEBE70BD44
:101FA000704770470068B0F1804F01D1FFF75ABB0E
:101FB0007047704770477047F8B501680446086875
:101FC000CA684B6910F00F0F4FF000055AD003F0AC
:101FD000010602F49077374365D0C10705D0D105DB
:101FE00003D5216C41F001012164410705D5D907D2
:101FF00003D0216C41F002012164810705D5D90786
:1020000003D0216C41F004012164010707D502F0DF
:102010002001314303D0216C41F008012164216C7F
:1020200000293BD0800604D5900602D5204600F05A
:102030004AFD20684069216CC0F3801001F008015E
:10204000014320462BD000F017FD20684069400670
:1020500021D52068143050E8001F21F0400140E8ED
:102060000012002AF5D1A06BA8B16C490165A06BE4
:10207000FFF780F8002811D0A06B016D01B0BDE81A
:10208000F040084783060ED593060CD52046BDE8E0
:10209000F84000F018BD2046FFF78DFFF8BDFFF7B0
:1020A0008AFF2564F8BD266B2023012E79D1C60650
:1020B00077D5D60675D50868486800904869400607
:1020C00040D5A16B086840680004000CEAD0A28DDE
:1020D0008242E7D9E085C869B0F5807F2DD02068BD
:1020E0000C3050E8001F21F4807140E80012002AF3
:1020F000F5D12068143050E8001F21F0010140E8BC
:102100000012002AF5D12068143050E8001F21F099
:10211000400140E80012002AF5D184F83E302563E2
:1021200020680C3050E8001F21F0100140E8001238
:10213000002AF5D1A06BFEF7D4FFA08DE18D401AE7
:1021400081B229E0A08DE18D401A81B2E08D002896
:10215000A8D00029A6D020680C3050E8002F22F427
:10216000907240E80026002EF5D12068143050E827
:10217000002F22F0010240E80026002EF5D184F85D
:102180003E30256320680C3050E8002F22F010020A
:1021900040E80023002BF5D12046FFF70BFFF8BDE8
:1021A000FFE705062BD5150629D594F83D00212813
:1021B000F5D1A068B0F5805F01D12069B0B1206A87
:1021C000411C2162216800784860E08C401E0004B8
:1021D000000CE084E3D12068C16821F08001C16077
:1021E0002068C16841F04001C160D8E7206A0088DA
:1021F000C0F308004860206A801C2062E5E74006C2
:10220000CDD55006CBD5CA68204622F04002CA6020
:1022100084F83D3000F04DFAC1E70000692A00085B
:1022200070B5040004D094F83D00002510B106E01C
:10223000012070BD84F83C50204600F023F8242093
:1022400084F83D002068C16821F40051C160204637
:1022500000F09AFC2068016921F490410161206836
:10226000416921F02A0141612068C16841F40051AF
:10227000C1602564202084F83D0084F83E000020E1
:1022800070BD00002DE9F04F87B004461421684668
:10229000FEF715F9F248DFF8C48310380222D4F8AB
:1022A00000C0EF4B0321DFF8BCE3002596060715BD
:1022B0004FF480794FF0400AC44556D1D3F800C09E
:1022C000A8464CF4002CC3F800C01B6803F400239C
:1022D0000593036843F001030360006800F0010008
:1022E00005908DE826000820CDE903106946704668
:1022F000FFF78CF8DFF874B3DB495846CBF80010D1
:10230000C0E90165C0E90357CBF81450C0E906598C
:10231000CBF82050CBF82450FFF70EF808B1FEF7A9
:1023200060FBD148D24DC4F838B03030CBF83840DB
:1023300085E84104C5E90387C5F81480C5F818800D
:10234000C5F81C80C5F820802846C5F82480FEF713
:10235000F3FF08B1FEF745FB656300220521342039
:10236000AC63FFF705FA342071E0DFF80883C44559
:1023700073D1D3F800C000254CF4801CC3F800C012
:102380001B6803F480130593036843F004030360A0
:10239000036803F004030593036843F00803036034
:1023A00000684FF0080800F0080005904FF48050D6
:1023B000CDE900020320CDE9025093466946CDF8ED
:1023C0001080AD48FFF722F80420CDE9000B032070
:1023D000CDE902506946CDF81080A848FFF716F8FD
:1023E000A149DFF89C8230394046C8F80010C0E9A6
:1023F0000165C0E90357C8F81450C0E90659C8F888
:102400002050C8F82450FEF797FF08B1FEF7E9FA0C
:1024100095489C4DC4F838807830C8F8384085E835
:1024200041040020C5E903076861A861E8612862EA
:1024300068622846FEF780FF08B1FEF7D2FA6563AE
:10244000002205213520AC63FFF792F93520FFF714
:1024500081F907B0BDE8F08FFFE7DFF82C824FF07D
:10246000070BC4455BD17E4BA8461B1DD3F800C0AB
:102470004CF0100CC3F800C01B6803F01003059368
:10248000036843F0010303600068CDE9025100F0E6
:10249000010005904FF4C060CDE90002CDF810B006
:1024A00069467046FEF7B2FFDFF8E4B17749584657
:1024B000CBF80010C0E90165C0E90357CBF8145010
:1024C000C0E90659CBF82050CBF82450FEF734FF72
:1024D00008B1FEF786FA6D486E4DC4F838B0783012
:1024E000CBF8384085E84104C5E90387C5F8148076
:1024F000C5F81880C5F81C80C5F820802846C5F8A6
:102500002480FEF719FF08B1FEF76BFA656300221D
:1025100005212520AC63FFF72BF9252097E7DFF88D
:102520007881C4453FD1D3F800C04CF4003CC3F8D7
:1025300000C01B6803F400330593036843F00103F4
:1025400003600068CDE9025100F0010005900C2005
:10255000CDE90002CDF810B069467046FEF756FF8F
:102560004149DFF8388148314046C8F80010C0E9D9
:102570000165C0E90357C8F81450C0E90659C8F806
:102580002050C8F82450FEF7D7FE08B1FEF729FA0C
:10259000C4F83880002205212620C8F83840FFF70B
:1025A000E7F8262053E7DFF8F880C4457FF451AF01
:1025B000D3F800C04CF4802CC3F800C01B6803F4AF
:1025C00080230593036843F0020303600068CDE9AC
:1025D000025100F0020005904FF44060CDE9000286
:1025E000CDF810B069462F48FEF710FF1E49DFF8FE
:1025F000B8B018395846CBF80010C0E90165C0E9F9
:102600000357CBF81450C0E906594FF40039CBE911
:102610000895B846FEF790FE08B1FEF7E2F9234FA1
:10262000C4F838B0CBF83840C7E903587D61BD61C4
:10263000C7E907590C487D62183087E841043846DD
:10264000FEF77AFE08B1FEF7CCF967630022052198
:102650002720BC63FFF78CF82720F8E6004C0040E9
:102660004038024000000240406002404802002022
:10267000A80200200050004000080240000C024068
:10268000080300206803002000100140406402405D
:10269000C8030020280400200044004088040020D3
:1026A0000048004000040240E804002048050020E3
:1026B00070477047FEE700000F4810B50D490160F4
:1026C0000321416000214FF400228160C0E9031220
:1026D0004FF4401242610176012242768276C17641
:1026E00001774277FEF78BFB002801D072B6FEE738
:1026F00010BD000000640040980000200F4810B595
:102700000D4901600321416000214FF400228160E6
:10271000C0E903124FF44012426101760122427671
:102720008276C27601774277FEF769FB002801D0F6
:1027300072B6FEE710BD000000680040C000002037
:102740002D4808B5016841F400110160016801F4E9
:1027500000110091016841F48001016000680022CD
:1027600000F48000009005210B20FFF701F80B20FA
:10277000FEF7F0FF002205210C20FEF7F9FF0C20E8
:10278000FEF7E8FF002205210D20FEF7F1FF0D20E6
:10279000FEF7E0FF002205210E20FEF7E9FF0E20E4
:1027A000FEF7D8FF002205210F20FEF7E1FF0F20E2
:1027B000FEF7D0FF002205211020FEF7D9FF1020E0
:1027C000FEF7C8FF002205212F20FEF7D1FF2F20A2
:1027D000FEF7C0FF002205213A20FEF7C9FF3A208C
:1027E000FEF7B8FF002205214620FEF7C1FFBDE835
:1027F00008404620FEF7AEBF30380240154808B505
:10280000016841F080010160016801F080010091E0
:10281000016841F001010160016801F001010091CE
:10282000016841F002010160016801F002010091BC
:10283000016841F004010160016801F004010091A8
:10284000016841F008010160006800F00800009094
:1028500008BD000030380240FEE7FEE7012000F02E
:10286000DDFBFBE710B5502080F31188BFF34F8FDD
:10287000BFF36F8F01F03CFA18B104494FF080505C
:102880000860002080F3118810BD000004ED00E016
:1028900030B593B030216846FDF711FE14210CA825
:1028A000FDF70DFE1F480025016841F080510160D1
:1028B000006800F0805011901B48016841F480418D
:1028C00001600068022400F480401190092000900B
:1028D0004FF4803001900120CDE905048005079078
:1028E000192008904FF4A870CDE9090404200B903A
:1028F0006846FFF77BF808B172B6FEE70CA90F2017
:1029000081E831004FF4A0500F904FF480501090A8
:1029100005210CA8FEF75EFF002801D072B6FEE785
:1029200013B030BD403802400070004002480168DA
:1029300041F470010160704788ED00E010B5044873
:10294000FEF72DF8BDE810400248FFF776BA000008
:102950007C010020FC070020F0B50268254C264DC4
:10296000264E274F274B4FF0804CA04209D06045A0
:1029700007D0A84205D0B04203D0B84201D0984257
:1029800004D122F0700E4A6842EA0E02A0421BD027
:10299000604519D0A84217D0B04215D0B84213D024
:1029A000984211D0184DA8420ED0184DA8420BD015
:1029B000174DA84208D0174DA84205D0164DA84281
:1029C00002D0164DA84203D122F44075CA682A43AA
:1029D0004D6922F080022A4302608A68C2620A6856
:1029E0008262A04201D0984201D1096901630121AC
:1029F0004161F0BD000001400004004000080040BB
:102A0000000C00400004014000400140004401402F
:102A10000048014000180040001C00400020004019
:102A2000012000F0FBFAFBE7012000F0F7FAFBE7DA
:102A3000012000F0F3FAFBE710B50448FDF7AFFF03
:102A4000BDE810400148FFF7B7BA0000F4000020CD
:102A500010B50448FDF7A3FFBDE810400148FFF79B
:102A6000ABBA00003801002010B5806B0021C18591
:102A7000C184FFF7A0FA10BD01680C3151E8002FA6
:102A800022F4907241E80023002BF5D10168143143
:102A900051E8002F22F0010241E80023002BF5D17C
:102AA000016B012909D101680C3151E8002F22F096
:102AB000100241E80023002BF5D1202180F83E10C0
:102AC00000210163704708B590F83E10222901D01B
:102AD000022008BD82684FF480539A4201D10169F7
:102AE00021B1816A9A421BD04AB10AE00268816A28
:102AF0005268C2F308020A80816A891C08E00269F0
:102B000072B10268526802F07F020A70816A491C41
:102B10008162C18D491E0904090CC18503D019E0E9
:102B200002685268F1E70168CA6822F02002CA60B0
:102B30000168CA6822F48072CA6001684A6922F09A
:102B400001024A61202180F83E10016B012903D067
:102B5000FFF7AEFD002008BD0021016301680C31C4
:102B600051E8002F22F0100241E80023002BF5D19C
:102B700001680A68D20602D50A6849680091818D09
:102B8000FFF718FAE6E7000070B50446006801692F
:102B9000E26821F44051114301612169A068E269B2
:102BA00008436169114308432168CA6849F20C630C
:102BB0009A430243CA6020684169A26921F44071C6
:102BC0001143416131492068884202D0304988422E
:102BD00002D1FEF7C9FE01E0FEF7B6FEE26900236E
:102BE000192164253226B2F5004F626828D0A0FB77
:102BF0000101930F9200FDF797FB0146B0FBF5F042
:102C00006FF01802504301EB800006EB0010B0FBA0
:102C1000F5F000F0F002B1FBF5F002EB0012B1FBB1
:102C2000F5F06FF01803584301EB800006EB00103D
:102C3000B0FBF5F000F00F0021681044886070BD13
:102C4000A0FB010192185B41FDF76EFB0146B0FB52
:102C5000F5F00201B1FBF5F06FF01803584301EBFA
:102C6000800006EBC000B0FBF5F000F0F80002EBCE
:102C70004002B1FBF5F0584301EB800006EBC000C9
:102C8000B0FBF5F000F00700D6E7000000100140AF
:102C9000001401400148FFF78FB900007C010020BB
:102CA0000B4882B001680A684A680092CA6842F01C
:102CB0001002CA6001684A6942F040024A61016834
:102CC000806B4FF4AF73034A091D02B0FDF736BEA7
:102CD0007C010020344500207047000010B50448F6
:102CE000FDF75DFEBDE810400148FFF765B9000043
:102CF000C00100200C4808B501680A684A680092C3
:102D0000CA6842F01002CA6001684A6942F0400293
:102D10004A61122100910168044B806BA3F11802F3
:102D2000091DFDF7ABFC08BDC0010020AA4600202C
:102D300010B5064C0146206800F031FC206800F018
:102D4000CDFB2046BDE8104000F0CEBC9000002036
:102D500010B50448FDF723FEBDE810400148FFF719
:102D60002BB90000040200200B4882B001680A68F9
:102D70004A680092CA6842F01002CA6001684A6953
:102D800042F040024A610168806BC823034A091D72
:102D900002B0FDF7D3BD000004020020C2460020AF
:102DA000704700000B4882B001680A684A680092C8
:102DB000CA6842F01002CA6001684A6942F04002E3
:102DC0004A610168806BC823034A091D02B0FDF700
:102DD000B5BD0000F40000208A47002070470000C5
:102DE0000B4882B001680A684A680092CA6842F0DB
:102DF0001002CA6001684A6942F040024A610168F3
:102E0000806BC823034A091D02B0FDF797BD00007F
:102E100038010020524800207047FEE70907090EDC
:102E2000002804DB00F1E02080F80014704700F077
:102E30000F0000F1E02080F8141D70470068016861
:102E400041F4002101600148FFF772BF9246002063
:102E50000068016821F4002101600148FFF768BFA4
:102E6000AA4600204FF4FA7120F81E1F4A00C180C4
:102E7000818142820183C183828442850286C18628
:102E80008187A0F84210A0F84810A0F84E10A0F8D2
:102E90005410A0F85A10A0F86010A0F866107047FF
:102EA0009CB0FEF7E7FBFFF7F3FCFFF7A7FCFFF78B
:102EB00047FCFFF701FCFFF721FC4B484949002480
:102EC000C0E9001440F6FF718160FEF79DFB08B178
:102ED00072B6FEE7444845490C304FF4E1360160D4
:102EE000C0E901640C25C460C0E904458461C46183
:102EF000FFF796F908B172B6FEE73B483C495030FF
:102F00000160C0E90164C460C0E904458461C46132
:102F1000FFF786F908B172B6FEE7334835499430B9
:102F20000160C0E90164C460C0E904458461C46112
:102F3000FFF776F908B172B6FEE72B482E49D83074
:102F400001602E49C0E901144FF48061C0E90341DA
:102F5000C0E90554C461FFF763F908B172B6FEE732
:102F6000284827490160C0E90164C460C0E90445FC
:102F70008461C461FFF754F908B172B6FEE7FDF74A
:102F800019FDFDF71DFD1C221F496846FDF743FA98
:102F90000021684600F04EF81C4C1B491C222060A2
:102FA0001C3107A8FDF737FA002107A800F042F806
:102FB000154960601C2238310EA8FDF72CFA00215B
:102FC0000EA800F037F81049A0601C22543115A853
:102FD000FDF721FA002115A800F02CF8E06000F0C0
:102FE00024F8FEE700300040E8000020004C0040DC
:102FF000005000400010014000440040A086010045
:1030000000480040040200208C3E00080000002020
:1030100001460020842900D0C81C704710B500B9B3
:10302000012000F001FD002010BD10B500F022FDD0
:10303000002010BD7FB50D4604464169B0F9080077
:1030400081B1A16971B1FFF7E3FFD4E905128DE801
:103050000700D4E900102B46226900F01EFE039001
:1030600004B070BDFFF7D4FF03A9CDE90001208AA9
:103070002B4682B2D4E9001000F0E2FD012801D015
:103080000020EDE70398EBE72DE9F041184C0F46DF
:103090000546E6682068001D00F0FEFB38B9206890
:1030A00090F82C1001208840216981432161681C1F
:1030B00007D137B12168BDE8F0410E48091D00F085
:1030C0002FBC20683544B5424560216805D2A06B0D
:1030D000BDE8F041091D00F00BBC606B091D00F05C
:1030E00007FCA06A854200D2A562BDE8F08100001D
:1030F00024000020200900202DE9F041054600F0C1
:103100001BFC2E4CA068401CA06020682C4F10B106
:10311000606940B32DE02560A068012829D1002610
:1031200006EB860007EB800000F0D4FB761C072E30
:10313000F6D323488C3000F0CDFB2148A03000F0BE
:10314000C9FB1F48B43000F0C5FB1D48C83000F073
:10315000C1FB1B48DC3000F0BDFB19488C306063BC
:103160001430A06305E02068E96AC06A884200D88C
:103170002560606A401C6062E96A0120226988401B
:103180001043206101EB810007EB8000291D00F056
:10319000C7FB00F0F1FB606900280CD02068E96AE9
:1031A000C06A884207D207494FF080500860BFF3D9
:1031B0004F8FBFF36F8FBDE8F08100002400002027
:1031C0004408002004ED00E010B5044690F85100DA
:1031D00058B101280CD002280FD0502080F311885C
:1031E000BFF34F8FBFF36F8FFEE7206B00F0D8FB6C
:1031F0002046BDE8104000F0D3BB10BD10484FF48E
:103200007051420706D0C01D0D4920F00700411A39
:10321000C1F570510B4A00230144C2E9000308398B
:10322000183A21F0070111604B600B600B1AC0E9DE
:10323000001393604FF000405360506170470000EE
:103240003409002078000020144E154CA6F1C80760
:103250004FF08058DFF84C9012E000BF00F06CFB9C
:10326000F068C568281D00F017FBA068401EA0602C
:103270006068401E606000F07FFB2846FFF7A4FFF7
:1032800060680028EAD138680128F9D9C9F80080B7
:10329000BFF34F8FBFF36F8FF2E700000C090020E0
:1032A0002400002004ED00E02DE9F0479A46DDE916
:1032B000098481466FF00303206B03EB8202104404
:1032C000089E20F00707780707D0502080F3118868
:1032D000BFF34F8FBFF36F8FFEE7002561B1002072
:1032E00023180A5C83F834200A5C12B1401C1028B1
:1032F000F6D384F8435001E084F83450072E00D30D
:103300000626E662C4E91165201D00F0EEFA04F11C
:10331000180000F0EAFA2461C6F107006462A061B7
:10332000E56484F8505052464946384600F0C0F8EB
:103330002060B8F1000F01D0C8F80040BDE8F08768
:1033400030B5114900E011460A688242FBD34B6850
:103350005C18844203D140681844486008464368BA
:103360001C18944209D1084C183C2468A24209D088
:1033700052681A4442600A6812680260814200D0B2
:10338000086030BD0460F9E7780000200648416B12
:10339000096829B1416BC968C96849688162704789
:1033A0004FF0FF31FAE70000240000200848406891
:1033B000401C4FF0500080F3118804D0BFF34F8FB2
:1033C000BFF36F8FFEE7BFF34F8FBFF36F8FFEE743
:1033D000800000202DE9F0410546002700F080FB29
:1033E000324E306808B9FFF709FF706905424ED1C7
:1033F000C5B3083568070ED005F00700C0F1080016
:103400000544680707D0502080F31188BFF34F8F21
:10341000BFF36F8FFEE72DB37068854237D823481E
:10342000183001460C6801E020460C466168A9424C
:1034300002D221680029F7D131688C4227D0076871
:103440002168016060680837411B10290FD9601995
:10345000420708D0502080F31188BFF34F8FBFF38D
:103460006F8FFEE713E041606560FFF769FF6168F9
:103470007068401A7060B268904200D2B0607069A3
:1034800001430020C4E90001F068401CF06000F036
:1034900095FC780707D0502080F31188BFF34F8F39
:1034A000BFF36F8FFEE73846BDE8F0816000002073
:1034B00010B5031F4FF080741C601B1F21F0010129
:1034C0001960191F044B0B6014390A60091F6FF053
:1034D000020244380A6010BDAD330008B0F9001094
:1034E0004FF4A56201F52573934209D9002901DD46
:1034F000012100E0C9174FF4257311FB03F101808E
:10350000B0F9021001F52573934209D9002901DDB4
:10351000012100E0C9174FF4257311FB03F141802D
:10352000B0F9041001F52573934209D9002901DD92
:10353000012100E0C9174FF4257311FB03F18180CD
:10354000B0F9061001F52573934209D9002901DD70
:10355000012100E0C9174FF4257311FB03F1C1806D
:10356000B0F9101001F52573934209D9002901DD46
:10357000012100E0C9174FF4257211FB02F101820D
:10358000704710B504468621FCF777FF0020A07233
:103590006073A0742046BDE81040FFF763BC0A8842
:1035A000C2F30A02A2F5806202804A788B78D208C0
:1035B00042EA4312C2F30A02A2F5806242808A788C
:1035C000CB78920942EA83020B7942EA8322C2F362
:1035D0000A02A2F5806282800A794B79520842EA97
:1035E000C312C2F30A02A2F58062C2804A7992092C
:1035F00042724A79C2F301120273CA8882820A892E
:10360000C2824A8902830A7B02F0010282764A7BE7
:1036100002F0010280F820208A7B02F0010280F88B
:103620002C208A7BC2F3400280F844208A7BC2F3BC
:10363000800280F83E208A7BC2F3C00280F84A20D4
:103640008A7BC2F3001280F87A208A7BC2F3401290
:1036500080F880208A7BC2F3801280F826208A7B43
:10366000D20980F83220CA7B02F0010280F83820AB
:10367000CA7BC2F3400280F85020CA7BC2F38002AA
:1036800080F85620CA7BC2F3C00280F85C20CA7B57
:10369000C2F3001280F86220CA7BC2F3401280F8A5
:1036A0006820CA7BC2F3801280F86E20CA7BD209E0
:1036B00080F87420098AC1F30A01A1F580610182B2
:1036C00070471E21018000218170704710B50446AB
:1036D0000068FFF756FF6068FFF7F3FF014900201D
:1036E000087010BD8C00002070B52D4900254A8857
:1036F000521C12B24A800A2A00D14D80294EB1F9DB
:10370000023006F1140436F9132000EE102A426844
:10371000F8EEC00AB2EE040A80EE801AD2ED010A79
:1037200070EEC10AC2ED010A34F9132000EE902AAE
:103730004268F8EEE00A80EE801AD2ED020A70EEDE
:10374000C10AC2ED020A0268B2F9142026F8132059
:1037500000EE902A0668F8EEE00AF68A24F8136074
:10376000426880EE801AD2ED010A71EE200AC2EDA5
:10377000010A34F9132000EE902A4268F8EEE00ABC
:1037800080EE801A92ED020A31EE000A82ED020A02
:1037900001220A7041680D804068827070BD00008F
:1037A0008C0000206449002038B504460068016898
:1037B00040680090304884420CD1A06B00680168DA
:1037C00021F0010101602D48FFF786FA4FF4AF7137
:1037D0002A484DE02A4884421CD1A06B0068016849
:1037E00021F001010160A06B01684A68062A06D138
:1037F0000968090301D5416C00E0C16B8847A16BE2
:10380000182009684860A06B0068016841F0010158
:10381000016038BD1B4884420BD1A06B0068016871
:1038200021F0010101601848FFF7BAFAC8211648D3
:103830001EE0164884420DD1A06B0068016821F09B
:10384000010101601048C830FFF7C8FA0E48C821CE
:10385000C8300DE00E488442DBD1A06B00680168DF
:1038600021F0010101600B48FFF7D6FAC821094891
:10387000FCF703FEC7E700007C0100203445002070
:10388000C001002004020020C2460020F4000020F5
:103890003801002052480020D0E9013201699A60C5
:1038A000D0E901235A604A68824201D182684A60A5
:1038B000002202610868401E086008687047000026
:1038C000034B036003F154000860802010607047D0
:1038D000A805002000F108014FF0FF32C0E90112F5
:1038E000C1600161002101607047002101617047E2
:1038F00030B50B685A1C02D000F1080202E00269E0
:1039000004E02246546825689D42FAD953684B600A
:1039100099608A60516008610168491C016030BD8E
:1039200042684A6093688B6093685960916008614F
:103930000168491C01607047502080F31188BFF373
:103940004F8FBFF36F8F0A494868401C48600128B9
:103950000CD10848006810F0FF0F07D0502080F30A
:103960001188BFF34F8FBFF36F8FFEE770470000E2
:103970008000002004ED00E00849486828B1401E9E
:10398000486001D180F311887047502080F311887E
:10399000BFF34F8FBFF36F8FFEE700008000002062
:1039A00070B500282AD0164DA0F108046068696936
:1039B000084207D1502080F31188BFF34F8FBFF327
:1039C0006F8FFEE722683AB1502080F31188BFF371
:1039D0004F8FBFF36F8FFEE78843606000F080F881
:1039E00060686968084468602046FFF7A9FC286998
:1039F000401C2861BDE8704000F0E0B970BD0000D7
:103A0000600000204FF0E020002101618161054944
:103A10004FF47A720968B1FBF2F1491E4161072146
:103A2000016170472000002010B5020014D00F483B
:103A3000006B38B1502080F31188BFF34F8FBFF374
:103A40006F8FFEE700F04CF800211046FFF71CFBDB
:103A500000F0B4F9002807D105494FF08050086004
:103A6000BFF34F8FBFF36F8F10BD00002400002005
:103A700004ED00E010B586B00024039405AA04A963
:103A800003A80494FFF71CFFDDE903010094CDE9CE
:103A9000011000230EA11048059A00F0FEF80F490E
:103AA0000028C86211D0502080F31188BFF34F8FD7
:103AB000BFF36F8F4FF0FF30886201204861CC6008
:103AC00006B0BDE8104000F041B806B010BD0000DF
:103AD00049444C4500000000493200082400002001
:103AE0000248016B491C016370470000240000205C
:103AF0001448016B11B10121C16170470021C161FE
:103B00000169B1FA81F1C1F11F0101EB81020E4996
:103B100051F822306BB101EB820101F108034A68D0
:103B200052684A609A4201D152684A60D168016085
:103B30007047502080F31188BFF34F8FBFF36F8F12
:103B4000FEE7000024000020440800201CB5374890
:103B50000168374A914207D1502080F31188BFF3A2
:103B60004F8FBFF36F8FFEE700683149491E8842CF
:103B700007D1502080F31188BFF34F8FBFF36F8FB1
:103B8000FEE72C4908780190FF20087008788DF82E
:103B900000009DF800009DF8002000F0F000904229
:103BA00007D0502080F31188BFF34F8FBFF36F8F82
:103BB000FEE79DF80000204C00F050002070072028
:103BC000A06005E09DF8002052008DF80020401E06
:103BD0009DF800201206F5D4A060032807D05020DD
:103BE00080F31188BFF34F8FBFF36F8FFEE74FF461
:103BF0004070A060019808700C482030016841F4C2
:103C000070010160016841F070410160FFF7FAFE48
:103C100000206060FCF72CFB0848016841F040413F
:103C20000160FCF711FB00201CBD000000ED00E06E
:103C300071C20F4100E400E08000002034EF00E09A
:103C40002DE9FF5F8346DDE90E87994616468A46D1
:103C50009000FFF7BFFB05001CD05420FFF7BAFB14
:103C6000040014D00020256384F85100CDE90240FF
:103C7000CDE900874B46324651465846FFF714FBC4
:103C80002046FFF739FA012004B0BDE8F09F28462E
:103C9000FFF786FE4FF0FF30F6E7F0B585B0DDE9BF
:103CA0000B640A9DA6B1DCB1542700972663022657
:103CB00084F85160002604AFCDE90246CDE90057F3
:103CC000FFF7F2FA2046FFF717FA049805B0F0BDA7
:103CD000502080F31188BFF34F8FBFF36F8FFEE743
:103CE000502080F31188BFF34F8FBFF36F8FFEE733
:103CF0002DE9F0412F4C0026206B28B1A069401C13
:103D0000A0613046BDE8F081E5686D1CE56013D127
:103D1000606B006838B1502080F31188BFF34F8F7B
:103D2000BFF36F8FFEE7606BA16B6163A063206AD6
:103D3000401C2062FFF72AFBA06ADFF87C808542E6
:103D400009D3606B0068A0B1606BC068C768786811
:103D5000854211D2A0622068C06A00EB800158F849
:103D60002100012800D90126E0690028C9D00126D8
:103D7000C7E74FF0FF30EDE7381DFFF78DFDB86A5C
:103D800018B107F11800FFF787FDF96A01202269D1
:103D900088401043206101EB810108EB8100391D4F
:103DA000FFF7BEFDF86A2168C96A8842C9D30126B7
:103DB000C7E7000024000020440800202DE9F04758
:103DC0002C4D00242746286B38B1FFF7B5FD286B32
:103DD000401E2863286B40B146E0502080F31188D4
:103DE000BFF34F8FBFF36F8FFEE7A968224E01200C
:103DF000D1B3A6F1B40980463068E8B1F068C46870
:103E000004F11800FFF748FD201DFFF745FDE06AAB
:103E10002A6908FA00F11143296100EB800109EBDE
:103E20008100211DFFF77CFDE06A2968C96A88428C
:103E3000E2D3C5F81C80DFE70CB1FFF7A7FAAC6945
:103E400044B14646FFF754FF00B1EE61641EF9D15C
:103E50000020A861E86938B10849012738070860DF
:103E6000BFF34F8FBFF36F8FFFF786FD3846BDE876
:103E7000F087000024000020F808002004ED00E096
:103E80004FF04070E1EE100A70470000403F00081C
:103E90005D28000800000000000000008000000015
:103EA00000000000000000001C3F0008212A00085C
:103EB00002000000000000000004000000000000FC
:103EC00000000000283F0008292A00080200000026
:103ED00000000000000400000000000000000000DE
:103EE000343F0008312A00080100000000000000F3
:103EF0000004000000000000000000000006101692
:103F0000000610160000000000000000010203047B
:103F10000607080900000000010203045072696FDF
:103F2000726974795F4831005072696F726974798F
:103F30005F4832005072696F726974795F4D00009A
:103F400064656661756C745461736B006C3F000846
:103F50000000002098000000C40100080440000890
:103F600098000020F04F0000E00100080000000071
:103F70000000000000000000000000000000000041
:103F80000100000010000000000000000024F40008
:103F90000000000000000000000000000000000021
:103FA0000000000000000000000000000000000011
:103FB0000000000000000000000000000000000001
:103FC00000000000000000000000000000000000F1
:103FD00000000000000000000000000000000000E1
:103FE00000000000000000000000000000000000D1
:103FF000AAAAAAAA00000000000000008C49002024
:04400000144A00203E
:040000050800018965
:00000001FF
