:020000040800F2
:10000000486900205D020008C74F00082D4800081D
:10001000C54F0008E1100008215C00080000000046
:100020000000000000000000000000009D0100082A
:100030000922000800000000F901000885560008A8
:1000400077020008770200087702000877020008AC
:10005000770200087702000877020008770200089C
:10006000770200087702000877020008770200088C
:10007000E91E000877020008F51E00087702000854
:10008000011F0008770200087702000877020008C5
:100090000D110008770200087702000877020008B7
:1000A000770200087702000877020008770200084C
:1000B0005957000877020008770200087702000805
:1000C000770200087702000877020008770200082C
:1000D0007702000877020008095B00087D5B0008D2
:1000E000770200087702000877020008770200080C
:1000F00077020008770200087702000877020008FC
:1001000077020008770200087702000877020008EB
:1001100077020008770200087702000877020008DB
:1001200077020008770200087702000877020008CB
:1001300077020008770200087702000877020008BB
:10014000A912000877020008770200087702000869
:10015000770200087702000877020008770200089B
:10016000770200087702000877020008770200088B
:1001700077020008770200087702000800000000FC
:100180007702000877020008DFF80CD000F07AFB55
:100190000048004725980008486900202C4B196842
:1001A0000868B0E8F04F80F30988BFF36F8F4FF015
:1001B000000080F3118870470000000008480068C4
:1001C000006880F308884FF0000080F3148862B65E
:1001D00061B6BFF34F8FBFF36F8F00DF00BF00BF6B
:1001E00008ED00E0DFF80C00016841F470010160E7
:1001F000704700BF88ED00E0EFF30980BFF36F8F19
:10020000134B1A681EF0100F08BF20ED108A20E96A
:10021000F04F106009B44FF0500080F31188BFF325
:100220004F8FBFF36F8F0CF0C7FC4FF0000080F3CF
:10023000118809BC19680868B0E8F04F1EF0100F6B
:1002400008BFB0EC108A80F30988BFF36F8F704746
:10025000B8170020EFF3058070470000064880477C
:1002600006480047FEE7FEE7FEE7FEE7FEE7FEE79B
:10027000FEE7FEE7FEE7FEE74957000889010008B0
:100280002DE9F05F0546002092469B4688460646CB
:10029000814640241BE0284641464746224600F05E
:1002A000CBF953465A46C01A914110D3114618460D
:1002B000224600F0B2F92D1A67EB01084F4622469C
:1002C0000120002100F0A9F917EB00094E41201E82
:1002D000A4F10104DFDC484631462A464346BDE826
:1002E000F09F40EA01039B0703D009E008C9121FF1
:1002F00008C0042AFAD203E011F8013B00F8013BE0
:10030000521EF9D27047D2B201E000F8012B491E0B
:10031000FBD270470022F6E710B513460A460446A2
:100320001946FFF7F0FF204610BD2DE9FE4F80462D
:1003300081EA0300C00F0C46009021F0004123F039
:100340000045B8EB0200A94105D24046214690463F
:100350001C460B46024623F00040104347D0270DB1
:10036000C7F30A00C3F30A510290401A01904028D3
:100370006BDAC3F3130040F4801B0098924620B15F
:100380000023D2EB030A63EB0B0B01985946C0F133
:100390004002504600F041F906460D465046594687
:1003A000019A00F059F910EB08006141002487EA36
:1003B000115284EAE7731A4340D0009A62B3019A5B
:1003C000012A4FEA075215DC001B61EB02014FF0D6
:1003D000004202EA0752CDE90042001C41F58011BB
:1003E00032462B4600F090F903B0BDE8F08F40464E
:1003F0002146F9E7001B61EB0201001C41F5801367
:1004000000185B412018A2F5001747EB030140EAF2
:10041000D570B6196D4111E06D084FEA360645EA10
:10042000C0754FEA0752001B61EB0201001C41F549
:10043000801149084FEA30000019514132462B46DD
:1004400003B0BDE8F04F00F050B900980122400021
:100450000023D0EB020263EBE073009821464FEAE1
:10046000E074B8EB000061EB0401E9E783F00043BE
:100470005BE781F0004158E72DE9FE4F81EA030474
:1004800004F0004421F0004100944FF0000B23F0F1
:10049000004350EA01045ED052EA03045BD0C3F388
:1004A0000A54C1F30A552C44A4F2F3340194A0FB7E
:1004B0000254C1F3130141F48011C3F3130343F455
:1004C000801301FB024400FB034E840A970A44EAAE
:1004D000815447EA8357A4FB076802958D0A05FB00
:1004E00007854FEA932C04FB0C542705029D4FEA25
:1004F000065847EA1637B5EB08056EEB070C870E72
:10050000920E47EA811742EA8312A7FB0201B6EB7B
:100510000B0164EB00042B0D43EA0C335E1844EB33
:100520001C50DA465146E7FB0201C5F313044FEABB
:100530000B3343EA14534FEA0432019C43EA0603A7
:10054000A4F10C040294009CCDE900B400F0DCF8A6
:1005500003B0BDE8F08F00200146F9E70EB5C10FEA
:1005600080EAE0700844CA07002140F233438DE876
:100570000E000A460B4600F0C7F803B000BD70B588
:10058000C1F30A5201F000450024C1F3130140F207
:10059000FF3341F480119A4201DA002070BD40F22D
:1005A00033439A42A2F2334203DC524200F044F851
:1005B00000E090402C43F1D0404270BD00F000427A
:1005C00030F000400AD0C10D01F56071C0F3160093
:1005D00042EA0151C208400711437047002001461A
:1005E000704701F0004330B421F0004150EA0102AD
:1005F00006D00A0DA2F56072C1F31301002A02DCD5
:1006000030BC00207047440F44EAC104C100E01828
:1006100030BC00EBC25000F031B8202A04DB203A95
:1006200000FA02F1002070479140C2F1200320FA45
:1006300003F3194390407047202A04DB203A21FA43
:1006400002F00021704721FA02F3D040C2F12002EB
:100650009140084319467047202A06DBCB17203A01
:1006600041FA02F043EAE07306E041FA02F3D040B7
:10067000C2F1200291400843194670470029A8BFE3
:100680007047401C490008BF20F00100704710B4BB
:10069000B0FA80FC00FA0CF050EA010404BF10BC70
:1006A000704749B1CCF1200421FA04F411FA0CF19D
:1006B00018BF012121430843A3EB0C01CB1D4FEAD6
:1006C00000614FEA102042BF002010BC704700EBD1
:1006D000C35010440029A4BF10BC7047401C4900FF
:1006E00008BF20F0010010BC704710B5141E73F154
:1006F000000408DA401C41F1000192185B411A43E2
:1007000001D120F0010010BD2DE9F04D92469B462D
:1007100011B1B1FA81F202E0B0FA80F220329046D3
:10072000FFF77BFF04460F4640EA0A0041EA0B014F
:1007300053465A46084313D0114653EA010019D0D4
:10074000C8F140025046FFF777FF05460E46504677
:1007500059464246FFF761FF084305D0012004E0F7
:1007600020463946BDE8F08D0020054346EAE07694
:100770002C4337430A986305E40AA0EB08000022E3
:10078000FD0A44EA47540A3002D500200146E9E751
:10079000010510196941DDE9084500196941BDE805
:1007A000F04DA2E72DE9F04D81EA030404F0004B7F
:1007B00021F0004514464FF0000A23F0004150EAB2
:1007C000050220D054EA01021DD0C5F30A570246A3
:1007D000C5F31303C1F31300C1F30A5640F48015A7
:1007E00043F48013A7EB0608101BD64608F2FD3829
:1007F00073EB050002D308F1010801E092185B4198
:10080000B8F1000F03DA00200146BDE8F08D0020AA
:100810004FF48011064684460EE0171B73EB050764
:1008200005D3121B63EB050306434CEA010C490890
:100830004FEA300092185B4150EA0107EDD152EACD
:10084000030012D082EA040083EA0501084305D0C0
:10085000101BAB4106D20122002306E000224FF01C
:10086000004302E06FF0010253101AEB06004CEB5C
:10087000085110EB0A0041EB0B01BDE8F04DFFF70A
:1008800034BF0000064C074D06E0E06840F001036D
:1008900094E8070098471034AC42F6D3FFF778FC91
:1008A000CCF70008ECF700082DE9F04D00231A46BC
:1008B0001B1A8A4103DB00200146BDE8F08DC1F31D
:1008C0000A52C1F3130141F480154FF0000BD10718
:1008D00002D100186D41521E0027044640F2FF115C
:1008E000384601EB620A3E468046024600204FF43D
:1008F0008011FFF7A1FEC2197141BB1846EB010040
:10090000B4EB030C75EB000C04D3E41A65EB0005A3
:1009100017460E46241908F101006D41804634281F
:10092000E3DDF91946EB0600091BA84103D24FF09D
:10093000FF32134601E0002213461BEB070046EB93
:100940000A51BDE8F04DFFF7D0BE0EB540F233417D
:1009500002910021CDE900110A460B46FFF7D4FEB3
:1009600003B000BD70B58C1810F8015B15F00703DB
:1009700001D110F8013B2A1106D110F8012B03E038
:1009800010F8016B01F8016B5B1EF9D12B0705D440
:100990000023521E0DD401F8013BFAE710F8013B89
:1009A000CB1A921C03E013F8015B01F8015B521EA5
:1009B000F9D5A142D8D3002070BD000030B50C4657
:1009C00005000CD0022C0AD90548A11E0288284631
:1009D00001F004FD291901F8020D000A487030BD2C
:1009E000541B002030B50C4605000AD0022C08D953
:1009F000601E81B2FF22284601F006FD291901F888
:100A0000010C30BD2DE9FF5F99462DED0C8B1EAE1C
:100A100092468B46DDE91C4096E82E00D4ED000A94
:100A2000FE4CDFF8FC83C4ED110A90ED000A84ED62
:100A3000120A91ED000A84ED130A92ED000A84ED8A
:100A4000140A93ED000A84ED150A95ED000A454657
:100A500084ED160A98F80C109FEDF28AFDEEE00A7C
:100A6000B0EE480A10EE900A00B208F0ADFE84ED38
:100A7000110AD4ED120A297BB0EE480AFDEEE00A15
:100A800010EE900A00B208F09FFE84ED120AD4ED39
:100A9000130A297BB0EE480AFDEEE00A10EE900A38
:100AA00000B208F091FE10EE105A606CFFF786FD60
:100AB0009FEDDD8B53EC182BFFF7DEFCFFF791FD6C
:100AC00007466064A06CFFF779FD53EC182BFFF725
:100AD000D3FCFFF786FD0646A0642846FFF76EFDAF
:100AE00053EC182BFFF7C8FCFFF77BFDE766E064CB
:100AF000C4E91C60D4ED140A94ED150A94ED161A9D
:100B0000B0EE008A20EE800A20EE010AB5EEC00A9F
:100B1000F1EE10FA7ED0FDEEE00A454698F80C1092
:100B200010EE900AB0EE000A00B208F061FE84ED0B
:100B3000140AD4ED150A297BB0EE000AFDEEE00A96
:100B400010EE900A00B208F053FE84ED150AD4EDC1
:100B5000160A297BB0EE000AFDEEE00A10EE900ABC
:100B600000B208F045FEF0EE400AC4ED160A94ED1E
:100B7000140A94ED151A20EE000A01EE010A00EEA7
:100B8000A00A08F097FD84ED0A0AD4ED140A04F1D6
:100B9000380060EE803AC4ED143AD4ED150A20EE28
:100BA000804A84ED154AD4ED160A20EE801A84EDB1
:100BB000161AD4ED072AD4ED090A94ED060AD4EDED
:100BC000081A22EEA02A00EE612A22EE083A20EE50
:100BD000222A20EE000A84ED0B3A01EEA02A02EE52
:100BE000E20A22EE082A01EEE10A84ED0C2A63EE05
:100BF000821A00EEA00A44EE431A84ED0D0A64EE58
:100C0000000A41EE420A21EE031A03EEC01AC0ECBC
:100C1000030A00E013E094ED112A94ED000A00EEBF
:100C2000202A84ED112AD4ED120A40EE010AC4ED07
:100C3000120AD4ED130A40EE210AC4ED130A94ED12
:100C4000060A84ED170A94ED072AF0EE405A84ED67
:100C5000182A94ED081A84ED191AD4ED091AC4ED76
:100C60001A1AD4ED113A94ED125A94ED134A62EE29
:100C7000630A60EE232AD4ED014A41EE450A41EEB3
:100C8000042A41EEC40A41EEC52A40EEA45AF0EE11
:100C9000420A42EEA40A60EE052A20EE040AC4EDE0
:100CA000065A42EE442A02EE050AC4ED070AB0EEE7
:100CB000603AF0EE410A41EEA32A01EE630A42EEE9
:100CC000A40A40EE241A25EEA50AC4ED080A03EE94
:100CD000030AF0EE602AC4ED091A02EEA20A01EE40
:100CE000A10A08F0E7FC84ED0A0AD4ED060A20EE1A
:100CF00080BA84ED06BAD4ED070A60EE809AC4ED9E
:100D0000079AD4ED080A60EE808AC4ED088AD4ED13
:100D1000090A20EE809A2BEE0B0A84ED099A09EE5F
:100D2000E90A08EEE80A09EE090A10EE100AFFF7D0
:100D300045FC28EE880A6BEE080A41EC1A0B20EEFF
:100D4000090A00EEA90A10EE100AFFF737FC41EC81
:100D5000100BB0EE4A1AF0EE6A1A05F0DDFA9FEDBC
:100D600034AB51EC100B53EC1A2BFFF785FBFFF75C
:100D700038FCCBF8000094ED070AD4ED090A94ED95
:100D8000081A20EE080A20EE200AD4ED060A60EECA
:100D9000880A00EEC10A10EE100AFFF70FFC41ECC2
:100DA000100B04F09DFF9FED249B51EC100B53ECB6
:100DB000192BFFF761FBFFF714FC0C990860D4EDC9
:100DC000068A94ED07CA94ED08DA28EEA80AD4ED55
:100DD00009CA0CEE0C0A0DEE4D0A0CEEEC0A10EEF0
:100DE000100AFFF7EBFB2CEE0D0A41EC1B0B08EE93
:100DF000AC0A20EE080A10EE100AFFF7DFFB41EC08
:100E0000100BB0EE4B1AF0EE6B1A05F085FA53ECAE
:100E1000192B51EC100BFFF72FFB11E0B41A002037
:100E2000B06200200000FA44514CDE0033DF913FF5
:100E3000000000E0DBA54C40000000E0DBA54CC05A
:100E4000FFF7CFFBCAF80000774D94ED020A85ED5D
:100E5000020AD4ED032AF0EE403AC5ED032A94EDE0
:100E6000042A85ED042AD4ED051AC5ED051A94ED82
:100E70001B4A94ED1C5AD4ED1D4A62EEC40A20EEC2
:100E8000041A60EE055A20EE240A42EE450A02EEEC
:100E9000241A94ED013A02EE850A42EEE45A41EE3C
:100EA000E40A01EEC51A02EE440A41EE845A40EE0D
:100EB000833AF0EE620A41EE030A40EE031AB0EE06
:100EC000421A23EEA30A05EE831AC4ED1E3AC4EDBE
:100ED0001F0A00EEA00A85EC021A01EE010A01EEDB
:100EE000A10A08F0E7FB84ED0A0AD4ED1E0A20EE01
:100EF00080DA84ED1EDAD4ED1F0A20EE80BA84ED8C
:100F00001FBAD5ED000A60EE808AC5ED008AD5EDE6
:100F1000010A60EE80BA2DEE0D0AC5ED01BA0BEEA6
:100F20004B0A08EEE80A0BEEAB0A10EE100AFFF7C8
:100F300045FB28EE880A6DEE080A41EC1C0B20EEFA
:100F40002B0A00EE8B0A10EE100AFFF737FB41EC7C
:100F5000100BB0EE4C1AF0EE6C1A05F0DDF953EC04
:100F60001A2B51EC100BFFF787FAFFF73AFB1A998F
:100F7000086094ED1F0AD5ED010A95ED001A20EEE8
:100F8000080A20EE200AD4ED1E0A60EE880A00EE60
:100F9000C10A10EE100AFFF711FB41EC100B04F030
:100FA0009FFE53EC192B51EC100BFFF765FAFFF77E
:100FB00018FBC9F80000D4ED1E8AD4ED1FAA95EDE8
:100FC00000CA28EEA80A95ED01AA0AEEAA0A0CEEBC
:100FD0004C0A0AEE4A0A10EE100AFFF7EFFA2AEE60
:100FE0008C0A41EC1B0B08EE8A0A20EE080A10EE70
:100FF000100AFFF7E3FA41EC100BB0EE4B1AF0EEDB
:101000006B1A05F089F953EC192B51EC100BFFF713
:1010100033FAFFF7E6FA1B9908600020BDEC0C8B51
:1010200004B0BDE8F09F0000341B00202DE9FE4F06
:101030001546DDE90C9A0E4607460C221C46694609
:10104000104603F067FEBDF80080BDF802C0BDF891
:101050000430BDF80620BDF80810BDF80A00A4F859
:101060000080A9F800C0AAF800303A8031802880BA
:10107000BDE8FE8F38B5194806F000FC06F072F89E
:10108000164806F033F8044606F06CF824BB01203D
:101090008DF800000146114A684606F07DFC06F016
:1010A00061F80E4804F04AF800208DF800000B4A61
:1010B0000121684606F070FC06F054F8074804F079
:1010C00013F802208DF80000044A0121684606F05A
:1010D00063FC044606F046F8204638BDB0620020A6
:1010E000FEE7000000B58BB0684600F031F96946B4
:1010F000054801F027FE0221034801F0ADFD02483A
:1011000002F058F90BB000BDC81D0020014801F0E5
:1011100014BF0000C81D00201CB50A88120A8DF8F3
:1011200000200A788DF801204A88120A8DF80220E2
:101130008A788DF803208A88120A8DF804200A79AB
:101140008DF80520CA88120A8DF8062089798DF855
:10115000071001466A46024800F008F91CBD00006D
:10116000C81D00202DE9F04140F201243C4AA0F2C4
:101170000123A0421DD00FDC3A4CA0F580704FF047
:101180000003D4E900264FF0010505285BD2DFE813
:1011900000F02B35405C5F00082B54D2DFE803F0F1
:1011A000530E13185353041D2F480822D0F824322D
:1011B00017E0D2F824320822294812E0D2F86C3421
:1011C00008222A480DE0D2F8B4360822284808E060
:1011D000D2F8FC380822274803E027480822D0F834
:1011E0002432BDE8F04118470888108020684A88FA
:1011F000428109798175606883802DE008881081BB
:1012000088781074B1F803005082B1F8050090821C
:1012100021E01A4D086890612888D2ED060A00EE98
:10122000100AB8EE400AF4EE400AF1EE10FA0AD0C5
:1012300008F056FB6860206890ED060ABCEEC00A14
:1012400010EE100A2880BDE8F0810878107302E0E3
:101250000868C2F81100B38060688570F3E7000089
:101260006C090020AC1A00204C000020B40B0020B8
:10127000FC0D0020441000208C12002020000020D3
:1012800000B58BB0684600F063F86946054801F088
:1012900059FD0221034801F0DFFC024802F08AF800
:1012A0000BB000BDF01D0020014801F046BE00005B
:1012B000F01D00201CB50A88120A8DF800200A785B
:1012C0008DF801204A88120A8DF802208A788DF85C
:1012D00003208A88120A8DF804200A798DF80520E7
:1012E000CA88120A8DF8062089798DF80710014600
:1012F0006A46024800F03AF81CBD0000F01D0020CC
:10130000A0F5007002380AD0032812D004280BD0B0
:10131000052813D10A480822D0F824320DE00948E4
:101320000822D0F8243208E007480822D0F82432F6
:1013300003E006480822D0F824321847704700001E
:101340002407002094020020DC040020D414002094
:101350000021016041608160C16001610122416141
:10136000C0E90612C0E908217047000010B50B4C17
:10137000036888B0A34202D0094CA3420BD100916C
:101380000021029103910821049106AB694601F006
:1013900075FC002800D0012008B010BD006400409A
:1013A0000068004010B5054809F008FA00F0A4F8FC
:1013B00001F0ECF8BDE8104004F0CCB83018002083
:1013C00070B510211148FEF7A5FF4FF400740F4AC5
:1013D00021460F48FFF7CAFF0C4A651E0832164621
:1013E00029460B48FFF7C2FF084A21460948FFF784
:1013F000BDFF324629460748FFF7B8FF10210348D2
:10140000FEF788FF04490020087070BD68210020A5
:10141000C81D0020F01D00204800002010B50A4C17
:101420009FED080A206880ED030A216A204688475C
:10143000616A20468847BDE81040044940F2FF1029
:10144000FFF738BF00000000C8180020400000204F
:101450000349002008700349087003490870704769
:10146000541A0020551A0020561A002011498B7872
:101470000421032263B1012B19D10F4B1B78002BE0
:1014800015D00378032B12D14378042B10D00DE034
:101490000A4B1B781BB14378042B00D14270084AD9
:1014A0001278002A03D00278032A00D141707047D5
:1014B00042707047781A0020561A0020551A0020F2
:1014C000541A002008B1012802D1024981F83100E4
:1014D0007047000064170020704710B5044600F004
:1014E000A1F82046FFF7C2FF204600F095F9BDE8BD
:1014F0001040FFF7ADBF000010B50B4C2046D4F8EC
:1015000018128847D4F8601404F512708847D4F88C
:10151000A81604F59260884704F5DB60D4F8F0184B
:10152000BDE81040084700006C09002000B50346E4
:1015300008680A46002821D0506800281ED090680C
:1015400000281BD0D068002818D0106910B90020DE
:10155000FFF7B8FF9068986010681860506858608E
:10156000D068D8604FF4FA50988642F6E060D8868A
:10157000002083F83100322083F8300000BD0000E5
:101580002DE9F041224C2046D4F81412884704F586
:101590001270D4F85C140746884704F59260D4F8BA
:1015A000A4160646884704F5DB60D4F8EC18054617
:1015B0008847D4F81C22174904F12C009047D4F82E
:1015C0006424144904F51D709047D4F8AC261149E1
:1015D00004F2BC409047D4F8F4280E4904F2047099
:1015E00090470D480146C0E90047C0E902650B4C31
:1015F0002046226C90470A4806490068E0630020B4
:10160000133908704870BDE8F041FFF721BF0000B2
:101610006C09002030190020286100206417002088
:10162000AC1A00200949097800290CD008494A78E9
:10163000012132B1012A04D0022A05D0032A02D1A5
:1016400003210170417070470221FAE7651A0020FA
:10165000781A00202DE9F041044600686268B0F96C
:101660000210B2F90270A268D0F83832B2F9026002
:10167000E268B2F90250B4F9202000EE102A00F11D
:101680002C021046F8EEC00A00EE101AB8EEC00A9E
:101690009847BDEEC00A10EE100A2085B4F922006A
:1016A00000EE100A6068F8EEC00A00EE107A00F151
:1016B0002C01D0F83822B8EEC00A08469047BDEE9B
:1016C000C00A10EE100A6085B4F9240000EE100A7A
:1016D000A068F8EEC00A00EE106A00F12C01D0F804
:1016E0003822B8EEC00A08469047BDEEC00A10EE98
:1016F000100AA085B4F9260000EE100AE068F8EEA2
:10170000C00A00EE105A00F12C01D0F83822B8EED1
:10171000C00A08469047BDEEC00A10EE100AE085E8
:10172000BDE8F081FCB53749B0F92840364EC96BA9
:101730009FED361AB1F90010ADF8004000EE101A16
:10174000B0F92A30ADF80230B8EEC00AB0F92C205A
:10175000ADF8042010EE105AB0F92E10ADF80610B6
:10176000B54201DDB0EE410A10EE105AC0EE010A9A
:10177000274FBD4201DA60EEA00A10EE105A9FED2D
:10178000250AB54201DA20EE800A002C00DC644212
:10179000002B00DC5B422344002A00DC52421A4446
:1017A000002900DC4942114400EE901AF8EEE00AEC
:1017B00080EE201AF4EEC00AF1EE10FA14DB0021DC
:1017C0004FEA0D0232F9113000EE103AB8EEC00ABD
:1017D00020EE010ABDEEC00A10EE103A22F81130D8
:1017E000491CC9B20429EDD3BDF800100185BDF82C
:1017F00002104185BDF804108185BDF80610C18531
:10180000FCBD000064170020000070420000704220
:101810000000C8410000FA462DE9F04F83462DED47
:101820000A8B8BB0DFEDFE0A9FEDFE1A00221346F5
:10183000FD4E4FF42571B6F9060090FBF1F000EE75
:10184000100AB8EEC09A06F083FBB0EE408A9FED16
:10185000F7AA10EE100A4FF00008C0EE0A1AA6F11F
:101860000809B0F18A4F61EE818A04DD18EE100A92
:10187000EF49884202DB89F8008002E0012189F803
:1018800000109BF80010EB4DEB4CF1EE009A002994
:101890007CD0012907D0E9489FEDE90A022906D04A
:1018A000032973D173E04046A4F81080EEE18078FC
:1018B00010B10128F5D116E02868B0F9061000EE45
:1018C000101AB8EEC00A20EE290ABDEEC00A10EECA
:1018D000101A2182B0F9040000EE100AB8EEC00A16
:1018E00020EE290ACDE1296831F92E0F00EE900A89
:1018F000B6F90600F8EEE00A80EE801A00EE900AD3
:10190000F8EEE00A61EE200AFDEEE00A10EE907AB1
:1019100002FA87F2B1F9187000EE907AF8EEE00A58
:1019200080EE801A00EE900AF8EEE00A61EE200ADE
:10193000FDEEE00A10EE907AD21BB1F91E7000EEB7
:10194000907AF8EEE00A80EE801A00EE900AF8EE47
:10195000E00A61EE200AFDEEE00A10EE907A03FA4A
:1019600087F3B1F91210228200EE901AB8EEE01A55
:10197000C1EE000A00EE100AB8EEC00A20EE800A9E
:10198000BDEEC00A10EE100A181A7FE17FE18078E0
:1019900010B1012885D189E0AA4808F025FE18EE8B
:1019A000900AFEF70BFE41EC100B04F011FEA54F60
:1019B000B0EE401AF0EE601AB7F90A00B0EE41BA84
:1019C00000EE100AF0EE61BAB8EEC00A20EE090A85
:1019D00010EE100AFEF7F2FD53EC1B2BFEF74CFD48
:1019E00041EC1C0B18EE900AFEF7E8FD41EC100BE1
:1019F00004F08AFDB7F90800B0EE40BA00EE100A14
:101A0000F0EE60BAB8EEC00A20EE090A10EE100A35
:101A1000FEF7D4FD53EC1B2BFEF72EFD53EC1C2BD5
:101A2000FEF724FDFEF7ABFD208218EE900AFEF7CC
:101A3000C5FD41EC100B04F0CBFDB7F90800B0EE8A
:101A400040BA00EE100AF0EE60BAB8EEC00A20EE1E
:101A5000090A10EE100AFEF7B1FD53EC1B2BFEF73E
:101A60000BFD41EC1B0B18EE900AFEF7A7FD41ECB5
:101A7000100B04F049FDB7F90A00B0EE40CA00EEC1
:101A8000100AF0EE60CAB8EEC00A20EE090A10EEA5
:101A9000100AFEF793FD53EC1C2BFEF7EDFC53EC04
:101AA0001B2BFEF742FCFEF76AFDEFE0296831F9D7
:101AB0002E0F01EE100AB6F90600B1F91830B8EE93
:101AC000C11AC1EE001A01EE100AB8EEC12AB0EE3A
:101AD000601A01EE821ABDEEC11A11EE102A01EE53
:101AE000103A12B2B8EEC11AC1EE001A01EE100A95
:101AF000B8EEC12A01EE102AB8EEC11A01EEC21AE0
:101B0000BDEEC11A11EE102A12B20092B1F91E20D8
:101B1000B1F9121001EE102AB8EEC11AC1EE001A86
:101B200001EE100AB8EEC11A41EE810AFDEEE00A9C
:101B300010EE902A00EE901A12B2B8EEE01AC1EE42
:101B4000000A00EE100AB8EEC01A00EE102AB8EE35
:101B5000C00A00EEC10ABDEEC00A10EE100A07B2BC
:101B600018EE900AFEF72AFD41EC100B04F030FD50
:101B7000B0EE401AF0EE601AB0EE41BAF0EE61BA83
:101B80003846FEF7EBFC824653EC1B2B0391FEF725
:101B900073FC41EC1C0B18EE900AFEF70FFD41ECB4
:101BA000100B04F0B1FCB0EE40BAF0EE60BA009851
:101BB000FEF7D4FC53EC1B2BFEF75EFC53EC1C2B06
:101BC000FEF754FCFEF7DBFC07B218EE900AFEF7B6
:101BD000F5FC41EC100B04F0FBFCB0EE401AF0EE0B
:101BE000601AB0EE41BAF0EE61BA3846FEF7B6FCC4
:101BF00053EC1B2BFEF740FC41EC1B0B18EE900A3C
:101C0000FEF7DCFC41EC100B04F07EFC039953EC76
:101C1000102B41EC11AB51EC110BFEF72DFC13E036
:101C200000000000D00FC9402419002000F8FF4533
:101C30000000C0453018002064170020781A0020EA
:101C400000002F443C61002053EC1B2BFEF76DFB82
:101C5000FEF795FC00EE107A5C4900B2F8EEC00A7F
:101C60000978E9B19FED5A0A60EE800AFDEEE00ABC
:101C700010EE901A00EE900A2182F8EEE00A20EEB3
:101C8000800ABDEEC00A00BF10EE100A60829BF809
:101C9000010005286DD2DFE800F0906A151F700082
:101CA000B7EE080A80EE801AFDEEC10A10EE901A17
:101CB00000EE900A2182F8EEE00A80EE801ABDEE76
:101CC000C10AE1E72868B0F9000000EE100AB8EE9A
:101CD000C00A20EE090A6BE099F8001061B19FED8F
:101CE0003D0A38EE408A00BFB5EEC08AF1EE10FA28
:101CF0000ADDB0EE480A09E018EE101AB1F18A4F79
:101D0000F2DD38EE4A8AEFE7B1EE480A10EE101A1B
:101D1000314A91422EDBB5EEC08AF1EE10FA01DDB8
:101D2000012108E0B5EEC08AF1EE10FA02D24FF0C0
:101D3000FF3100E000214FF4C87211FB02F100EE08
:101D4000101AF2EE000AB8EEC00A18EE200A00BF20
:101D5000BDEEC00A214810EE101AA18209B200EEB1
:101D6000101AB8EEC00A89ED010A007808B1A4F88B
:101D7000148022E028EE290AEAE7307AE8B941F235
:101D80009410A082B4F9102040F2E63102F2F3126E
:101D90008A4205D8B4F9122002F2F3128A420CD911
:101DA00000EE100AF6EE000AB8EEC00A20EE200A95
:101DB000BDEEC00A10EE100AA082616C0BB008489C
:101DC000BDEC0A8BBDE8F04F08470000571A002011
:101DD0009A99993F000080450000C8425A1A002095
:101DE0006417002030B58C18E5180584551A1D4479
:101DF000891A458419448184191BC18430BD30B5CA
:101E0000B0F91030002B01DD194600E05942B0F95D
:101E10001220002A01DD144600E054420D19B0F9E9
:101E20001410002901DD0C4600E04C422C44C58E04
:101E300024B2A5420ADA00EE105AF8EE400A00EE8B
:101E4000104AB8EEC01A80EE810A01E0B7EE000A2F
:101E500000EE903AF8EEE00A60EE800AFDEEE00A4D
:101E600010EE903A00EE902A0382F8EEE00A60EE5F
:101E7000800AFDEEE00A10EE902A00EE901A4282EF
:101E8000F8EEE00A20EE800ABDEEC00A10EE101A4D
:101E9000818230BD10B50446B0F91010B0F912209F
:101EA000B0F91430FFF79EFF2046FFF7A8FF204649
:101EB000FFF7D0FB2046FFF735FC0548218D018058
:101EC000618D4180A18D8180E18DC18010BD0000B8
:101ED0002800002008B1012802D1024981F832000F
:101EE0007047000064170020014801F0F1BA0000BB
:101EF000001F0020014801F0EBBA0000601F002025
:101F0000014801F0E5BA0000A01E00202DE9F04FC5
:101F100085680024099E802D18D0894DC563894DA0
:101F2000456490F83450012D15D0012580F83450C7
:101F300090F83550012D10D0002180F83410022483
:101F4000002180F834102046BDE8F08F4FF48071F6
:101F500041650120F8E70220F6E7022580F83550B8
:101F60000025456505682F6847F480272F600568C0
:101F70002B6103685E608368402B03682AD09960F8
:101F80000168CA60714D704E704FDFF8BC81DFF898
:101F9000B891DFF8B8A1DFF8B4B1EA14DFF8A8E12E
:101FA0000168183630379302A9F148090AF1600A2E
:101FB0000BF1180BAEF1300E4FF0006C41452DD9EE
:101FC000A94205D0494503D0514501D0B14205D1C0
:101FD000202220E09A600268D160D3E759451AD0E8
:101FE000714518D0594D7835A94214D0564D303529
:101FF000A94210D0B9420BD0534A183A914207D0A7
:10200000524A9032914203D04F4A4832914201D114
:102010001A4600E062464C494C392EE0DFF82C812C
:1020200008F1A80841452AD9A94205D0494503D05D
:10203000514501D0B14201D120221CE059451AD0AE
:10204000714518D0414D7835A94214D03E4D3035F8
:10205000A94210D0B9420BD03B4A183A914207D05E
:102060003A4A9032914203D0374A4832914201D1E4
:102070001A4600E06246344950390A605AE0DFF8F7
:10208000CC8008F1480841452AD9A94205D04945E4
:1020900003D0514501D0B14201D120221CE0594565
:1020A0001AD0714518D0294D7835A94214D0264D43
:1020B0003035A94210D0B9420BD0234A183A914288
:1020C00007D0224A9032914203D01F4A48329142AF
:1020D00001D11A4600E062461C491039CA6029E065
:1020E000A94205D0494503D0514501D0B14201D1A3
:1020F00020221CE059451AD0714518D0134D78356F
:10210000A94214D0104D3035A94210D0B9420BD09D
:102110000D4A183A914207D00C4A9032914203D0AE
:10212000094A4832914201D11A4600E06246074905
:1021300010398A6001680A6842F001020A60FFE60D
:10214000C5810008D981000858640240106002402F
:1021500001681823CAB2103AB2FBF3F2054B6FF3D1
:102160000901032A9B5CC36500D9091D81650846E6
:102170007047000024D2000810B5014600208B698A
:102180008A6A4FF0C07453B1B3F5005F15D072B1D5
:10219000012A0CD0022A0AD0032A09D104E01AB17C
:1021A000012A06D0022A03D1C96AC90100D501203B
:1021B00010BDC96AA142FAD010BD002AF7D0012A89
:1021C000F2D0022AF3D0032AF3D010BD30B5046850
:1021D000256825F480252560046863608368402BAA
:1021E000036803D099600068C26030BD9A600068DF
:1021F000C16030BD01680A68D20604D5C968C90645
:1022000001D50AF015BB70477047000010B50C48A7
:1022100007F0DFF84FF47A7001F0CCFA0A489FED2E
:10222000090A80ED000A094808F0B4F903F0AEF994
:10223000FFF7A6F900F048FABDE8104005F0AEBD82
:102240004C170020CDCCCC3DB41A00203018002013
:1022500010B5FEF747FFFFF713F803F061FCBDE888
:10226000104003F097BC72B6FEE7000010B584681A
:102270000068D4F8281290ED020A20468847BDEE87
:10228000C00A034A216A10EE100A22F8110010BD9C
:1022900038000020006800219FED060A00680068F1
:1022A00001724172817180ED000A02214171017158
:1022B000704700000000000070B502460068936897
:1022C000DFED3F1A016893ED041AD0ED020A0968A8
:1022D000B8EEC10A00204C79042C68D2DFE804F083
:1022E0000267604970EEE11AF4EEC01AF1EE10FADE
:1022F0001AD854688B796488A34212D2CB795B1CBC
:10230000DBB2CB71642B52D953681B8800EE103AB4
:102310008B79B8EE400A5B1C8B71C87170EE200A95
:1023200045E0F8EEC10A20E0B3F902309B1C042B13
:1023300034D80B7A5B1CDBB20B72962B37D34B7AFB
:102340005B1CDBB24B72032B0DD203239FED1D1AD6
:102350004B71087270EE410A30EEC00A30EE010A8D
:1023600081ED000A23E0F0EE400A1046FFF792FFED
:102370001DE030EEE11AB4EEC01AF1EE10FA08D802
:102380008B7991ED000A5B1C8B7170EE200A48710D
:102390000DE0B3F902309B1C042B08D8087206E04C
:1023A0000B79F0EE400A13B94871022008711068E9
:1023B000C0ED020A9169BDE8704010460847000070
:1023C0000000FA4300C0DA45026802211268126870
:1023D00051710068006800680171704710B558B10C
:1023E000084C491E0BD310F8013B5340DBB234F8C4
:1023F000133083EA1222F4E74FF6FF7010BD104647
:1024000010BD000090F3000810B5064C04E000BFBA
:1024100010F8013B5340E25C491E89B2F8D21046E5
:1024200010BD00008FF20008024900200870024928
:1024300008707047581A0020591A002070B5414999
:102440000A789FED410A41494B7842B1032B06D1EE
:102450000168D1ED000A70EEC00AC1ED000A3C49E6
:10246000097841B1032B06D10168D1ED000A30EEA5
:10247000800A81ED000A374C2178B9B336494A8881
:10248000521C92B24A80032B3ED1012A1FD04268CF
:1024900092ED620AB5EEC00AF1EE10FA01DCB1EE7F
:1024A000400A10EE105A2D4EB5422DDC0025257045
:1024B0004D8012888C88121B12B202F58054CA809B
:1024C000B4F5005F20D9002A19DD012418E0026864
:1024D0009FED230AD2ED040AF5EEC00AF1EE10FAE0
:1024E000D2ED000A03D830EE800A02E00CE030EEB4
:1024F000C00A82ED000A426812888A8004E0D4177C
:10250000A4EB44342244CA801649097841B1032B14
:1025100006D10268042182F82110026882F8201096
:102520001149097800290CD0022B03D0032B08D1C4
:10253000022100E00321026882F82110006880F87F
:10254000201070BD581A002000F8FF44781A0020AF
:10255000591A00205A1A00204C1900200000C842C5
:10256000000080455B1A00205C1A002010B504466C
:1025700000F008F92046FFF761FF204600F0DCF983
:102580002046BDE81040FFF74FBF0000054810B5DA
:10259000D0F8181288470448D0F81812BDE8104047
:1025A00008470000D41400208C12002070B5414D63
:1025B00004466868216890ED180A81ED060A2168D2
:1025C00090ED160A81ED070A90ED0F0A9FED3A2A69
:1025D0009FED3A1ADFED3A1AB5EEC00AF1EE10FAA5
:1025E00004D2C0EE010A20EE820A05E031EE400A74
:1025F000C0EE010A20EEA10A2068B1EE400A80ED8B
:10260000040A204600F070FA686890ED0D0AB5EEF5
:10261000C00AF1EE10FA04D2C0EE010A20EE820ADE
:1026200005E031EE400AC0EE010A20EEA10A206862
:10263000B1EE400A80ED050A204600F0FDF8606822
:1026400041F62621B0F90000081A00EE100A2068B1
:10265000B8EEC00A80ED020A204600F045FA206874
:102660000A2190ED020A174804F0F8FC206840F6B1
:10267000716180ED020AA068B0F90000884203DCB5
:1026800000F5C770404202E041F67161081A00EEA1
:10269000100A20680F21B8EEC00A80ED030A2068F6
:1026A00090ED030A0748843004F0D8FC206880EDE0
:1026B000030A70BD4C17002000F8FFC50000B443AA
:1026C00000F8FF454861002070B5254C2046D4F83D
:1026D000141204F505748847224D2846D5F81412C3
:1026E00005F5057588471F48AA681F49B43090470B
:1026F0001D491C481C31AA68703090471A49184877
:102700003831A268B4309047174915485431A2684F
:10271000703090471449AA687031144890471249A4
:1027200012488C31AA684438A5F5057590470E49C2
:10273000A268A8310E4890470B490D48C431A268E1
:102740004438A4F50574904707482038C0E901547F
:1027500000F010F8BDE8704003482038FFF764BE71
:10276000D41400208C120020741900205014002072
:10277000981600200268002182F82010006880F876
:102780002110704728490978002919D0274949782C
:1027900081B1012915D0022939D0032910D101684E
:1027A00091ED040A81ED000A016891ED050A81EDC1
:1027B000010A0221026882F82010006880F82110C6
:1027C00070470268012182F82010026882F8211007
:1027D000006890ED020AB5EEC00AF1EE10FA01DCD5
:1027E000B1EE400A10EE103A114A9342E8DA90ED49
:1027F000030AB5EEC00AF1EE10FA01DCB1EE400AB0
:1028000010EE100A9042DBDA0A4801707047026845
:10281000032182F82010026882F82110006890EDF0
:10282000030A80ED010A7047651A0020781A00201B
:10283000000070414C19002000681F4B1F4A90EDAA
:10284000010A10EE101A994202DD9FED1D0A05E003
:1028500010EE101A914201D99FED1A0A80ED010A7B
:1028600090ED050AB5EEC00AF1EE10FA02DDF0EEC9
:10287000400A01E0F1EE400A10EE901AB1F18B4FE0
:1028800017DDB5EEC00AF1EE10FA01DD012108E016
:10289000B5EEC00AF1EE10FA02D24FF0FF3100E0BF
:1028A0000021C1EB413100EE901AF8EEE00A30EE63
:1028B000600A80ED050A7047000061440000BEC355
:1028C000000061440000BEC310B5016884680122A5
:1028D00091ED011AD1ED070A91ED050AD4F83432D1
:1028E00004F5C07004F5E2719847BDEEC00A034AD2
:1028F000216A10EE100A22F8110010BD40000020DD
:1029000010B5846800680122D4F8343290ED011AC1
:10291000D0ED070A90ED030A04F1B40104F1700050
:102920009847BDEEC00A034A216A10EE100A22F849
:10293000110010BD400000202DE9F04104462DEDAE
:10294000028BB4EE000A00685F4E604F90F82020C2
:102950009FED5F8A5F4D7168052A25D2DFE802F09E
:10296000243003303400BA7812B1012A1CD111E0AE
:102970003168B1F9001000EE101AF8EEC00A9FEDB0
:10298000561A80EE810AD0ED000A30EE200A80ED62
:10299000000A03E0514A1278EAB12AE0204600F02A
:1029A000A3F826E0204688472068B2EE0E0A90F889
:1029B0002110052976D2DFE801F0821E213B640058
:1029C00080ED008A2169EDE72A68127D1AB1AA68B4
:1029D0009278012A08D0D0ED000A91ED031A41EE59
:1029E000000AC0ED000AD9E7E96891ED000A80ED20
:1029F000000AA169D6E780ED018A2EE0B97811B10D
:102A000001295CD144E031689FED351AB1F902101B
:102A100000EE101AB8EEC00AC0EE010A90ED010AED
:102A200030EE800A80ED010A2046FFF705FF3FE007
:102A3000B978A1B1012942D17168B3EE041AD1ED80
:102A4000040A80EE810AD0ED010A30EEC00A00BF10
:102A500080ED010A2046FFF7EFFE616929E0316849
:102A60009FED201AB1F9021000EE101AB8EEC00A5C
:102A7000C0EE010A90ED010AB6EE001A00EE810ADE
:102A8000E6E72968097D19B1A968897801290AD082
:102A90007168D1ED040A80EE801A90ED010A30EEE3
:102AA000410ABFE70BE0E96891ED010A80ED010AF8
:102AB000E1692046BDEC028BBDE8F0410847BDEC62
:102AC000028BBDE8F081000030180020781A002049
:102AD00000000000801A00200000C8425A1A00209E
:102AE0000000484300003443006890ED000AB5EE52
:102AF000C00AF1EE10FA02DDF0EE400A01E0F1EE5C
:102B0000400A10EE903A4FF08B424FF0FF31934263
:102B100016DDB5EEC00AF1EE10FA01DD012307E083
:102B2000B5EEC00AF1EE10FA01D20B4600E0002328
:102B3000C3EB433300EE903AF8EEE00A30EE600A61
:102B400080ED000A90ED020AB5EEC00AF1EE10FA2F
:102B500002DDF0EE400A01E0F1EE400A10EE903A9C
:102B6000934216DDB5EEC00AF1EE10FA01DD012345
:102B700007E0B5EEC00AF1EE10FA01D20B4600E014
:102B80000023C3EB433300EE903AF8EEE00A30EE58
:102B9000600A80ED020A90ED040AB5EEC00AF1EE7B
:102BA00010FA02DDF0EE400A01E0F1EE400A10EE0C
:102BB000903A934214DDB5EEC00AF1EE10FA01DD51
:102BC000012105E0B5EEC00AF1EE10FA00D30021B4
:102BD000C1EB413100EE901AF8EEE00A30EE600AE7
:102BE00080ED040A7047000010B5D0E900140122FE
:102BF00091ED001AD1ED060A91ED040AD4F83432B1
:102C000004F5C07004F5E2719847BDEEC00A034AAE
:102C1000216A10EE100A22F8110010BD38000020C1
:102C200010B511C8012290ED001AD0ED060A90ED02
:102C3000020AD4F8343204F1B40104F17000984768
:102C4000BDEEC00A034A216A10EE100A22F81100F4
:102C500010BD00003800002090F82020012A07D085
:102C6000022A05D0416A41F4802141620120704767
:102C7000006842690A43426100207047F0B590F84D
:102C800020500468A468012D05D0022D03D0416AAC
:102C900041F4802153E014F0406F01D1E5004BD5A1
:102CA000C4F30164022C03D9416A41F4000146E0F7
:102CB0000125A5401D608D684FF4C0739DB1CE689D
:102CC00035434E6845EAC605066803EB0417F5511F
:102CD0004FF4C275076805EB04150E697E51097D36
:102CE000012905D009E00E88CD6845EA4655EBE795
:102CF00001684E5946F480764E511179D2F805504C
:102D00004FF4C67641EA0525016806EB04168D519D
:102D10001178D2F801204FF4C47541EA022102680B
:102D200005EB04155151006803EB0411425842F0C1
:102D3000010242500020F0BD416A41F4001141629D
:102D40000120F0BD10B590F82020012A07D0022AFA
:102D500005D0416A41F480214162012010BD3B4809
:102D6000D0F8002242F00102C0F80022D0F8002280
:102D700022F47C52C0F80022D0F800224B6A42EACA
:102D80000322C0F800220A7D02F01F0301229A40AC
:102D9000D0F81C329343C0F81C32CB69B3B9D0F8D9
:102DA0000C329343C0F80C328C894B6864F31F4398
:102DB0004C6900EBC404C4F840320C890B6864F31E
:102DC0001F434C6900EBC404C4F84432CB69012BA7
:102DD00016D1D0F80C321343C0F80C320C884B6873
:102DE00064F31F434C6900EBC404C4F840320C89FF
:102DF000CB6864F31F434C6900EBC404C4F844324D
:102E00008B69002BD0F804320ED01343C0F8043283
:102E10000B69002BD0F8143208D01343C0F81432D9
:102E2000096A012904D008E09343EFE79343F5E7EB
:102E3000D0F81C121143C0F81C12D0F8001221F077
:102E40000101C0F80012002010BD00000064004025
:102E5000704730B590F82040012C05D0022C03D0EB
:102E6000416A41F480215DE00468002955D024695D
:102E7000A40754D04FF4D874056804EB01142D59FD
:102E800015F00405956005682D594ED0ED08556084
:102E900005682C5904F00204D4604FF4DA74056814
:102EA00004EB01142D5905F00F05156105682D5926
:102EB000C5F30725956105682C59240C54614FF41E
:102EC000DC72046802EB0112A4581C700468A45858
:102ED000240A5C700468A458240C9C700468A258EE
:102EE000120EDA704FF4DE72046802EB0112A4587D
:102EF0001C710468A458240A5C710468A458240C4A
:102F00009C710468A258120EDA71006881B10169DF
:102F100041F020010161002030BDE468A8E7416A6A
:102F200041F400114162012030BD6D0D1560AFE725
:102F3000C16841F02001C160EDE72DE9F05F054671
:102F4000006800244669D0F804908768D0F80CB077
:102F5000D0F810A0D0F81880F10748D0F90714D0A5
:102F600001218160B80703D5284600F050FA0CE033
:102F7000780702D54FF4006407E0380702D54FF414
:102F8000805402E0284600F041FAF80516D5296879
:102F90004FF480708860B80503D5284600F039FAF0
:102FA0000CE0780502D544F4005407E0380502D55A
:102FB00044F4804402E0284600F02AFAF80316D5CB
:102FC00029684FF480308860B80303D5284600F0A4
:102FD00022FA0CE0780302D544F4004407E03803F9
:102FE00002D544F4803402E0284600F013FA30079A
:102FF00007D55FEACB6004D52968102044F400743B
:10300000C86070074FF0080707D55FEA0B7004D55A
:103010002868C760284600F099F9B00706D52868E7
:10302000C068800702D0284600F092F9700607D5E4
:103030005FEACA6004D52968102044F480640861FE
:10304000B00607D55FEA0A7004D5286807612846EC
:1030500000F0ACF9F00606D528680069800702D0B8
:10306000284600F0A4F9B00308D55FEAC96005D589
:10307000296810204860284600F09AF9F00307D527
:103080005FEA097004D528684760284600F0C4F953
:10309000300446D55FEA497040D5F00504D55FEAB3
:1030A000C87001D044F00104B00504D55FEA88700F
:1030B00001D544F00204700504D55FEA487001D5DB
:1030C00044F00404300529D518F0700F26D008F01C
:1030D0007000402815D006DC102809D020280AD01E
:1030E000302816D10AE050280ED0602811D10EE009
:1030F00044F008040DE044F010040AE044F0200419
:1031000007E044F0400404E044F0800401E044F4AB
:1031100080742868816921F0700181612968042028
:103120004860002C05D0686A204368622846FFF793
:103130008FFEBDE8F09F70B5040003D094F8200026
:1031400010B104E0012070BD204600F081F8206835
:10315000016841F00101016000F03CFC05460526D4
:1031600004E000F037FC401B0A2811D820684068B2
:10317000C007F6D02068016821F00201016000F06C
:1031800029FC05460BE000F025FC401B0A2806D967
:10319000606A40F40030606284F82060D2E7206802
:1031A00040688007EFD4207E0128206801683DD068
:1031B00021F080010160607E01282068016838D01C
:1031C00021F040010160A07E01282068016833D011
:1031D00021F020010160E07E0128206801682ED0E6
:1031E00041F010010160207F01282068016829D08A
:1031F00021F008010160607F01282068016824D067
:1032000021F004010160D4E902010843D4E9041269
:10321000114308436168491E08432168C8610020C2
:103220006062012084F82000002070BD41F0800120
:10323000C0E741F04001C5E741F02001CAE721F0B5
:103240001001CFE741F00801D4E741F00401D9E7CC
:10325000F0B587B0044614216846FDF75BF8364B9D
:103260003648DFF8D0E01968D4F800C0334A0325A7
:103270000226092710300024491CF44522D1196088
:10328000012907D1016841F000710160006800F078
:1032900000700590106840F0080010601068CDE9DB
:1032A000005600F00800CDE9047069462448CDE9D5
:1032B000024500F091FA00220521142000F016FCCE
:1032C000142032E0DFF87CE0F44530D1D0F800C0C3
:1032D0004CF0806CC0F800C0D0F800C001290CF0A0
:1032E000806CCDF814C0196007D1016841F00071FD
:1032F0000160006800F000700590106840F0020066
:103300001060106802AB00F0020005906020CDE96B
:10331000000683E8B00069460B4800F05DFA002221
:103320000521402000F0E2FB402000F0D1FB07B077
:10333000F0BD0000006400400C0000203038024066
:10334000000C02400068004000040240704700008A
:10335000134910B588420ED1124B00211C46A3F12F
:103360001C02FFF776FD0F4821461C380068BDE8B7
:103370001040FDF7F7BE0C4988420FD1094B0021E0
:1033800024331C46A3F11C02FFF763FD05482146C8
:1033900008300068BDE81040FDF7B2BF10BD000066
:1033A000C81D002024200020F01D00207047704719
:1033B0007047000070B5044690F82000012804D042
:1033C000606A40F40020606218E0022084F8200067
:1033D0002068016821F00101016000F0FBFA054658
:1033E0000EE000BF00F0F6FA401B0A2808D9606A18
:1033F00040F400306062052084F82000012070BD98
:1034000020684068C007EDD1606270BD70477047AA
:10341000704770477047704770472DE9F041044688
:10342000876D00F0D7FA064694F83500002502288B
:1034300006D08020606584F834500120BDE8F0811A
:103440002068016821F0160101602068416921F0BF
:1034500080014161206C08B9A06C20B1206801682E
:1034600021F0080101602068016821F0010101607C
:103470000CE000F0AFFA801B052807D9202060651A
:10348000032084F8350084F83450D7E720680068BA
:10349000C007EED194F85C103F208840B86001204E
:1034A00084F8350084F834500020C7E790F83510D0
:1034B000022903D08021416501207047052180F851
:1034C00035100068016821F001010160002070479B
:1034D0002DE9F84304464FF00009CDF80090634809
:1034E0004FF41651A56D0068B0FBF1F72E6894F803
:1034F0005C10082000FA01F131420FD021680A68FF
:1035000052070BD50A6822F004020A6094F85C1096
:103510008840A860606D40F00100606594F85C1020
:103520004FF0010808FA01F0304208D021684969DB
:10353000090604D5A860606D40F00200606594F84B
:103540005C1004208840304208D02168096889074F
:1035500004D5A860606D40F00400606594F85C10CC
:1035600010208840304218D021680968090714D516
:10357000A86020680168490304D50068000308D5E5
:10358000A16C07E00168C90503D4016821F00801B6
:103590000160216C09B12046884794F85C10202016
:1035A0008840304231D021680968C9062DD5A8600D
:1035B00094F8350005282068016806D0490347D5EE
:1035C000006800031DD4616C1CE021F0160101604D
:1035D0002068416921F080014161206C08B9A06C2C
:1035E00020B12068016821F00801016094F85C10A6
:1035F0003F208840A86084F8358084F83490216D9D
:103600001FE0E16B09B120468847606D00282BD090
:10361000606DC00714D0052084F83500206801686B
:1036200021F0010101600098401C0090B84203D8CD
:1036300020680068C007F6D184F8358084F834909B
:10364000E16C002910D001B02046BDE8F0430847E6
:103650000168C905D5D4016821F01001016084F822
:10366000358084F83490CCE7BDE8F8831C00002056
:103670002DE9F041044600F0ADF906465CB10220A8
:1036800084F83500002584F834502068016821F062
:10369000010101600DE00120BDE8F08100F09AF920
:1036A000801B052805D920206065032084F835009B
:1036B000F2E720680068C007F0D12268116820484E
:1036C0000140D4E901031843D4E9033633431843D6
:1036D00063691843A3691843E3691843236A1843CD
:1036E0000843616A042903D1D4E90B131943084341
:1036F000106020684069666A20F0070130460E437A
:10370000012704280CD1A06A0643E06A40B1204694
:10371000FEF732FD20B14020606584F83570BAE7CD
:10372000206846612046FEF713FD94F85C203F2197
:1037300091408160656584F835700020ACE7000039
:103740003F8010F02DE9F0410446866D90F834007A
:10375000002501280DD0012084F8340094F835703C
:103760000020012F07D084F8340002252846BDE848
:10377000F0810220FBE7022784F83570606520465F
:10378000FEF724FD94F85C103F208840B06020686C
:10379000016841F016010160206C20B120680168C9
:1037A00041F0080101602068016841F001010160F9
:1037B000DCE7000070B5044600F00CF90546601C1B
:1037C00002D004480078044400F004F9401BA042F1
:1037D000FAD370BD100000202DE9F84FDFF8BCA12E
:1037E000002201250AF1040B03264FF00F090BF10B
:1037F000040E00BF0B6805FA02F42340A34270D107
:103800000F7907F00307012F01D0022F16D1876827
:103810004FEA420806FA08FC27EA0C07D1F80CC068
:103820000CFA08FC4CEA070CC0F808C04768A7432C
:103830000C79C4F3001494403C4344600C79E44395
:10384000A4070AD0C4684FEA420C06FA0CF7BC433E
:103850008F6807FA0CF72743C7600C7904F003045C
:10386000022C12D1D40800EB840CDCF8204057075E
:10387000FF0E09FA07F824EA0804D1F8108008FAC4
:1038800007F848EA0408CCF8208004684FEA420CA4
:1038900006FA0CF7BC430F7907F0030707FA0CF799
:1038A000274307604C6814F4403F70D03C4C2768B5
:1038B00047F480472760246822F0030704F480441B
:1038C0000094384C07EB040CDCF8084897074FEAE3
:1038D000177809FA08F7BC43334FB84202D10027E2
:1038E00024E054E0314FB84201D101271EE0304FAF
:1038F000B84201D1022719E02E4FB84201D1032767
:1039000014E02D4FB84201D104270FE02B4FB842ED
:1039100001D105270AE02A4FB84201D1062705E068
:10392000284FB84201D1072700E0082707FA08F717
:103930002743CCF80878DAF800405746D1F804C09D
:103940009C435FEACC3C00D51C433C60DBF8004064
:103950005F46D1F804C09C435FEA8C3C00D51C4311
:103960003C60DEF800407746D1F804C09C435FEA33
:10397000CC2C00D51C433C60084F0C373C68D1F878
:1039800004C09C435FEA8C2C00D51C433C60521C55
:10399000102AFFF42FAFBDE8F88F0000003C014073
:1039A0004438024000300140000002400004024060
:1039B00000080240000C02400010024000140240C7
:1039C00000180240001C02400AB1816170470904DE
:1039D000FBE70000014880687047000010000020ED
:1039E000024881680278114481607047100000200D
:1039F0000B4810B5016841F400710160016841F4A1
:103A000080610160016841F480710160032000F071
:103A10008DF80F2000F006F800F03EF8002010BDF1
:103A2000003C024010B5014688B000221C2000F086
:103A30005DF81C2000F04CF814480024016841F0A7
:103A400001010160006805A900F0010006906846C8
:103A500000F02AF900F048F90D494000B0FBF1F1FF
:103A60000C484FF08042491E026040F2E732C0E944
:103A70000324C0E9011400F041FB10B1012008B09B
:103A800010BD044800F068FBF9E700004038024030
:103A900040420F00C01F00200C4882B0016841F472
:103AA00080410160006800F4804000900748001FDA
:103AB000016841F0805101600068002200F08050F0
:103AC00000900F21901E02B000F010B84438024060
:103AD000002809DB00F01F0201219140400980000D
:103AE00000F1E020C0F8001170470000F0B40E4B68
:103AF0001B680C46C3F30223C3F10705042D00D94C
:103B00000425191D072901D2002300E0DB1E012630
:103B100006FA05F1491E214099409E40761E164046
:103B20003143F0BC02F0C9B80CED00E0064900F0EA
:103B3000070208684FF6FF03184040EA0220034AD4
:103B400010430860704700000CED00E00000FA052B
:103B5000BFF34F8F05480168054A01F4E061114346
:103B60000160BFF34F8F00BFFDE700000CED00E0E8
:103B70000400FA052DE9F0470E46050065D0DFF890
:103B80001481D8F80000F7B200F00700B04207D265
:103B900088F80070D8F8000000F00700B04254D157
:103BA00028683D4C810712D5400703D5206840F4B2
:103BB000E05020602878000703D5206840F460407A
:103BC00020602068A96820F0F00008432060287871
:103BD000C0072DD0304968680839012812D0022862
:103BE00013D0032811D00968890700292DDA21682C
:103BF00021F0030101432160FFF7ECFE814641F211
:103C0000883A0EE009688903EFE709688901ECE763
:103C1000FFF7E0FEA0EB0901514502D90320BDE802
:103C2000F0872068696800F00C00B0EB810FEFD1DD
:103C3000D8F80010404601F00701B14207D90770DB
:103C4000006800F00700B04201D00120E7E72878C3
:103C5000400705D52068E96820F4E050084320605B
:103C60002878000706D52068296920F4604040EADA
:103C7000C100206000F058F82168084AC1F3031120
:103C8000515CC8400649086006480068FFF7CAFE54
:103C90000020C4E7003C0240083802402CD2000853
:103CA0001C000020140000200F2202600C4A136840
:103CB00003F003034360136803F0F00383601368A9
:103CC00003F4E053C36012684FF4E05303EAD202F6
:103CD00002610448006800F00700086070470000B7
:103CE00008380240003C0240044805490068096861
:103CF000044AC1F38221515CC84070471C00002077
:103D0000083802403CD200080448054900680968A8
:103D1000044AC1F34231515CC84070471C00002086
:103D2000083802403CD20008154810B5006810F071
:103D30000C02144813D01449042A0FD0082A0ED1BB
:103D40000F4C241F2268236802F03F025B0207D554
:103D50002068C0F38810A0FB010106E0084610BDF2
:103D60002168C1F38811A1FB00010023FCF788FA48
:103D70002168C1F30141491C4900B0FBF1F010BDBD
:103D8000083802400024F40040787D012DE9F84F06
:103D900004006ED02078DFF84C93C007A9F1040529
:103DA0004AD009F104000168C1F38101012908D05A
:103DB0000068C0F3810002280AD1D9F8000040024F
:103DC00006D52868800337D560680028E1D033E045
:103DD0006068B0F5803F10D0B0F5A02F286810D0F3
:103DE00020F480302860286820F4802028606068F3
:103DF000A8B1FFF7EFFD06460DE0286840F48030DB
:103E0000F4E740F480202860F7E700BFFFF7E2FD09
:103E1000801B642873D828688003F7D50CE0FFF76F
:103E2000D9FD064605E000BFFFF7D4FD801B6428DE
:103E3000F0D828688003F7D42078DFF8AC828007B8
:103E40004FF0000A3ED5A748001D016811F00C0F85
:103E500008D00068C0F3810002280BD1D9F8000017
:103E6000400207D42868800716D5E068012800D1F1
:103E700012E033E1E068B8B10120C8F80000FFF7B4
:103E8000A9FD064605E000BFFFF7A4FD801B022840
:103E9000C0D828688007F7D52868216920F0F80085
:103EA00040EAC10028600DE0C8F800A0FFF792FDCD
:103EB000064604E0FFF78EFD801B02281FD8286805
:103EC0008007F7D42078000722D5864F874861699C
:103ED000703771B101210160FFF77CFD064604E0F7
:103EE000FFF778FD801B022809D838688007F7D5CE
:103EF0000EE0C0F800A0FFF76DFD064605E082E089
:103F0000FFF768FD801B02287DD838688007F7D44A
:103F10002078400768D5DFF8CCB100270BF13C0BC7
:103F2000DBF80000C0000BD4DBF8001041F080513A
:103F3000CBF80010DBF80000012700F08050009063
:103F40006B4E3068C00510D4306840F4807030602B
:103F5000FFF740FD009005E0FFF73CFD0099401A97
:103F6000022850D83068C005F6D55E4EA0686C3681
:103F700001280FD00528306810D020F001003060F3
:103F8000306820F004003060A068B8B1FFF722FD6F
:103F900000900FE0306840F00100F4E740F00400CA
:103FA0003060F7E7FFF716FD0099411A41F28830BB
:103FB000814266D830688007F4D50EE0FFF70AFD2D
:103FC000009007E0FFF706FD0099411A41F28830A2
:103FD000814256D830688007F4D42FB1DBF8001046
:103FE00021F08051CBF80010A069C8B33D49091DEC
:103FF0000968C1F3810102294AD00228504607D03E
:10400000C8F8600000E03CE0FFF7E4FC04463BE059
:104010004746C8F86000FFF7DDFC064605E000BF34
:10402000FFF7D8FC801B02282BD828688001F7D422
:10403000D4E907010843A16A2E4A490802EB01416D
:10404000626A41EA8211084394F82C1040EA016147
:10405000C9F8001001203866FFF7BCFC044606E0F2
:104060003EE000BFFFF7B6FC001B022809D8286815
:104070008001F7D534E000BFFFF7ACFC001B02283D
:1040800002D90320BDE8F88F28688001F4D427E026
:104090000128F7D0D9F80000E26900F480019142CC
:1040A0001CD1226A00F03F01914217D147F6C0713E
:1040B000626A0140B1EB821F10D1A26A4FF0FF3358
:1040C00000F4403103EB5202B1EB024F06D194F8F9
:1040D0002C1000F07060B0EB016F01D00120D1E72F
:1040E0000020CFE70438024000004742800E4742DC
:1040F000007000400000FFFF7047704710B50400DB
:1041000003D094F83D0010B107E0012010BD00205D
:1041100084F83C00204600F01EF8022084F83D00A0
:10412000211D206801F01EFB012084F8460084F860
:104130003E0084F83F0084F8400084F8410084F891
:10414000420084F8430084F8440084F8450084F871
:104150003D00002010BD704790F83D10012901D0AE
:1041600001207047022180F83D100168CA6842F0C2
:104170000102CA6000681149884214D0B0F1804F32
:1041800011D00F4988420ED00E4988420BD00E49FB
:10419000884208D00D49884205D00D49884202D096
:1041A0000C49884204D1816801F00701062903D037
:1041B000016841F0010101600020704700000140EA
:1041C0000004004000080040000C004000040140D2
:1041D0000040014000180040704770B50446006878
:1041E00001694FF00005C943890715D4C168C94367
:1041F000890711D4E91E01610120207720688069B8
:104200008007204602D0FFF7E7FF04E000F098F8AF
:10421000204600F096F8257720680169C9434907D0
:1042200017D4C168C943490713D46FF00401016171
:10423000022020772068806910F4407F204602D059
:10424000FFF7CAFF04E000F07BF8204600F079F8A1
:10425000257720680169C943090716D4C168C94395
:10426000090712D46FF0080101610420207720684B
:10427000C0698007204602D0FFF7AEFF04E000F0DF
:104280005FF8204600F05DF8257720680169C94392
:10429000C90617D4C168C943C90613D46FF0100109
:1042A0000161082020772068C06910F4407F204613
:1042B00002D0FFF791FF04E000F042F8204600F042
:1042C00040F8257720680169C943C90708D1C1684A
:1042D000C943C90704D1891E0161204600F032F8A4
:1042E00020680169C943090609D4C168C9430906A0
:1042F00005D46FF0800101612046FFF7FDFE2068C4
:104300000169C943490609D4C168C943490605D4AE
:104310006FF040010161204600F01BF82068016940
:10432000C94389060BD4C168C943890607D46FF015
:10433000200101612046BDE87040FFF7DEBE70BD80
:10434000704770470068B0F1804F01D1FFF748BB5C
:104350007047704770477047F8B5016804460868B1
:10436000CA684B6910F00F0F4FF000055AD003F0E8
:10437000010602F49077374365D0C10705D0D10517
:1043800003D5216C41F001012164410705D5D9070E
:1043900003D0216C41F002012164810705D5D907C2
:1043A00003D0216C41F004012164010707D502F01C
:1043B0002001314303D0216C41F008012164216CBC
:1043C00000293BD0800604D5900602D5204601F096
:1043D000B5FA20684069216CC0F3801001F0080133
:1043E000014320462BD001F074FA20684069400652
:1043F00021D52068143050E8001F21F0400140E82A
:104400000012002AF5D1A06BA8B16C490165A06B20
:10441000FFF74CF8002811D0A06B016D01B0BDE88A
:10442000F040084783060ED593060CD52046BDE81C
:10443000F84001F083BA2046FFF78DFFF8BDFFF783
:104440008AFF2564F8BD266B2023012E79D1C6068C
:1044500077D5D60675D50868486800904869400643
:1044600040D5A16B086840680004000CEAD0A28D1A
:104470008242E7D9E085C869B0F5807F2DD02068F9
:104480000C3050E8001F21F4807140E80012002A2F
:10449000F5D12068143050E8001F21F0010140E8F8
:1044A0000012002AF5D12068143050E8001F21F0D6
:1044B000400140E80012002AF5D184F83E3025631F
:1044C00020680C3050E8001F21F0100140E8001275
:1044D000002AF5D1A06BFEF7A0FFA08DE18D401A58
:1044E00081B229E0A08DE18D401A81B2E08D0028D3
:1044F000A8D00029A6D020680C3050E8002F22F464
:10450000907240E80026002EF5D12068143050E863
:10451000002F22F0010240E80026002EF5D184F899
:104520003E30256320680C3050E8002F22F0100246
:1045300040E80023002BF5D12046FFF70BFFF8BD24
:10454000FFE705062BD5150629D594F83D0021284F
:10455000F5D1A068B0F5805F01D12069B0B1206AC3
:10456000411C2162216800784860E08C401E0004F4
:10457000000CE084E3D12068C16821F08001C160B3
:104580002068C16841F04001C160D8E7206A008816
:10459000C0F308004860206A801C2062E5E74006FE
:1045A000CDD55006CBD5CA68204622F04002CA605D
:1045B00084F83D3000F038F9C1E700002D580008BC
:1045C00070B5040004D094F83D00002510B106E059
:1045D000012070BD84F83C50204600F023F82420D0
:1045E00084F83D002068C16821F40051C160204674
:1045F00001F004FA2068016921F49041016120680A
:10460000416921F02A0141612068C16841F40051EB
:10461000C1602564202084F83D0084F83E0000201D
:1046200070BD00002DE9F04786B0064614216846AB
:10463000FBF770FE52495248DFF84081D6F800C0BF
:10464000103802220323072500244F054FF4807AF7
:104650004FF48069C44535D1D1F800C04CF4003C1A
:10466000C1F800C0096801F400310591016841F00A
:10467000010101600068694600F0010005900C200E
:104680008DE81500CDE903353E48FFF7A5F83F4D0D
:104690003D482860C5E90174C5E903496C61C5E975
:1046A000064A2C6228466C62FEF7E2FF08B1FDF76D
:1046B000DAFDB563002205212620AE63FFF716FA66
:1046C000262056E0DFF8C880C44554D1D1F800C098
:1046D0004CF4802CC1F800C0096801F480210591D8
:1046E000016841F0020101600068694600F00200C3
:1046F00005904FF440608DE81500CDE9033525485D
:10470000FFF76AF8214D2048603560382860C5E918
:104710000174C5E903496C61B846C5E9064A4F46CC
:104720004FF40039C5E908942846FEF7A1FF08B107
:10473000FDF799FDB563AE63144D1348C0353038AD
:10474000E5E80208402091C5104845F81449C030FA
:10475000AC61C5E907496C62FEF78AFF08B1FDF755
:1047600082FD7563002205212720AE63FFF7BEF9A5
:104770002720FFF7ADF906B0BDE8F0870044004000
:10478000403802400000024088600240A01E002025
:1047900000480040000402407047000070B5044625
:1047A00090F83D00202836D191B38AB394F83C00AC
:1047B000012830D0012084F83C002162A284E284E8
:1047C00000252564212084F83D00636B1348D863DD
:1047D000636B13481864636B1248D864606B1346AC
:1047E00005652668606B321DFEF7ACFF21686FF02F
:1047F0004000086084F83C502068143050E8001FE6
:1048000041F0800140E80012002AF5D1002070BD7F
:10481000FFE70120FBE70220F9E7000087580008C6
:10482000C95800083D58000870477047FEE700006F
:1048300070B50D4C0025C4F8B4520C48016821F045
:1048400040410160016841F080410160C4F8BC5200
:10485000022004F52D7403F0A9FC01202060022041
:1048600003F0A4FC256070BD0080404200040240BB
:1048700070B50D4C0025C4F8B4520C48016821F005
:1048800040410160016841F0804101600126C4F8A7
:10489000BC62022004F52D7403F088FC266002201F
:1048A00003F084FC256070BD00804042000402409B
:1048B0002DE9F047814616480024016821F0404167
:1048C000016001680160134E254627464FF001083C
:1048D000C6F8B472022003F069FCC6F8B482600620
:1048E000040ED6F83C0208B1641CE4B2012003F0C7
:1048F0005DFC6D1CEDB2082DEAD3B9F1000F04D0B8
:10490000FFF796FF2046BDE8F087FFF7B1FFF9E714
:1049100000040240008040422DE9F0410646144860
:10492000016821F040410160016841F0804101606F
:10493000104C0027C4F8B4723D464FF00108F0094E
:10494000C4F8BC027006060E022003F02FFCC4F867
:10495000B482022003F02AFCC4F8B472022003F0EF
:1049600025FC6D1CEDB2082DE9D3BDE8F0810000F7
:10497000000402400080404270B50D48016821F0FB
:1049800040410160016841F080410160094C012013
:10499000C4F8BC02C4F8B402042004F52D7403F07A
:1049A00005FC0025A560042003F000FC256070BD17
:1049B00000040240008040420E4810B5016821F01A
:1049C00040410160016841F0804101600A4C0020D3
:1049D000C4F8B402C4F8BC02042004F52D7403F03A
:1049E000E5FB01202060A060BDE81040042003F03A
:1049F000DDBB0000000402400080404270B5124858
:104A00000024016821F040410160016801600F4D00
:104A10000126C5F8BC62304603F0C8FBC5F8B46295
:104A2000012003F0C3FB07E0641CE4B2FA2C03D9B5
:104A3000FFF7C2FF012070BDD5F83C020028F3D17A
:104A4000C5F8B40270BD000000040240008040427E
:104A50000B48006890F8690002280ED2DFE800F0E9
:104A60000D01084A0848D169006911F0010305D019
:104A70000BB100234373491CD16170470123F9E74F
:104A800030180020541A0020801A002006480068C0
:104A900090F88100022805D2DFE800F00401034904
:104AA000012008737047000030180020541A0020BD
:104AB0000648006890F83300022805D2DFE800F0CD
:104AC000040103490120487170470000301800209C
:104AD000541A00200648006890F85100022805D2B8
:104AE000DFE800F0040103490120887070470000EE
:104AF00030180020541A002070B5194819490022B6
:104B000000688C680123C57E17480968052D12D2FC
:104B1000DFE805F01203121114008372C379002B31
:104B200009D04B7D022B06D1897D022903D0A178C3
:104B3000012900D1827270BD43730AE0C57945B185
:104B4000A478012C05D14C7D022C02D1897D02294B
:104B500001D0C27270BDC3728169491C816170BD90
:104B600030180020801A0020541A00200A48002122
:104B70000122006890F821300848012B05D0022B53
:104B800006D0032B01D0042B01D1C27101727047F2
:104B90000272C1717047000030180020541A0020C2
:104BA0000648006890F82700022805D2DFE800F0E8
:104BB00004010349012008717047000030180020EB
:104BC000541A00200B48006890F8390002280ED2D1
:104BD000DFE800F00D01084A0848116A006811F08A
:104BE000010305D00BB10023C375491C1162704746
:104BF0000123F9E730180020541A0020801A002001
:104C0000094810B500680022012190F87B30074860
:104C1000052B05D2DFE803F0030503050500C2708C
:104C200010BDC17010BD000030180020541A0020C3
:104C300010B50446FFF760FF2046FFF797FF2046B8
:104C4000FFF7AEFF2046FFF733FF2046FFF742FF96
:104C50002046FFF7B7FF2046FFF7FAFE204600F098
:104C600009F82046FFF7CCFF2046BDE81040FFF7CB
:104C70000DBF00000749096891F86F10022908D29A
:104C8000DFE801F007014078032802D10249012042
:104C90008871704730180020541A002010B504693C
:104CA0000068D4F8301290ED030A2046B1EE400AB5
:104CB0008847BDEEC00A034A216A10EE100A22F8A6
:104CC000110010BD4000002070B50546FFF754FEEE
:104CD0000F4C20784006000EFFF71EFEFFF78EFEF9
:104CE0002846FFF719FEFFF789FEFFF745FE2078FB
:104CF000012101EB4000C0B2FFF70EFEFFF77EFE80
:104D00000020FFF7D5FD0446FFF756FE204670BD94
:104D10004C1B00202DE9F04116460D460746FFF7D3
:104D20002BFE134C20784006000EFFF7F5FDFFF731
:104D300065FE3846FFF7F0FDFFF760FEFFF71CFE4B
:104D40002078012101EB4000C0B2FFF7E5FDFFF73D
:104D500055FE002406E00120FFF7AAFD641C05F8BB
:104D6000010BE4B2B442F6D3BDE8F041FFF724BE34
:104D70004C1B0020104810B50E4901600321416012
:104D800000214FF400228160C0E903124FF4401269
:104D900042610176012242768276C17601774277BE
:104DA000FEF7C9F9002803D0BDE81040FDF75BBA53
:104DB00010BD000000640040C81D0020104810B560
:104DC0000E4901600321416000214FF400228160FF
:104DD000C0E903124FF4401242610176012242768B
:104DE0008276C17601774277FEF7A5F9002803D0D5
:104DF000BDE81040FDF737BA10BD00000068004064
:104E0000F01D0020114808B5016841F4001101604F
:104E10000068002200F40010009005210C20FEF72D
:104E200065FE0C20FEF754FE002205210E20FEF741
:104E30005DFE0E20FEF74CFE002205211020FEF73D
:104E400055FEBDE808401020FEF742BE3038024053
:104E500010B596B01C2211496846FBF742FA0021B2
:104E6000684605F013F80E4C0C491C2220601C31DA
:104E700007A8FBF736FA002107A805F007F807494D
:104E800060601C2238310EA8FBF72BFA00210EA817
:104E900004F0FCFFA06016B010BD0000D0D10008E7
:104EA000000000202DE9F04186B014216846FBF790
:104EB00031FA23480025016841F080010160016852
:104EC00001F080010591016841F001010160016874
:104ED00001F001010591016841F0020101600168E2
:104EE00001F002010591016841F0080101600068CC
:104EF000144F00F008004FF4204405900122214691
:104F00003846FEF761FD0122DFF83C80560231464B
:104F10004046FEF759FD0320CDE9025000940124DC
:104F2000694601943846FEF757FCCDE900646946AE
:104F30004046CDE90245FEF74FFC06B0BDE8F081E2
:104F40003038024000040240000C02400D4810B509
:104F50000B4901600C49416000214FF4806281607F
:104F6000C0E903120C22C0E90521C161FFF728FB4B
:104F7000002803D0BDE81040FDF775B910BD000052
:104F800000440040181E0020A08601000C4810B507
:104F90000A4901604FF4E1314160002181600C2237
:104FA000C160C0E904128161C161FFF709FB0028FB
:104FB00003D0BDE81040FDF756B910BD00480040D1
:104FC0005C1E0020FEE7FEE710B5C4680068D4F858
:104FD000301290ED040A20468847BDEEC00A034A0D
:104FE000216A10EE100A22F8110010BD30000020D6
:104FF00070B50B480026012500680A4C807A01280C
:1050000006D0022809D0032801D12573657270BD2E
:1050100004F066FC6061A57200E06573667270BDA5
:1050200030180020541A002030B50F490123032402
:1050300009680E4A4D7B0021012D06D0022D0DD0AE
:10504000032D01D18170047030BD0470547A1CB1FD
:105050008170D371117230BD837030BD8170D17198
:1050600013720221017030BD30180020541A002044
:1050700010B50446FFF7BCFF2046BDE8104000F025
:1050800001B800000C490D4A09688B7C0121012BF5
:105090000AD0022B07D0032B05D10078022802D0BA
:1050A000032800D15170704700780228FBD00328F4
:1050B000F9D111707047000030180020541A0020F8
:1050C00010B544690068D4F8301290ED030A204608
:1050D0008847BDEEC00A034A216A10EE100A22F882
:1050E000110010BD4000002070B58EB006460025AE
:1050F00002468DF800500121684602F01FF902F0C7
:1051000031F832460121042002F0D8FB044602F0B7
:1051100029F884B90C208DF8020002208DF80300D4
:1051200001208DF805508DF804000146324668468E
:1051300002F0CEFC04460EB0204670BD70B58EB0B5
:105140000124064602468DF800402146684602F0DA
:10515000F5F802F007F832460221042002F0AEFB17
:10516000054601F0FFFF95B90C208DF802000020E4
:105170008DF8060002208DF803008DF807408DF8A9
:10518000044032460121684602F0A2FC05460EB0FA
:10519000284670BD06490020087006490870064977
:1051A000087006490870064908700649087070477B
:1051B0005E1A0020601A0020611A0020621A002086
:1051C000631A0020641A002010B401681E4A09689E
:1051D0001378032203B10A711C4B1B7803B10A71C7
:1051E0001B4A1378002203B10A711A4B1B780BB1CA
:1051F00002230B71184B1C78012304B10B71174C5F
:1052000024780CB10C682271154A12780AB1096829
:105210000B71144A51688B781349012B05D04968EA
:1052200041F28830888010BC70471268938A0A2B3C
:1052300002D041F2045201E04FF4616249688A8071
:1052400010BC00F023B900005E1A00205F1A002095
:10525000601A0020611A0020621A0020631A0020E0
:10526000641A0020AC1A0020C81800202DE9F0476D
:1052700002680446DFF8D89110680427022690F8E7
:1052800005C0012399F800509FED720A0021BCF17E
:10529000050F52D2DFE80CF003529312C40082EDE6
:1052A000030A206880ED040A206800688171206884
:1052B00000684771206800680068B8E02569E87DEB
:1052C00001281BD16069C67D012E17D1B5F9026096
:1052D00040F6B63506F2DB56AE420FD9B0F9020001
:1052E00000F2DB50A84209D96068C088404200EE55
:1052F000900AF8EEE00AC2ED040A01E082ED040A29
:10530000206802681089401C80B21081D4E9002511
:105310002D89A8420CD382ED040A206865680068D4
:105320002D890289AA4203D3018120680068437154
:10533000206800680279002A7BD07EE0606880885F
:1053400000EE100AB8EE400A82ED030A20680068F9
:1053500000680171206990ED0C0AB5EEC00AF1EE0B
:1053600010FA01DCB1EE400A2068DFED3B0A90ED57
:10537000031A71EE600AB4EEE00AF1EE10FA16DBE1
:10538000626992ED0C0AB5EEC00AF1EE10FA01DC8A
:10539000B1EE400AB4EEE00AF1EE10FA07DB006865
:1053A0008371206800684771206800680181206867
:1053B0000068027982BB4171206800682BE00279A5
:1053C0005AB3012A02D0032A37D101E0437134E0F5
:1053D0008279012AFAD102685279022AF6D11F4B4A
:1053E0001A6856891289643A964226DC1C4A0326BA
:1053F00012789AB11B4A57887F1C57801A4F3F6812
:105400007F7D012F0AD02DB1467189F800101088D8
:10541000401C1080186801810FE00AE04671F9E72E
:10542000027932B1022A02D0032A06D103E0467182
:1054300003E0417101E0002DF9D1216A204688473F
:10544000616A204688472046E169BDE8F047084781
:105450005F1A0020000000000000FA43AC1A002090
:105460005B1A002038180020801A002000B503467F
:10547000FCF7AAFF19680020096848711A68022120
:105480001268117119680968887100BD2849096896
:1054900091ED060A898A0A2948D0102946D110EED2
:1054A000101A244A244B0A4441F204519A4201D86A
:1054B00040683AE010EE102A204B9A4202D141F2A5
:1054C000F041F5E710EE102A1D4B9A4202D141F24D
:1054D0001851EDE710EE102A184BDFED1A1ADB43D6
:1054E0001A44154BDFED180A5B1EB2EE0E1A9A42F3
:1054F00004D830EE410A40EE610A0AE010EE102AAC
:10550000124B1A44124B9A42D2D231EE400A40EE6C
:10551000210A4268BCEEE00A10EE101A9180406841
:1055200041F2365182888A4200D381807047000060
:10553000AC1A0020CDCC94BE9A99090066667641DB
:105540009A996941000061440020A8450000B0BE5E
:105550009A991900094810B5D0F8181288470848D8
:10556000D0F8181288470748D0F81812884706481C
:10557000D0F81812BDE81040084700004C00002089
:1055800094020020DC040020240700202DE9F041D3
:105590001F4C2046D4F8141288471E4D2846D5F8D3
:1055A000141288471C4E3046D6F8141288471B4FF9
:1055B0003846D7F814128847D4F81C22184904F545
:1055C0009E7090471649D4F81C221C3104F1F80053
:1055D00090471349D6F81C22543106F12C0090470D
:1055E0000F49D7F81C22703107F12C0090470C4965
:1055F000D5F81C22383105F12C009047084894302A
:1056000080E8F000BDE8F0410838FFF72FBF000048
:105610004C00002094020020DC040020240700201D
:105620003C18002010B51448FFF7CEFD1248FFF7D4
:105630001DFE114840F6B6320169B1F9023003F29D
:10564000DB53934213D94369B3F9024004F2DB54AC
:1056500094420CD9C068C07D012808D1C87D0128BA
:1056600005D1D87D012802D10348FCF725FEBDE80D
:1056700010400148FFF78EBDC8180020012004F03B
:10568000F9FBFBE710B5502080F31188BFF34F8F73
:10569000BFF36F8F07F0D4FC18B104494FF080506E
:1056A0000860002080F3118810BD000004ED00E0C8
:1056B00030B593B030216846FAF72CFE14210CA8BF
:1056C000FAF728FE1E480025016841F0805101606C
:1056D000006800F0805011901A48016841F4804140
:1056E00001600068022400F48040119001200090C5
:1056F000000401908001CDE90640192008904FF484
:10570000A870CDE9090404200B906846FEF73EFB23
:1057100008B172B6FEE70CA90F2081E831004FF402
:10572000A0500F904FF48050109005210CA8FEF768
:1057300021FA002801D072B6FEE713B030BD000098
:1057400040380240007000400248016841F4700196
:105750000160704788ED00E00148FEF73EBD0000A3
:10576000C01F0020F0B50268254C264D264E274F5D
:10577000274B4FF0804CA04209D0604507D0A8428B
:1057800005D0B04203D0B84201D0984204D122F0F3
:10579000700E4A6842EA0E02A0421BD0604519D042
:1057A000A84217D0B04215D0B84213D0984211D0B9
:1057B000184DA8420ED0184DA8420BD0174DA84244
:1057C00008D0174DA84205D0164DA84202D0164D5C
:1057D000A84203D122F44075CA682A434D6922F0D9
:1057E00080022A4302608A68C2620A688262A0421A
:1057F00001D0984201D10969016301214161F0BDE5
:10580000000001400004004000080040000C00407F
:1058100000040140004001400044014000480140B4
:1058200000180040001C00400020004010B5806BB4
:105830000021C185C184FEF78EFD10BD70B5846B5B
:105840002068406994F83D10C0F3C010002521295C
:1058500004D118B1E584204600F062F82068406960
:1058600094F83E10C0F38010222904D118B1E585C8
:10587000204600F02EF8206C40F0100020642046F6
:10588000FEF769FD70BD10B50146806B09680968B7
:10589000C90516D40021C1840168143151E8002FD4
:1058A00022F0800241E80023002BF5D101680C3181
:1058B00051E8002F42F0400241E80023002BF5D1CF
:1058C00010BDFEF7B1FF10BD10B5806BFEF7ADFF48
:1058D00010BD01680C3151E8002F22F4907241E8AC
:1058E0000023002BF5D10168143151E8002F22F07C
:1058F000010241E80023002BF5D1016B012909D1F8
:1059000001680C3151E8002F22F0100241E8002319
:10591000002BF5D1202180F83E1000210163704753
:1059200001680C3151E8002F22F0C00241E8002349
:10593000002BF5D1202180F83D10704708B590F874
:105940003E10222901D0022008BD82684FF4805306
:105950009A4201D1016921B1816A9A421BD04AB1B0
:105960000AE00268816A5268C2F308020A80816A0A
:10597000891C08E0026972B10268526802F07F0275
:105980000A70816A491C8162C18D491E0904090C93
:10599000C18503D019E002685268F1E70168CA685E
:1059A00022F02002CA600168CA6822F48072CA60CC
:1059B00001684A6922F001024A61202180F83E1004
:1059C000016B012903D0FEF7E7FE002008BD00218E
:1059D000016301680C3151E8002F22F0100241E808
:1059E0000023002BF5D101680A68D20602D50A68A7
:1059F00049680091818DFEF7ADFCE6E770B504467D
:105A000000680169E26821F4405111430161216994
:105A1000A068E26908436169114308432168CA68C4
:105A200049F20C639A430243CA6020684169A26943
:105A300021F440711143416131492068884202D00C
:105A40003049884202D1FEF75FF901E0FEF74CF9D8
:105A5000E2690023192164253226B2F5004F6268FD
:105A600028D0A0FB0101930F9200FAF709FC014630
:105A7000B0FBF5F06FF01802504301EB800006EB2D
:105A80000010B0FBF5F000F0F002B1FBF5F002EB16
:105A90000012B1FBF5F06FF01803584301EB8000E2
:105AA00006EB0010B0FBF5F000F00F002168104489
:105AB000886070BDA0FB010192185B41FAF7E0FB22
:105AC0000146B0FBF5F00201B1FBF5F06FF01803F1
:105AD000584301EB800006EBC000B0FBF5F000F08E
