:020000040800F2
:100000001054002029030008DF2C0008D129000823
:10001000DD2C0008D9060008ED3A000800000000B9
:10002000000000000000000000000000690200085D
:10003000970B000800000000C5020008E92C00082A
:100040004303000843030008430300084303000878
:100050004303000843030008430300084303000868
:10006000430300084303000843030008E5070008B2
:10007000F1070008FD0700084303000843030008D8
:10008000090800084303000843030008430300086D
:100090003507000843030008430300084303000832
:1000A0004303000843030008430300084303000818
:1000B000C12D000843030008430300084303000860
:1000C00043030008430300084303000843030008F8
:1000D000430300085D390008B1390008093A0008F7
:1000E00043030008430300084303000843030008D8
:1000F00043030008430300084303000815080008F1
:1001000043030008430300084303000843030008B7
:10011000952E0008AD2E0008430300084303000895
:1001200043030008430300082108000843030008B4
:100130004303000843030008430300084303000887
:100140007507000843030008430300084303000841
:1001500043030008430300082D0800084303000878
:100160004303000843030008430300084303000857
:100170004303000843030008430300080000000095
:10018000430300084303000800F002F800F05CF8A5
:100190000AA090E8000C82448344AAF10107DA45E2
:1001A00001D100F051F8AFF2090EBAE80F0013F0D8
:1001B000010F18BFFB1A43F00103184780510000DC
:1001C000A05100000A444FF0000C10F8013B13F05E
:1001D000070408BF10F8014B1D1108BF10F8015BA0
:1001E000641E05D010F8016B641E01F8016BF9D193
:1001F00013F0080F1EBF10F8014BAD1C0C1B09D1EA
:100200006D1E58BF01F801CBFAD505E014F8016B5B
:1002100001F8016B6D1EF9D59142D6D370470000ED
:100220000023002400250026103A28BF78C1FBD8FF
:10023000520728BF30C148BF0B6070471FB504F09C
:10024000BFFE1FBD10B510BD00F0E7F91146FFF766
:10025000F5FF03F0F9FF00F005FA03B4FFF7F2FF32
:1002600003BC00F00DFA00002C4B19680868B0E8D8
:10027000F04F80F30988BFF36F8F4FF0000080F3D9
:10028000118870470000000008480068006880F38B
:1002900008884FF0000080F3148862B661B6BFF39F
:1002A0004F8FBFF36F8F00DF00BF00BF08ED00E08E
:1002B000DFF80C00016841F470010160704700BF75
:1002C00088ED00E0EFF30980BFF36F8F134B1A68DE
:1002D0001EF0100F08BF20ED108A20E9F04F1060CB
:1002E00009B44FF0500080F31188BFF34F8FBFF374
:1002F0006F8F04F09DFC4FF0000080F3118809BC63
:1003000019680868B0E8F04F1EF0100F08BFB0EC95
:10031000108A80F30988BFF36F8F70471C0000209C
:10032000EFF30580704700000948804709480047FF
:10033000FEE7FEE7FEE7FEE7FEE7FEE7FEE7FEE795
:10034000FEE7FEE704480549054A064B70470000F2
:10035000B12D000889010008104E00201054002023
:10036000105000201050002053EA020C00F0698069
:100370002DE9F04B4FF00006002B1FBFB3FA83F5B9
:1003800003FA05F424FA05F65E4012BF1643B2FAEA
:1003900082F502FA05F4C5F120051EBF22FA05FC1C
:1003A00044EA0C04203556EA044C4FEA144418BFC2
:1003B000641C4FF000084FF00009904271EB030CF1
:1003C00039D3002919BFB1FA81F701FA07F6B0FA5B
:1003D00080F700FA07F6C7F120071EBF20FA07FCD6
:1003E00046EA0C062037B6FBF4FCA7EB0507103FE6
:1003F00007F01F0BCBF120060CFA0BFB2CFA06F6CC
:1004000044BFB3460026202FA4BF5E464FF0000B2A
:100410005BEA060C08BF4FF0010B19EB0B09ABFBB5
:10042000027C48EB0608C01B06FB02CC0BFB03CC8E
:1004300071EB0C01C1E70B46024641464846BDE858
:10044000F08B13B54FF000004FF00001AFF30080C8
:10045000BDE81C40704710B5431C02E010F8011BBA
:1004600071B18107FAD14FF0013202C88C1A8C4366
:1004700014EAC211F9D0C01A0A0603D0C01E10BD7A
:10048000C01A10BD0A0401D0801E10BD0902FCD0A4
:10049000401E10BD032A40F2308010F0030C00F023
:1004A000158011F8013BBCF1020F624498BF11F8AE
:1004B00001CB00F8013B38BF11F8013BA2F1040267
:1004C00098BF00F801CB38BF00F8013B11F00303DF
:1004D00000F02580083AC0F0088051F8043B083A43
:1004E00051F804CBA0E80810F5E7121D5CBF51F8E5
:1004F000043B40F8043BAFF30080D20724BF11F85F
:10050000013B11F801CB48BF11F8012B24BF00F8C3
:10051000013B00F801CB48BF00F8012B704710B534
:10052000203AC0F00B80B1E81850203AA0E81850EB
:10053000B1E81850A0E81850BFF4F5AF5FEA027CAC
:1005400024BFB1E81850A0E8185044BF18C918C01B
:10055000BDE810405FEA827C24BF51F8043B40F8BC
:10056000043B08BF7047D20728BF31F8023B48BFA1
:1005700011F8012B28BF20F8023B48BF00F8012BDF
:1005800070474FF000020429C0F0128010F0030CF5
:1005900000F01B80CCF1040CBCF1020F18BF00F876
:1005A000012BA8BF20F8022BA1EB0C0100F00DB825
:1005B0005FEAC17C24BF00F8012B00F8012B48BF83
:1005C00000F8012B70474FF0000200B51346944627
:1005D0009646203922BFA0E80C50A0E80C50B1F19B
:1005E0002001BFF4F7AF090728BFA0E80C5048BFAF
:1005F0000CC05DF804EB890028BF40F8042B08BF4D
:10060000704748BF20F8022B11F0804F18BF00F848
:10061000012B7047704770477047754600F02CF803
:10062000AE4605006946534620F00700854618B0DF
:1006300020B5FFF787FEBDE820404FF000064FF0E1
:1006400000074FF000084FF0000B21F00701AC4607
:10065000ACE8C009ACE8C009ACE8C009ACE8C00926
:100660008D46704710B50446AFF300802046BDE8C4
:100670001040FFF7F2BD000000487047AC4D00206D
:1006800001491820ABBEFEE72600020070470000BB
:1006900030B50C4605000CD0022C0AD90548A11E25
:1006A0000288284600F07AFA291901F8020D000A9A
:1006B000487030BD8400002030B50C4605000AD0DB
:1006C000022C08D9601E81B2FF22284600F07CFA75
:1006D000291901F8010C30BDFEE70000FF2810D1F8
:1006E0000A780848012A00D00022027006484A7899
:1006F00002708A784270CA7882700A79C270497929
:1007000001717047CE0000202C01002000B58BB095
:10071000684600F035F86946054800F0DBFA02212A
:10072000034800F061FA024800F002FE0BB000BD81
:1007300000040020014800F0C8BB000000040020B5
:10074000302802D1084603F06BBA704700B58BB071
:10075000684600F015F86946054800F0BBFA02212A
:10076000034800F041FA024800F0E2FD0BB000BD82
:1007700028040020014800F0A8BB00002804002045
:100780000021016041608160C1600161012241611D
:10079000C0E90612C0E908217047000010B50B4CF3
:1007A000036888B0A34202D0094CA3420BD1009148
:1007B0000021029103910821049106AB694600F0E3
:1007C00025FA002800D0012008B010BD00640040C8
:1007D00000680040012003F0BDFF012003F059FD37
:1007E000F8E70000014800F031BE000010060020CC
:1007F000014800F02BBE0000F0070020014800F087
:1008000025BE0000B0050020014800F01FBE00001A
:1008100090070020014800F019BE0000700600207B
:10082000014800F013BE0000D0060020014800F08F
:100830000DBE0000300700202DE9F04F8568002430
:10084000099E802D18D0894DC563894D456490F867
:100850003450012D15D0012580F8345090F83550D2
:10086000012D10D0002180F834100224002180F8DE
:1008700034102046BDE8F08F4FF4807141650120AF
:10088000F8E70220F6E7022580F835500025456597
:1008900005682F6847F480272F6005682B6103687F
:1008A0005E608368402B03682AD099600168CA6043
:1008B000714D704E704FDFF8BC81DFF8B891DFF8F2
:1008C000B8A1DFF8B4B1EA14DFF8A8E1016818367E
:1008D00030379302A9F148090AF1600A0BF1180BAD
:1008E000AEF1300E4FF0006C41452DD9A94205D034
:1008F000494503D0514501D0B14205D1202220E025
:100900009A600268D160D3E759451AD0714518D072
:10091000594D7835A94214D0564D3035A94210D0E2
:10092000B9420BD0534A183A914207D0524A9032FA
:10093000914203D04F4A4832914201D11A4600E019
:1009400062464C494C392EE0DFF82C8108F1A808AA
:1009500041452AD9A94205D0494503D0514501D086
:10096000B14201D120221CE059451AD0714518D05E
:10097000414D7835A94214D03E4D3035A94210D0B2
:10098000B9420BD03B4A183A914207D03A4A9032CA
:10099000914203D0374A4832914201D11A4600E0D1
:1009A0006246344950390A605AE0DFF8CC8008F1D9
:1009B000480841452AD9A94205D0494503D05145A7
:1009C00001D0B14201D120221CE059451AD0714515
:1009D00018D0294D7835A94214D0264D3035A9427A
:1009E00010D0B9420BD0234A183A914207D0224A7C
:1009F0009032914203D01F4A4832914201D11A46A7
:100A000000E062461C491039CA6029E0A94205D0BD
:100A1000494503D0514501D0B14201D120221CE00B
:100A200059451AD0714518D0134D7835A94214D0C4
:100A3000104D3035A94210D0B9420BD00D4A183AAA
:100A4000914207D00C4A9032914203D0094A483271
:100A5000914201D11A4600E06246074910398A6086
:100A600001680A6842F001020A60FFE6A13D000841
:100A7000B53D000858640240106002400168182328
:100A8000CAB2103AB2FBF3F2054B6FF30901032A25
:100A90009B5CC36500D9091D81650846704700004D
:100AA0000450000810B5014600208B698A6A4FF097
:100AB000C07453B1B3F5005F15D072B1012A0CD0E8
:100AC000022A0AD0032A09D104E01AB1012A06D069
:100AD000022A03D1C96AC90100D5012010BDC96A23
:100AE000A142FAD010BD002AF7D0012AF2D0022A82
:100AF000F3D0032AF3D010BD30B50468256825F47F
:100B000080252560046863608368402B036803D0F8
:100B100099600068C26030BD9A600068C16030BDF5
:100B200070B590F834500024012D0CD0012580F8C8
:100B3000345090F835600025012E06D080F83450EE
:100B40000224204670BD022070BD022680F8356068
:100B5000456505682E6826F480262E6005686B6062
:100B60008368402B036808D099600168CA600068F8
:100B7000016841F001010160E3E79A600268D16019
:100B8000F5E701680A68D20604D5C968C90601D527
:100B900003F0A2BE7047704772B6FEE710B558B1B9
:100BA000084C491E0BD310F8013B5340DBB234F81C
:100BB000133083EA1222F4E74FF6FF7010BD10469F
:100BC00010BD00002451000810B5064C04E000BF21
:100BD00010F8013B5340E25C491E89B2F8D210463E
:100BE00010BD00002450000890F82020012A07D0F2
:100BF000022A05D0416A41F48021416201207047F8
:100C0000006842690A43426100207047F0B590F8DD
:100C100020500468A468012D05D0022D03D0416A3C
:100C200041F4802153E014F0406F01D1E5004BD531
:100C3000C4F30164022C03D9416A41F4000146E087
:100C40000125A5401D608D684FF4C0739DB1CE682D
:100C500035434E6845EAC605066803EB0417F551AF
:100C60004FF4C275076805EB04150E697E51097DC6
:100C7000012905D009E00E88CD6845EA4655EBE725
:100C800001684E5946F480764E511179D2F80550DC
:100C90004FF4C67641EA0525016806EB04168D512E
:100CA0001178D2F801204FF4C47541EA022102689C
:100CB00005EB04155151006803EB0411425842F052
:100CC000010242500020F0BD416A41F4001141622E
:100CD0000120F0BD10B590F82020012A07D0022A8B
:100CE00005D0416A41F480214162012010BD3B489A
:100CF000D0F8002242F00102C0F80022D0F8002211
:100D000022F47C52C0F80022D0F800224B6A42EA5A
:100D10000322C0F800220A7D02F01F0301229A403C
:100D2000D0F81C329343C0F81C32CB69B3B9D0F869
:100D30000C329343C0F80C328C894B6864F31F4328
:100D40004C6900EBC404C4F840320C890B6864F3AE
:100D50001F434C6900EBC404C4F84432CB69012B37
:100D600016D1D0F80C321343C0F80C320C884B6803
:100D700064F31F434C6900EBC404C4F840320C898F
:100D8000CB6864F31F434C6900EBC404C4F84432DD
:100D90008B69002BD0F804320ED01343C0F8043214
:100DA0000B69002BD0F8143208D01343C0F814326A
:100DB000096A012904D008E09343EFE79343F5E77C
:100DC000D0F81C121143C0F81C12D0F8001221F008
:100DD0000101C0F80012002010BD000000640040B6
:100DE000704730B590F82040012C05D0022C03D07C
:100DF000416A41F480215DE00468002955D02469EE
:100E0000A40754D04FF4D874056804EB01142D598D
:100E100015F00405956005682D594ED0ED08556014
:100E200005682C5904F00204D4604FF4DA740568A4
:100E300004EB01142D5905F00F05156105682D59B6
:100E4000C5F30725956105682C59240C54614FF4AE
:100E5000DC72046802EB0112A4581C700468A458E8
:100E6000240A5C700468A458240C9C700468A2587E
:100E7000120EDA704FF4DE72046802EB0112A4580D
:100E80001C710468A458240A5C710468A458240CDA
:100E90009C710468A258120EDA71006881B1016970
:100EA00041F020010161002030BDE468A8E7416AFB
:100EB00041F400114162012030BD6D0D1560AFE7B6
:100EC000C16841F02001C160EDE72DE9F05F054602
:100ED000006800244669D0F804908768D0F80CB008
:100EE000D0F810A0D0F81880F10748D0F90714D036
:100EF00001218160B80703D5284600F046FA0CE0CE
:100F0000780702D54FF4006407E0380702D54FF4A4
:100F1000805402E0284600F037FAF80516D5296813
:100F20004FF480708860B80503D5284600F02FFA8A
:100F30000CE0780502D544F4005407E0380502D5EA
:100F400044F4804402E0284600F020FAF80316D565
:100F500029684FF480308860B80303D5284600F034
:100F600018FA0CE0780302D544F4004407E0380393
:100F700002D544F4803402E0284600F009FA300734
:100F800007D55FEACB6004D52968102044F40074CB
:100F9000C86070074FF0080707D55FEA0B7004D5EB
:100FA0002868C760284600F099F9B00706D5286878
:100FB000C068800702D0284600F092F9700607D575
:100FC0005FEACA6004D52968102044F4806408618F
:100FD000B00607D55FEA0A7004D52868076128467D
:100FE00000F0A2F9F00606D528680069800702D053
:100FF000284600F09AF9B00308D55FEAC96005D524
:10100000296810204860284600F090F9F00307D5C1
:101010005FEA097004D528684760284600F0BAF9ED
:10102000300446D55FEA497040D5F00504D55FEA43
:10103000C87001D044F00104B00504D55FEA88709F
:1010400001D544F00204700504D55FEA487001D56B
:1010500044F00404300529D518F0700F26D008F0AC
:101060007000402815D006DC102809D020280AD0AE
:10107000302816D10AE050280ED0602811D10EE099
:1010800044F008040DE044F010040AE044F02004A9
:1010900007E044F0400404E044F0800401E044F43C
:1010A00080742868816921F07001816129680420B9
:1010B0004860002C05D0686A204368622846FFF724
:1010C0008FFEBDE8F09F70B5040003D094F82000B7
:1010D00010B104E0012070BD204600F081F82068C6
:1010E000016841F00101016000F01AFC0546052687
:1010F00004E000F015FC401B0A2811D82068406865
:10110000C007F6D02068016821F00201016000F0FC
:1011100007FC05460BE000F003FC401B0A2806D93B
:10112000606A40F40030606284F82060D2E7206892
:1011300040688007EFD4207E0128206801683DD0F8
:1011400021F080010160607E01282068016838D0AC
:1011500021F040010160A07E01282068016833D0A1
:1011600021F020010160E07E0128206801682ED076
:1011700041F010010160207F01282068016829D01A
:1011800021F008010160607F01282068016824D0F7
:1011900021F004010160D4E902010843D4E90412FA
:1011A000114308436168491E08432168C861002053
:1011B0006062012084F82000002070BD41F08001B1
:1011C000C0E741F04001C5E741F02001CAE721F046
:1011D0001001CFE741F00801D4E741F00401D9E75D
:1011E000F0B587B0044614216846FFF7ECF9364B9A
:1011F0003648DFF8D0E01968D4F800C0334A032538
:101200000226092710300024491CF44522D1196018
:10121000012907D1016841F000710160006800F008
:1012200000700590106840F0080010601068CDE96B
:10123000005600F00800CDE9047069462448CDE965
:10124000024500F075FA00220521142000F022FC6E
:10125000142032E0DFF87CE0F44530D1D0F800C053
:101260004CF0806CC0F800C0D0F800C001290CF030
:10127000806CCDF814C0196007D1016841F000718D
:101280000160006800F000700590106840F00200F6
:101290001060106802AB00F0020005906020CDE9FC
:1012A000000683E8B00069460B4800F041FA0022CE
:1012B0000521402000F0EEFB402000F0DDFB07B0F0
:1012C000F0BD0000006400400800002030380240FB
:1012D000000C02400068004000040240704700001B
:1012E00070B50E4B04461D46A3F11C020021FFF70A
:1012F00078FD0A480A491C388C4205D10068294605
:10130000BDE87040FFF7EAB906498C4205D1006894
:101310002946BDE87040FFF713BA70BDB445002000
:101320000004002028040020704770477047000028
:1013300070B5044690F82000012804D0606A40F49B
:101340000020606218E0022084F820002068016814
:1013500021F00101016000F0E3FA05460EE000BF54
:1013600000F0DEFA401B0A2808D9606A40F4003019
:101370006062052084F82000012070BD206840686C
:10138000C007EDD1606270BD70477047704770470D
:101390007047704770472DE9F0410446876D00F0B3
:1013A000BFFA064694F835000025022806D08020B2
:1013B000606584F834500120BDE8F0812068016840
:1013C00021F0160101602068416921F0800141612E
:1013D000206C08B9A06C20B12068016821F00801D8
:1013E00001602068016821F0010101600CE000F05B
:1013F00097FA801B052807D920206065032084F810
:10140000350084F83450D7E720680068C007EED173
:1014100094F85C103F208840B860012084F83500C3
:1014200084F834500020C7E790F83510022903D023
:101430008021416501207047052180F83510006842
:10144000016821F001010160002070472DE9F84397
:1014500004464FF00009CDF8009063484FF4165150
:10146000A56D0068B0FBF1F72E6894F85C100820B9
:1014700000FA01F131420FD021680A6852070BD5FA
:101480000A6822F004020A6094F85C108840A860A0
:10149000606D40F00100606594F85C104FF0010849
:1014A00008FA01F0304208D021684969090604D5DC
:1014B000A860606D40F00200606594F85C10042044
:1014C0008840304208D021680968890704D5A8609F
:1014D000606D40F00400606594F85C101020884056
:1014E000304218D021680968090714D5A86020681F
:1014F0000168490304D50068000308D5A16C07E022
:101500000168C90503D4016821F008010160216C5C
:1015100009B12046884794F85C102020884030426A
:1015200031D021680968C9062DD5A86094F8350026
:1015300005282068016806D0490347D500680003E4
:101540001DD4616C1CE021F0160101602068416926
:1015500021F080014161206C08B9A06C20B12068A5
:10156000016821F00801016094F85C103F20884078
:10157000A86084F8358084F83490216D1FE0E16B19
:1015800009B120468847606D00282BD0606DC007E8
:1015900014D0052084F835002068016821F001018D
:1015A00001600098401C0090B84203D82068006891
:1015B000C007F6D184F8358084F83490E16C0029B6
:1015C00010D001B02046BDE8F04308470168C905C6
:1015D000D5D4016821F01001016084F8358084F8C9
:1015E0003490CCE7BDE8F883180000202DE9F041E5
:1015F000044600F095F906465CB1022084F83500F7
:10160000002584F834502068016821F00101016050
:101610000DE00120BDE8F08100F082F9801B052873
:1016200005D920206065032084F83500F2E72068A2
:101630000068C007F0D12268116820480140D4E951
:1016400001031843D4E9033633431843636918434D
:10165000A3691843E3691843236A18430843616A7E
:10166000042903D1D4E90B131943084310602068FF
:101670004069666A20F0070130460E4301270428BE
:101680000CD1A06A0643E06A40B12046FFF70AFA8F
:1016900020B14020606584F83570BAE72068466163
:1016A0002046FFF7EBF994F85C203F2191408160E0
:1016B000656584F835700020ACE700003F8010F0CD
:1016C0002DE9F0410446866D90F83400002501288C
:1016D0000DD0012084F8340094F835700020012FDB
:1016E00007D084F8340002252846BDE8F0810220A6
:1016F000FBE7022784F8357060652046FFF7FCF9A8
:1017000094F85C103F208840B0602068016841F088
:1017100016010160206C20B12068016841F00801C9
:1017200001602068016841F001010160DCE7000010
:101730002DE9F84FDFF8BCA1002201250AF1040BC6
:1017400003264FF00F090BF1040E00BF0B6805FADA
:1017500002F42340A34270D10F7907F00307012F51
:1017600001D0022F16D187684FEA420806FA08FC1A
:1017700027EA0C07D1F80CC00CFA08FC4CEA070C5D
:10178000C0F808C04768A7430C79C4F3001494401C
:101790003C4344600C79E443A4070AD0C4684FEA90
:1017A000420C06FA0CF7BC438F6807FA0CF7274384
:1017B000C7600C7904F00304022C12D1D40800EBAA
:1017C000840CDCF820405707FF0E09FA07F824EADA
:1017D0000804D1F8108008FA07F848EA0408CCF8A1
:1017E000208004684FEA420C06FA0CF7BC430F79DC
:1017F00007F0030707FA0CF7274307604C6814F457
:10180000403F70D03C4C276847F4804727602468ED
:1018100022F0030704F480440094384C07EB040CD6
:10182000DCF8084897074FEA177809FA08F7BC432D
:10183000334FB84202D1002724E054E0314FB84280
:1018400001D101271EE0304FB84201D1022719E033
:101850002E4FB84201D1032714E02D4FB84201D1D9
:1018600004270FE02B4FB84201D105270AE02A4F89
:10187000B84201D1062705E0284FB84201D1072719
:1018800000E0082707FA08F72743CCF80878DAF8C9
:1018900000405746D1F804C09C435FEACC3C00D5D9
:1018A0001C433C60DBF800405F46D1F804C09C4319
:1018B0005FEA8C3C00D51C433C60DEF80040774674
:1018C000D1F804C09C435FEACC2C00D51C433C609B
:1018D000084F0C373C68D1F804C09C435FEA8C2C5D
:1018E00000D51C433C60521C102AFFF42FAFBDE80A
:1018F000F88F0000003C01404438024000300140B5
:10190000000002400004024000080240000C0240B7
:10191000001002400014024000180240001C024067
:1019200001488068704700000C00002070B504007A
:1019300011D021684CF6CC400860216845F2555022
:101940000860D4E9000141602168A0688860FFF761
:10195000E7FF05460DE0012070BD00BFFFF7E0FF87
:10196000401B312805D92068C068800701D00320BA
:1019700070BD2068C0688007F0D121684AF6AA20AF
:101980000860002070BD00000248816802781144A0
:10199000816070470C0000200B4810B5016841F4CD
:1019A00000710160016841F480610160016841F4E7
:1019B00080710160032000F08DF80F2000F006F820
:1019C00000F03EF8002010BD003C024010B501467A
:1019D00088B000221C2000F05DF81C2000F04CF8BC
:1019E00014480024016841F001010160006805A964
:1019F00000F001000690684600F018F900F036F992
:101A00000D494000B0FBF1F10C484FF08042491EF7
:101A1000026040F2E732C0E90324C0E9011400F09B
:101A20002FFB10B1012008B010BD044800F056FB98
:101A3000F9E700004038024040420F005008002003
:101A40000C4882B0016841F480410160006800F4F4
:101A5000804000900748001F016841F080510160FC
:101A60000068002200F0805000900F21901E02B00C
:101A700000F010B844380240002809DB00F01F02D3
:101A8000012191404009800000F1E020C0F80011E0
:101A900070470000F0B40E4B1B680C46C3F30223E2
:101AA000C3F10705042D00D90425191D072901D20A
:101AB000002300E0DB1E012606FA05F1491E214045
:101AC00099409E40761E16403143F0BC02F043B868
:101AD0000CED00E0064900F0070208684FF6FF032E
:101AE000184040EA0220034A104308607047000093
:101AF0000CED00E00000FA052DE9F0470E46050068
:101B000065D0DFF81481D8F80000F7B200F00700C4
:101B1000B04207D288F80070D8F8000000F0070043
:101B2000B04254D128683D4C810712D5400703D5F7
:101B3000206840F4E05020602878000703D5206832
:101B400040F4604020602068A96820F0F00008435D
:101B500020602878C0072DD03049686808390128EE
:101B600012D0022813D0032811D009688907002950
:101B70002DDA216821F0030101432160FFF7D0FE37
:101B8000814641F2883A0EE009688903EFE7096867
:101B90008901ECE7FFF7C4FEA0EB0901514502D92A
:101BA0000320BDE8F0872068696800F00C00B0EB06
:101BB000810FEFD1D8F80010404601F00701B14283
:101BC00007D90770006800F00700B04201D001207B
:101BD000E7E72878400705D52068E96820F4E05059
:101BE000084320602878000706D52068296920F47A
:101BF000604040EAC100206000F058F82168084ABF
:101C0000C1F30311515CC8400649086006480068EA
:101C1000FFF7DCFE0020C4E7003C02400838024029
:101C20000C50000818000020100000200F22026055
:101C30000C4A136803F003034360136803F0F003D6
:101C40008360136803F4E053C36012684FF4E053F9
:101C500003EAD20202610448006800F0070008604D
:101C60007047000008380240003C02400448054923
:101C700000680968044AC1F38221515CC84070477A
:101C800018000020083802401C500008044805498C
:101C900000680968044AC1F34231515CC84070478A
:101CA00018000020083802401C500008154810B5E4
:101CB000006810F00C02144813D01449042A0FD005
:101CC000082A0ED10F4C241F2268236802F03F021D
:101CD0005B0207D52068C0F38810A0FB010106E075
:101CE000084610BD2168C1F38811A1FB0001002343
:101CF000FEF73AFB2168C1F30141491C4900B0FBE2
:101D0000F1F010BD083802400024F40040787D0155
:101D10002DE9F84F04006ED02078DFF84C93C0070F
:101D2000A9F104054AD009F104000168C1F3810159
:101D3000012908D00068C0F3810002280AD1D9F82F
:101D40000000400206D52868800337D56068002867
:101D5000E1D033E06068B0F5803F10D0B0F5A02F3F
:101D6000286810D020F480302860286820F4802073
:101D700028606068A8B1FFF7D3FD06460DE028682B
:101D800040F48030F4E740F480202860F7E700BF9B
:101D9000FFF7C6FD801B642873D828688003F7D539
:101DA0000CE0FFF7BDFD064605E000BFFFF7B8FDFC
:101DB000801B6428F0D828688003F7D42078DFF8E7
:101DC000AC8280074FF0000A3ED5A748001D01688D
:101DD00011F00C0F08D00068C0F3810002280BD16D
:101DE000D9F80000400207D42868800716D5E068BB
:101DF000012800D112E033E1E068B8B10120C8F851
:101E00000000FFF78DFD064605E000BFFFF788FDE7
:101E1000801B0228C0D828688007F7D52868216968
:101E200020F0F80040EAC10028600DE0C8F800A0EA
:101E3000FFF776FD064604E0FFF772FD801B0228DF
:101E40001FD828688007F7D42078000722D5864F4E
:101E500087486169703771B101210160FFF760FD4A
:101E6000064604E0FFF75CFD801B022809D83868AD
:101E70008007F7D50EE0C0F800A0FFF751FD064639
:101E800005E082E0FFF74CFD801B02287DD8386812
:101E90008007F7D42078400768D5DFF8CCB1002759
:101EA0000BF13C0BDBF80000C0000BD4DBF800109A
:101EB00041F08051CBF80010DBF80000012700F062
:101EC000805000906B4E3068C00510D4306840F4EC
:101ED00080703060FFF724FD009005E0FFF720FDE3
:101EE0000099401A022850D83068C005F6D55E4ED9
:101EF000A0686C3601280FD00528306810D020F07B
:101F000001003060306820F004003060A068B8B193
:101F1000FFF706FD00900FE0306840F00100F4E7A5
:101F200040F004003060F7E7FFF7FAFC0099411A2F
:101F300041F28830814266D830688007F4D50EE0DF
:101F4000FFF7EEFC009007E0FFF7EAFC0099411A6A
:101F500041F28830814256D830688007F4D42FB1DE
:101F6000DBF8001021F08051CBF80010A069C8B355
:101F70003D49091D0968C1F3810102294AD002289F
:101F8000504607D0C8F8600000E03CE0FFF7C8FC0E
:101F900004463BE04746C8F86000FFF7C1FC064630
:101FA00005E000BFFFF7BCFC801B02282BD8286887
:101FB0008001F7D4D4E907010843A16A2E4A4908F1
:101FC00002EB0141626A41EA8211084394F82C1045
:101FD00040EA0161C9F8001001203866FFF7A0FC53
:101FE000044606E03EE000BFFFF79AFC001B022813
:101FF00009D828688001F7D534E000BFFFF790FCCE
:10200000001B022802D90320BDE8F88F2868800150
:10201000F4D427E00128F7D0D9F80000E26900F4F1
:10202000800191421CD1226A00F03F01914217D1F8
:1020300047F6C071626A0140B1EB821F10D1A26AFB
:102040004FF0FF3300F4403103EB5202B1EB024F8B
:1020500006D194F82C1000F07060B0EB016F01D045
:102060000120D1E70020CFE70438024000004742BA
:10207000800E4742007000400000FFFF704770472D
:1020800010B5040003D094F83D0010B107E0012022
:1020900010BD002084F83C00204600F01EF802200D
:1020A00084F83D00211D206800F090FE012084F896
:1020B000460084F83E0084F83F0084F8400084F82D
:1020C000410084F8420084F8430084F8440084F816
:1020D000450084F83D00002010BD704790F83D1089
:1020E000012901D001207047022180F83D100168CC
:1020F000CA6842F00102CA6000681149884214D0DF
:10210000B0F1804F11D00F4988420ED00E4988425D
:102110000BD00E49884208D00D49884205D00D49A0
:10212000884202D00C49884204D1816801F007013D
:10213000062903D0016841F00101016000207047C9
:10214000000001400004004000080040000C004076
:10215000000401400040014000180040704770B585
:102160000446006801694FF00005C943890715D48A
:10217000C168C943890711D4E91E01610120207794
:10218000206880698007204602D0FFF7E7FF04E05F
:1021900000F098F8204600F096F82577206801694D
:1021A000C943490717D4C168C943490713D46FF01D
:1021B00004010161022020772068806910F4407FCB
:1021C000204602D0FFF7CAFF04E000F07BF820466B
:1021D00000F079F8257720680169C943090716D40A
:1021E000C168C943090712D46FF0080101610420D6
:1021F00020772068C0698007204602D0FFF7AEFF35
:1022000004E000F05FF8204600F05DF825772068D4
:102210000169C943C90617D4C168C943C90613D4A3
:102220006FF010010161082020772068C06910F468
:10223000407F204602D0FFF791FF04E000F042F813
:10224000204600F040F8257720680169C943C90796
:1022500008D1C168C943C90704D1891E016120465C
:1022600000F032F820680169C943090609D4C16841
:10227000C943090605D46FF0800101612046FFF7CC
:10228000FDFE20680169C943490609D4C168C943F4
:10229000490605D46FF040010161204600F01BF8AB
:1022A00020680169C94389060BD4C168C9438906FE
:1022B00007D46FF0200101612046BDE87040FFF7B0
:1022C000DEBE70BD704770470068B0F1804F01D12D
:1022D000FFF75ABB7047704770477047F8B5016801
:1022E00004460868CA684B6910F00F0F4FF00005EC
:1022F0005AD003F0010602F49077374365D0C10746
:1023000005D0D10503D5216C41F0010121644107BD
:1023100005D5D90703D0216C41F002012164810762
:1023200005D5D90703D0216C41F0040121640107D0
:1023300007D502F02001314303D0216C41F00801A0
:102340002164216C00293BD0800604D5900602D57B
:10235000204600F03FFE20684069216CC0F38010E9
:1023600001F00801014320462BD000F0FEFD20685B
:102370004069400621D52068143050E8001F21F044
:10238000400140E80012002AF5D1A06BA8B16C49C9
:102390000165A06BFFF748F8002811D0A06B016D14
:1023A00001B0BDE8F040084783060ED593060CD572
:1023B0002046BDE8F84000F00DBE2046FFF78DFF37
:1023C000F8BDFFF78AFF2564F8BD266B2023012E98
:1023D00079D1C60677D5D60675D5086848680090C5
:1023E0004869400640D5A16B086840680004000CAD
:1023F000EAD0A28D8242E7D9E085C869B0F5807F36
:102400002DD020680C3050E8001F21F4807140E886
:102410000012002AF5D12068143050E8001F21F086
:10242000010140E80012002AF5D12068143050E87C
:10243000001F21F0400140E80012002AF5D184F885
:102440003E30256320680C3050E8001F21F0100159
:1024500040E80012002AF5D1A06BFEF79CFFA08D8A
:10246000E18D401A81B229E0A08DE18D401A81B240
:10247000E08D0028A8D00029A6D020680C3050E8B4
:10248000002F22F4907240E80026002EF5D120683B
:10249000143050E8002F22F0010240E80026002E00
:1024A000F5D184F83E30256320680C3050E8002FC9
:1024B00022F0100240E80023002BF5D12046FFF760
:1024C0000BFFF8BDFFE705062BD5150629D594F8B7
:1024D0003D002128F5D1A068B0F5805F01D12069C9
:1024E000B0B1206A411C2162216800784860E08C0C
:1024F000401E0004000CE084E3D12068C16821F094
:102500008001C1602068C16841F04001C160D8E726
:10251000206A0088C0F308004860206A801C20629E
:10252000E5E74006CDD55006CBD5CA68204622F057
:102530004002CA6084F83D3000F048FAC1E700006C
:10254000C52E000870B5040004D094F83D000025A5
:1025500010B106E0012070BD84F83C50204600F028
:1025600023F8242084F83D002068C16821F400513C
:10257000C160204600F08EFD2068016921F4904181
:1025800001612068416921F02A0141612068C16828
:1025900041F40051C1602564202084F83D0084F896
:1025A0003E00002070BD00002DE9F04F87B00546C9
:1025B00014216846FEF707F8D248DFF84483022268
:1025C000D5F800C0CF4B103803210827DFF838B307
:1025D000002496064FF4807A4FF48069C44534D1C4
:1025E000D3F800C04CF4002CC3F800C01B6803F4FF
:1025F00000230593036843F001030360006800F0C3
:10260000010005908DE81600CDE90317694658468C
:10261000FFF78EF8BE4FBD483860C7E90164C7E9CF
:1026200003497C61C7E9064A3C6238467C62FEF792
:10263000DDFF08B1FEF7B0FAAF63002205213420B8
:10264000BD63FFF727FA342075E0DFF8C882C44580
:1026500077D1D3F800C000244CF4801CC3F800C02C
:102660001B6803F480130593036843F004030360BD
:10267000036803F004030593036843F00803036051
:102680000068884600F0080005904FF48050CDE9BE
:102690000002CDE902489346694604979E48FFF739
:1026A00047F80420CDE9000BCDE9024869460497BC
:1026B0009A48FFF73DF8DFF858B294490BF1600BE8
:1026C00030395846CBF80010C0E90164C0E903492D
:1026D0004FF44037CBF82070CBF81440CBE9064AD2
:1026E000B0464E46CBF82440FEF780FF08B1FEF717
:1026F00053FA874C8548C5F838B0C0347830CBF8E9
:102700003850C4E900084020A0600020C4E9030656
:102710006061A061C4E9070760622046FEF766FFBA
:1027200008B1FEF739FA6C63002205213520A56354
:10273000FFF7B0F93520FFF79FF907B0BDE8F08F3C
:10274000FFE7DFF8DC810727C4455DD16D4B00242E
:102750001B1DD3F800C04CF0100CC3F800C01B6860
:1027600003F010030593036843F00103036000685E
:10277000CDE9024100F0010005904FF4C060CDE9C1
:102780000002049769465846FEF7D2FFDFF898B179
:1027900064495846CBF80010C0E90164C0E9034918
:1027A0004FF44037CBF82070CBF81440CBE9064A01
:1027B000B0464E46CBF82440FEF718FF08B1FEF7AE
:1027C000EBF9594C5748C5F838B060347830CBF83D
:1027D0003850C4E900084020A0600020C4E9030686
:1027E0006061A061C4E9070760622046FEF7FEFE53
:1027F00008B1FEF7D1F96C63002205212520A563FD
:10280000FFF748F9252096E7DFF82081C44538D145
:10281000D3F800C04CF4003CC3F800C01B6803F4BC
:1028200000330593036843F0010303600068CDE9BA
:10283000024100F0010005900C20CDE90002049750
:1028400069465846FEF774FF374F3048C037483066
:102850003860C7E90164C7E903497C61C7E9064AF2
:102860003C6238467C62FEF7C1FE08B1FEF794F97F
:10287000AF63002205212620BD63FFF70BF9262058
:1028800059E7DFF8AC80C4457FF457AFD3F800C0F8
:102890004CF4802CC3F800C01B6803F4802305931C
:1028A000036843F0020303600068CDE9024100F0D1
:1028B000020005904FF44060CDE90002049769469C
:1028C0001C48FEF735FF11481B4F18383860C7E920
:1028D0000164C7E903497C61C7E9064A3C6238469E
:1028E0007C62FEF783FE08B1FEF756F9AF63002263
:1028F00005212720BD63FFF7CDF827201BE7000047
:10290000004C00404038024000000240406002405D
:10291000B00500200050004000080240000C0240BA
:102920000010014040640240D006002000440040F6
:102930000048004000040240F007002070470000FB
:1029400070B5044690F83D00202836D191B38AB383
:1029500094F83C00012830D0012084F83C0021622A
:10296000A284E28400252564212084F83D00636B65
:102970001348D863636B13481864636B1248D864B8
:10298000606B134605652668606B321DFEF798FE86
:1029900021686FF04000086084F83C5020681430D3
:1029A00050E8001F41F0800140E80012002AF5D1F4
:1029B000002070BDFFE70120FBE70220F9E70000DF
:1029C0001F2F0008612F0008D52E000870477047A0
:1029D000FEE70000104810B50E4901600321416078
:1029E00000214FF400228160C0E903124FF440122D
:1029F00042610176012242768276C2760177427781
:102A0000FEF761FB002803D0BDE81040FEF7C4B814
:102A100010BD00000064004000040020104810B504
:102A20000E4901600321416000214FF400228160C2
:102A3000C0E903124FF4401242610176012242764E
:102A40008276C27601774277FEF73DFB002803D0FD
:102A5000BDE81040FEF7A0B810BD000000680040BF
:102A600028040020254808B5016841F48001016070
:102A7000016801F480010091016841F400110160D6
:102A80000068002200F40010009005210B20FFF7E1
:102A900001F80B20FEF7F0FF002205210C20FEF7C5
:102AA000F9FF0C20FEF7E8FF002205210D20FEF7BC
:102AB000F1FF0D20FEF7E0FF002205211020FEF7B8
:102AC000E9FF1020FEF7D8FF002205212F20FEF796
:102AD000E1FF2F20FEF7D0FF002205213A20FEF76C
:102AE000D9FF3A20FEF7C8FF002205214620FEF755
:102AF000D1FFBDE808404620FEF7BEBF3038024097
:102B000010B58EB01C220B496846FDF708FD002168
:102B1000684601F0CAFB084C06491C2220601C31A3
:102B200007A8FDF7FCFC002107A801F0BEFB6060D0
:102B30000EB010BDCC4F000800000020154808B5AD
:102B4000016841F080010160016801F0800100919D
:102B5000016841F001010160016801F0010100918B
:102B6000016841F002010160016801F00201009179
:102B7000016841F004010160016801F00401009165
:102B8000016841F008010160006800F00800009051
:102B900008BD000030380240094810B507490160FF
:102BA0000021416040F6FF718160FEF7BFFE002802
:102BB00003D0BDE81040FDF7EFBF10BD003000406E
:102BC000500400200C4810B50A4901604FF4E1316F
:102BD0004160002181600C22C160C0E90412816162
:102BE000C161FFF7AFFC002803D0BDE81040FDF73E
:102BF000D3BF10BD004C00405C0400200C4810B551
:102C00000A4901604FF4E1314160002181600C22EA
:102C1000C160C0E904128161C161FFF793FC002823
:102C200003D0BDE81040FDF7B7BF10BD0050004015
:102C3000A00400200C4810B50A4901604FF4E131AE
:102C40004160002181600C22C160C0E904128161F1
:102C5000C161FFF777FC002803D0BDE81040FDF705
:102C60009BBF10BD00100140E40400200C4810B5CB
:102C70000A4901604FF4E1314160002181600C227A
:102C8000C160C0E904128161C161FFF75BFC0028EB
:102C900003D0BDE81040FDF77FBF10BD00440040E9
:102CA000280500200C4810B50A4901604FF4E131B5
:102CB0004160002181600C22C160C0E90412816181
:102CC000C161FFF73FFC002803D0BDE81040FDF7CD
:102CD00063BF10BD004800406C050020FEE7FEE722
:102CE000012001F0D6FAFBE710B5502080F31188DF
:102CF000BFF34F8FBFF36F8F02F09AF818B10449FA
:102D00004FF080500860002080F3118810BD000053
:102D100004ED00E030B593B030216846FDF753FC78
:102D200014210CA8FDF74FFC1F480025016841F055
:102D300080510160006800F0805011901B480168CC
:102D400041F4804101600068022400F48040119049
:102D5000092000904FF4803001900120CDE9050456
:102D600080050790192008904FF4A870CDE9090458
:102D700004200B906846FEF7CBFF08B172B6FEE761
:102D80000CA90F2081E831004FF4A0500F904FF4B0
:102D90008050109005210CA8FEF7AEFE002801D04F
:102DA00072B6FEE713B030BD4038024000700040FC
:102DB0000248016841F470010160704788ED00E04D
:102DC0000148FFF7CCB9000050080020F0B50268B8
:102DD000254C264D264E274F274B4FF0804CA042C6
:102DE00009D0604507D0A84205D0B04203D0B84210
:102DF00001D0984204D122F0700E4A6842EA0E02D5
:102E0000A0421BD0604519D0A84217D0B04215D0BF
:102E1000B84213D0984211D0184DA8420ED0184D88
:102E2000A8420BD0174DA84208D0174DA84205D094
:102E3000164DA84202D0164DA84203D122F4407587
:102E4000CA682A434D6922F080022A4302608A68D8
:102E5000C2620A688262A04201D0984201D1096927
:102E6000016301214161F0BD000001400004004008
:102E700000080040000C00400004014000400140F8
:102E8000004401400048014000180040001C004080
:102E90000020004010B50448FDF773FEBDE8104067
:102EA0000148FFF71BBA00005C04002010B504487D
:102EB000FDF767FEBDE810400148FFF70FBA0000BC
:102EC000A004002010B5806B0021C185C184FFF7EC
:102ED00004FA10BD70B5846B2068406994F83D1009
:102EE000C0F3C0100025212904D118B1E584204683
:102EF00000F062F82068406994F83E10C0F380103A
:102F0000222904D118B1E585204600F02EF8206C66
:102F100040F0100020642046FFF7DFF970BD10B5C7
:102F20000146806B09680968C90516D40021C1846F
:102F30000168143151E8002F22F0800241E800239B
:102F4000002BF5D101680C3151E8002F42F040020E
:102F500041E80023002BF5D110BDFFF737FD10BD70
:102F600010B5806BFFF733FD10BD01680C3151E8DF
:102F7000002F22F4907241E80023002BF5D1016864
:102F8000143151E8002F22F0010241E80023002B08
:102F9000F5D1016B012909D101680C3151E8002FED
:102FA00022F0100241E80023002BF5D1202180F807
:102FB0003E1000210163704701680C3151E8002F79
:102FC00022F0C00241E80023002BF5D1202180F837
:102FD0003D10704708B590F83E10222901D002201C
:102FE00008BD82684FF480539A4201D1016921B132
:102FF000816A9A421BD04AB10AE00268816A52682B
:10300000C2F308020A80816A891C08E0026972B171
:103010000268526802F07F020A70816A491C81626C
:10302000C18D491E0904090CC18503D019E002684D
:103030005268F1E70168CA6822F02002CA6001689C
:10304000CA6822F48072CA6001684A6922F00102EB
:103050004A61202180F83E10016B012903D0FFF75F
:103060006DFC002008BD0021016301680C3151E8AE
:10307000002F22F0100241E80023002BF5D1016857
:103080000A68D20602D50A6849680091818DFFF767
:1030900023F9E6E770B5044600680169E26821F4A7
:1030A0004051114301612169A068E26908436169E7
:1030B000114308432168CA6849F20C639A430243EA
:1030C000CA6020684169A26921F4407111434161DD
:1030D00031492068884202D03049884202D1FEF747
:1030E000D5FD01E0FEF7C2FDE26900231921642548
:1030F0003226B2F5004F626828D0A0FB0101930F81
:103100009200FDF731F90146B0FBF5F06FF01802BF
:10311000504301EB800006EB0010B0FBF5F000F02F
:10312000F002B1FBF5F002EB0012B1FBF5F06FF02D
:103130001803584301EB800006EB0010B0FBF5F0DC
:1031400000F00F0021681044886070BDA0FB0101F1
:1031500092185B41FDF708F90146B0FBF5F002015A
:10316000B1FBF5F06FF01803584301EB800006EB5C
:10317000C000B0FBF5F000F0F80002EB4002B1FB3C
:10318000F5F0584301EB800006EBC000B0FBF5F012
:1031900000F00700D6E700000010014000140140D5
:1031A00030B5364CB3B00225A06B60B1C4F83C50CA
:1031B00094ED040AD4ED050AB4EEE00AF1EE10FA3B
:1031C00004D8052003E00120E063F1E70120F6EEDA
:1031D000000AA02120EE201ADFED290A40F23E333A
:1031E00041EE000ABCEEE00A10EE102A92B2CDE9E0
:1031F0000312059114218DE80B0094F83C20012363
:1032000020A106A800F0F3FE0F2206A91E48FDF734
:1032100041F921794FF4C4724FF43970CDE902526B
:10322000CDE904011E250320CDE9000594F83C20DA
:10323000002316A106A800F079FE13480F2206A964
:103240000F30FDF727F91049592210316846FDF774
:1032500021F969220C4917A8FDF71CF90DF15C0C46
:103260009CE80F0000F060FDA06B401C90FBF5F1A6
:1032700005FB1100A06333B030BD0000D400002076
:1032800000804F4467313000084C00206731310026
:10329000F0B5774C01250226206CB3B000287CD015
:1032A0006664208902AB323081B2E088042700F1E5
:1032B0005002503892B280B283E807000591CDE900
:1032C000007594F8442001236AA106A800F08FFE3F
:1032D0000F2206A96848FDF7DDF8208902AB0A3005
:1032E00081B2E08800F16402643892B280B283E86F
:1032F00007000591CDE9006594F8442001235FA102
:1033000006A800F074FE5C480F2206A90F30FDF7F6
:10331000C1F8208902AB1E3881B2E08800F150026A
:10332000503892B280B283E807000591CDE900657C
:1033300094F84420012352A106A800F058FE4E48FC
:103340000F2206A91E30FDF7A5F8208902AB5038E0
:1033500081B2E08800F11E021E3892B280B283E88A
:1033600007000591CDE9007594F84420012345A19B
:1033700006A800F03CFE40480F2206A92D30FDF7BC
:1033800089F82089A0F14B018AB2E1884B3080B2E4
:10339000CDE90210CDE9041200E067E0CDE9006557
:1033A00094F84420012338A106A800F020FE3248FA
:1033B0000F2206A93C30FDF76DF821890DF1080CAC
:1033C000A1F1500082B2E0883231A0F11E035038E2
:1033D0009BB289B280B205928CE80B00CDE90075F2
:1033E00094F84420012329A106A800F000FE2248F9
:1033F0000F2206A94B30FDF74DF82089A0F15001AE
:103400008AB2E188323001F11E039BB25031CDE91E
:10341000043280B289B2CDE90210CDE9007594F88A
:10342000442001231AA106A800F0E1FD12480F2252
:1034300006A95A30FDF72EF80F4959221031684677
:10344000FDF728F869220C4917A8FDF723F817AFF4
:1034500097E80F0000F068FC206C1E21401C90FBD8
:10346000F1F201FB1200206433B0F0BD656418E78F
:10347000D400002067323000714C002067323100E8
:10348000673232006732330067323400673235000A
:10349000673236002DE9F041374CB2B0A06C0028FD
:1034A00067D00220E064062600274FF4FF710096E3
:1034B000CDE904174FF4C37840F23E320325CDF82E
:1034C0000C80CDE9015294F84C2001232BA106A8D1
:1034D000483400F08CFD0F2206A92948FCF7DAFFDA
:1034E00040F282510096CDE9041740F24242CDF8F5
:1034F0000C80CDE901522279012322A106A800F017
:1035000076FD1F480F2206A90F30FCF7C3FFFA20F3
:1035100040F2B341CDE903010096059040F2CD227F
:10352000CDE901522279012317A106A800F05FFD21
:1035300013480F2206A91E30FCF7ACFF1049592290
:1035400010316846FCF7A6FF69220D4917A8FCF761
:10355000A1FF17AD95E80F0000F0E6FB20681E21E3
:10356000401C90FBF1F201FB1200206032B0BDE87C
:10357000F081012096E70000D4000020673330007E
:10358000DA4C002067333100673332002DE9F04F09
:10359000694C0225B3B0206D00287DD06565A07808
:1035A00001287AD06078012878D0012701A84FF04F
:1035B0000D0940F267284FF4C876009780E8600351
:1035C00094F8542001235DA105A800F055FC0F22BA
:1035D00005A95B48FCF75EFF01A84FF0160B0097AA
:1035E00080E8600994F85420012356A105A800F052
:1035F00043FC53480F2205A90F30FCF74BFF2078FE
:1036000001287DD05FF0010701A840F29F2ACDF884
:103610001090009780E8600494F8542001234AA198
:1036200005A800F029FC46480F2205A91E30FCF72A
:1036300031FF01A8CDF810B0009780E86004D846AB
:1036400094F85420012341A105A800F015FC3C4842
:103650000F2205A92D30FCF71DFF394959221031E1
:103660008A466846FCF716FF6922354917A8FCF719
:1036700011FF0DF15C0C9CE80F0000F055FBE078A9
:10368000002854D0012854D00227494640F22F295F
:103690000097CDE9039102E040E042E043E0CDE94C
:1036A000015694F85420012329A105A8503400F0B4
:1036B000E3FB23480F2205A93C30FCF7EBFE01A8F1
:1036C000CDF81080009780E860022279012321A1C3
:1036D00005A800F0D1FB1A480F2205A94B30FCF7D2
:1036E000D9FE592251466846FCF7D4FE6922144996
:1036F00017A8FCF7CFFE0DF15C0B9BE80F0000E074
:1037000013E000F011FB20681E21401C90FBF1F239
:1037100001FB1200206033B0BDE8F08F012060652E
:103720003DE7042742E7022740E702276CE7072727
:10373000ABE70127A9E70000D40000206734300080
:10374000434D002067343100673432006734330062
:10375000673434006734350030B5274C95B0022506
:10376000A069E8B3E56124487B30FCF774FE80B2C1
:10377000CDE902051220CDE900504FF42A72D22182
:10378000CDE90412227F01231CA106A800F01CFB36
:103790000F2206A91A48FCF77DFE19490F2201F1F4
:1037A0000F00FCF777FE144915481E227B311E30AE
:1037B000FCF770FE12491D221F316846FCF76AFEB5
:1037C0000F492D220F3108A8FCF764FE0DF1200CE3
:1037D0009CE80F0000F064FAA0691E21401C00E084
:1037E00006E090FBF1F201FB1200A06115B030BDC4
:1037F0000120E061B7E70000D400002067633000DB
:10380000544B002030B5274C95B00225206AE8B310
:10381000656224489930FCF71EFE80B2CDE90205AE
:103820001220CDE900504FF41C72D221CDE90412D0
:1038300094F8242001231CA106A800F0C5FA0F2249
:1038400006A91A48FCF726FE18490F2201F10F00BD
:10385000FCF720FE134915481E2299311E30FCF753
:1038600019FE12491D221F316846FCF713FE0F494D
:103870002D220F3108A8FCF70DFE0DF1200C9CE85D
:103880000F0000F00DFA1E21206A00E007E0401C46
:1038900090FBF1F201FB1200206215B030BD012057
:1038A0006062B6E7D400002067633100904B0020CF
:1038B00030B5274C95B00225A06AE8B3E5622448EC
:1038C000B730FCF7C8FD80B2CDE902051220CDE982
:1038D00000504FF40E72D221CDE9041294F82C203E
:1038E00001231CA106A800F06FFA0F2206A91A48AE
:1038F000FCF7D0FD18490F2201F10F00FCF7CAFDBB
:10390000134915481E22B7311E30FCF7C3FD12497A
:103910001D221F316846FCF7BDFD0F492D220F31D6
:1039200008A8FCF7B7FD0DF1200C9CE80F0000F093
:10393000B7F91E21A06A00E007E0401C90FBF1F2FD
:1039400001FB1200A06215B030BD0120E062B6E7B5
:10395000D400002067633200CC4B002010B504482F
:10396000FDF70FF9BDE810400148FEF7B7BC0000B5
:10397000E40400200B4882B001680A684A6800929B
:10398000CA6842F01002CA6001684A6942F0400207
:103990004A610168806B4FF4AF73034A091D02B09E
:1039A000FDF7BEB8E4040020BC45002070470000CD
:1039B00010B50448FDF7E5F8BDE810400148FEF7F2
:1039C0008DBC0000280500200C4808B501680A6875
:1039D0004A680092CA6842F01002CA6001684A69E7
:1039E00042F040024A61122100910168044B806B51
:1039F000A3F11802091DFCF71FFF08BD28050020D0
:103A0000324700207047000010B50448FDF7B9F8B0
:103A1000BDE810400148FEF761BC00006C050020C5
:103A20000B4882B001680A684A680092CA6842F08E
:103A30001002CA6001684A6942F040024A610168A6
:103A4000806BC823034A091D02B0FDF769B8000066
:103A50006C0500204A470020704700000B4882B0E8
:103A600001680A684A680092CA6842F01002CA6097
:103A700001684A6942F040024A610168806BC823CC
:103A8000034A091D02B0FDF74BB800005C0400209A
:103A900012480020704700000B4882B001680A6895
:103AA0004A680092CA6842F01002CA6001684A6916
:103AB00042F040024A610168806BC823034A091D35
:103AC00002B0FDF72DB80000A0040020DA48002065
:103AD00010B5044600F020FB2146BDE810406422EA
:103AE0000148FCF7D7BC0000A2490020FEE7000017
:103AF00030B50C46050014D0022C12D90A48A11E7C
:103B000002882846FDF74AF82919C2B211F8023C8A
:103B10009A4206D111F8011CB1EB102F01D10120FE
:103B200030BD002030BD00008400002030B50C46C0
:103B300005000ED0022C0CD9601E81B2FF2228464F
:103B4000FDF742F8291911F8011C814201D1012029
:103B500030BD002030BD0907090E002804DB00F14C
:103B6000E02080F80014704700F00F0000F1E02022
:103B700080F8141D704700000A4801680A48B1F82F
:103B80003B20130A0370427031F8332F130A8370FD
:103B9000C27049880A0A0271417102462E21034807
:103BA000FCF7FCBDD0000020960000202804002077
:103BB000174882B000220068018E16480B0A037075
:103BC00041704FF49671090A81702C21C1709621C1
:103BD000ADF80010027141710F48017801290CD035
:103BE000ADF800200B48BDF800100838094AC18123
:103BF0002F210A4802B0FCF7D1BD4078012804D03B
:103C00004FF44070ADF80000ECE74FF4E060F9E7E6
:103C1000D00000209E000020CE00002028040020BC
:103C200070B50346114D00886E4240BA00B2DFED18
:103C30000E0AB3EE0E0A2A46314600F059FA0C4C31
:103C4000FBEE040A2A4684ED000A5888B3EE040A03
:103C500040BA00B2314600F04BFA84ED010A988870
:103C600040BA208170BD0000000000000083FFFF0B
:103C7000244A002008480068017E0848012906D02F
:103C8000652903D1017040F265114180704701211F
:103C9000017040F20111F8E7D0000020E0000020A0
:103CA0000FB41FB5A5208DF800003320ADF801003A
:103CB00000201B4C8DF80300009844F8030B0521ED
:103CC0001748FCF7F9FC40F2013060804FF488702F
:103CD000ADF8000013480F220178ADF802104088BB
:103CE000ADF8040000986060BDF8040020810C4825
:103CF00006A90D30FCF7CEFB09481E220DF1270165
:103D00001C30FCF7C7FB3C210548FCF7C1FC04B0A4
:103D10003C2110BC02485DF814EB00F055BE0000D9
:103D2000984A0020E00000200FB41FB5A5208DF8B0
:103D300000006F20ADF801000020174C8DF8030043
:103D4000009844F8030B05211348FCF7B5FC40F23A
:103D5000013060804FF48270ADF800000F48692296
:103D60000178ADF802104088ADF80400009860605A
:103D7000BDF804002081084806A90D30FCF78AFB35
:103D800078210548FCF784FC04B0782110BC024877
:103D90005DF814EB00F018BE984A0020E000002007
:103DA0000068016841F4002101600148FFF72ABE64
:103DB0001A4700200068016821F4002101600148D1
:103DC000FFF720BE324700202DE9FF4781460CA8AF
:103DD00090E8F0110888ADF8000088788DF80200AE
:103DE0009DF803004EF2030162F3020040F0380038
:103DF0008DF80300BDF803000F2263F38910ADF8BE
:103E000003009DF8040064F385008DF80400BDF8FC
:103E1000040065F38E10ADF80400BDF8050066F3EC
:103E2000CF10ADF80500BDF8070067F30900ADF845
:103E30000700BDF8080068F38C00ADF80800BDF875
:103E400009006CF34F10ADF80900BDF80B006FF3DB
:103E50000900ADF80B00BDF80C000840ADF80C00EF
:103E60009DF80D00694600F01F00ADF80D004846B2
:103E7000FCF710FBBDE8FF872DE9FF410DF1280895
:103E8000B1F800E098E8F010ADF800E089788DF81E
:103E900002109DF8031062F3020121F03801103185
:103EA0008DF80310BDF8031048F23F0263F3891147
:103EB000ADF803109DF8041064F385018DF804102B
:103EC000BDF804101140ADF804109DF805104EF235
:103ED000030201F07F01ADF80510BDF8071065F38E
:103EE0000901ADF80710BDF8081066F38C01ADF8B4
:103EF0000810BDF8091067F34F11ADF80910BDF8AF
:103F00000B106CF30901ADF80B10BDF80C1011404B
:103F1000ADF80C109DF80D100F2201F01F01ADF847
:103F20000D106946FCF7B6FABDE8FF812DE9FF47A1
:103F30000DF13008814698E8E010B1F80080ADF846
:103F4000008089788DF802109DF80310DDE910409B
:103F500062F3020121F0380130318DF80310BDF811
:103F60000310820A63F38911ADF803109DF8041061
:103F700065F385018DF80410BDF8041066F38E1109
:103F8000ADF804109DF8051001F07F01ADF80510A3
:103F9000BDF8071067F30901ADF80710BDF8081068
:103FA0006CF38C01ADF80810BDF8091064F34F11E3
:103FB000ADF80910BDF80B1060F30901ADF80B1056
:103FC000BDF80C1062F38C01ADF80C104FF6FF71C8
:103FD00001EA6051BDF80D000F2261F34F10ADF8FA
:103FE0000D0069464846FCF755FABDE8FF872DE904
:103FF000FF4781460CA890E8F0110888ADF8000052
:1040000088788DF802009DF8030048F23F0162F3C2
:10401000020020F038008DF80300BDF803000F22E5
:1040200063F38910ADF803009DF8040064F3850084
:104030008DF80400BDF804000840ADF804009DF8B8
:104040000500694600F07F00ADF80500BDF80700E7
:1040500065F30900ADF80700BDF8080066F38C00B1
:10406000ADF80800BDF8090067F34F10ADF809007E
:10407000BDF80B006FF30900ADF80B00BDF80C00A4
:1040800068F38C00ADF80C00BDF80D006CF34F1018
:10409000ADF80D004846FCF7FDF9BDE8FF8710B507
:1040A000FCF734FBFCF752FBFFF764FCFFF78CFCDA
:1040B000FFF7B6FCFFF7D2FCBDE81040FFF7ECBC01
:1040C000094890ED000A094800F1580180ED040A02
:1040D0000A7802704A7842708A788270CA78C27010
:1040E0000979017170470000244A0020D4000020A3
:1040F000801A01EE100A881AF8EEC11A01EE100AB1
:10410000B8EEC12A81EE821A70EE601AB0EE600A33
:1041100001EE210A7047000070B504460026002C0D
:104120002BD0164D21782868A529017028681FD149
:10413000D4F80110C0F8021005212046FFF7F6FC64
:10414000012815D128684088093086B231462046BA
:10415000FFF7CEFC012805D1B4F80500A880E11DC9
:1041600000F00EF828684188E01D08440088E880C7
:10417000A05DA52801D13444D0E770BD880000209F
:1041800070B52F4A40F20625A0F206241368A84213
:104190004AD010DC012817D0601D2FD0012822D072
:1041A000022810D103F14A001022FCF773F9BDE890
:1041B000704000F045BB012C2BD0022C3BD0032CCF
:1041C00001D10868186070BD0888188188789872D5
:1041D000197A04221B48B2EB111F01D1012100E022
:1041E0000021417070BD03F133001022FCF752F939
:1041F000FFF7C2FCBDE8704000F0EABA03F1180016
:104200001B22FCF747F9FFF7D3FCBDE8704000F034
:104210002BBB086843F8430F888898808879987189
:10422000BDE8704000F044BB087883F85A00BDE850
:10423000704000F0E9BA0888A3F85B0070BD000088
:10424000D0000020CE000020FDF7A6FBFEF762FDA7
:10425000FEF774FCFEF706FCFEF7BCFBFEF7DEFB88
:10426000FEF79AFCFEF7E6FCFEF700FDFEF71AFDEE
:10427000FEF7A8FCFEF7C2FCFFF711FFFEF740FCBB
:1042800000F00EF8FEE701460020842900D0C81C8B
:10429000704710B500B9012000F066FC002010BD89
:1042A00010B500F087FC002010BD7FB50D46044618
:1042B0004169B0F9080081B1A16971B1FFF7E3FF6D
:1042C000D4E905128DE80700D4E900102B462269D5
:1042D00000F083FD039004B070BDFFF7D4FF03A985
:1042E000CDE90001208A2B4682B2D4E9001000F00B
:1042F00047FD012801D00020EDE70398EBE700001F
:104300002DE9F041184C0F460546E6682068001D6F
:1043100000F062FB38B9206890F82C10012088402A
:10432000216981432161681C07D137B12168BDE84B
:10433000F0410E48091D00F093BB20683544B5429A
:104340004560216805D2A06BBDE8F041091D00F071
:104350006FBB606B091D00F06BFBA06A854200D249
:10436000A562BDE8F08100001C0000207409002057
:104370002DE9F041054600F07FFB2E4CA068401C63
:10438000A06020682C4F10B1606940B32DE025601B
:10439000A068012829D1002606EB860007EB8000E3
:1043A00000F038FB761C072EF6D323488C3000F043
:1043B00031FB2148A03000F02DFB1F48B43000F045
:1043C00029FB1D48C83000F025FB1B48DC3000F0FD
:1043D00021FB19488C3060631430A06305E020682D
:1043E000E96AC06A884200D82560606A401C606241
:1043F000E96A0120226988401043206101EB8100B5
:1044000007EB8000291D00F02BFB00F055FB6069D5
:1044100000280CD02068E96AC06A884207D20749A0
:104420004FF080500860BFF34F8FBFF36F8FBDE830
:10443000F08100001C0000209808002004ED00E03E
:1044400010B5044690F8510058B101280CD002284C
:104450000FD0502080F31188BFF34F8FBFF36F8FC1
:10446000FEE7206B00F03CFB2046BDE8104000F06A
:1044700037BB10BD10484FF47051420706D0C01D25
:104480000D4920F00700411AC1F570510B4A002375
:104490000144C2E900030839183A21F0070111600C
:1044A0004B600B600B1AC0E9001393604FF00040A3
:1044B00053605061704700008809002070000020A0
:1044C000144E154CA6F1C8074FF08058DFF84C90F9
:1044D00012E000BF00F0D0FAF068C568281D00F0B7
:1044E0007BFAA068401EA0606068401E606000F01B
:1044F000E3FA2846FFF7A4FF60680028EAD138688D
:104500000128F9D9C9F80080BFF34F8FBFF36F8F2F
:10451000F2E70000600900201C00002004ED00E02C
:104520002DE9F0479A46DDE9098481466FF00303DF
:10453000206B03EB82021044089E20F007077807E7
:1045400007D0502080F31188BFF34F8FBFF36F8FD8
:10455000FEE7002561B1002023180A5C83F83420AF
:104560000A5C12B1401C1028F6D384F8435001E0D5
:1045700084F83450072E00D30626E662C4E911659C
:10458000201D00F052FA04F1180000F04EFA2461E8
:10459000C6F107006462A061E56484F85050524699
:1045A0004946384600F0C0F82060B8F1000F01D04D
:1045B000C8F80040BDE8F08730B5114900E0114669
:1045C0000A688242FBD34B685C18844203D140687E
:1045D00018444860084643681C18944209D1084CA6
:1045E000183C2468A24209D052681A4442600A6802
:1045F00012680260814200D0086030BD0460F9E7B3
:10460000700000200648416B096829B1416BC968F8
:10461000C9684968816270474FF0FF31FAE70000CE
:104620001C00002008484068401C4FF0500080F3F8
:10463000118804D0BFF34F8FBFF36F8FFEE7BFF336
:104640004F8FBFF36F8FFEE7780000202DE9F04118
:104650000546002700F0E4FA324E306808B9FFF74B
:1046600009FF706905424ED1C5B3083568070ED001
:1046700005F00700C0F108000544680707D0502086
:1046800080F31188BFF34F8FBFF36F8FFEE72DB319
:104690007068854237D82348183001460C6801E01D
:1046A00020460C466168A94202D221680029F7D150
:1046B00031688C4227D0076821680160606808373C
:1046C000411B10290FD96019420708D0502080F3F0
:1046D0001188BFF34F8FBFF36F8FFEE713E0416088
:1046E0006560FFF769FF61687068401A7060B268C2
:1046F000904200D2B060706901430020C4E900011B
:10470000F068401CF06000F0F9FB780707D05020FB
:1047100080F31188BFF34F8FBFF36F8FFEE73846EA
:10472000BDE8F0815800002010B5031F4FF08074E1
:104730001C601B1F21F001011960191F044B0B6045
:1047400014390A60091F6FF0020244380A6010BD74
:10475000254600084FF47A71B1FBF0F01E21B0FB42
:10476000F1F370B50725FFF7ABFCFFF783FA174CA1
:104770006089984227D36079072819D2DFE800F0D2
:1047800004070A0D10131600FEF7E6FF10E0FEF70F
:1047900007FD0DE0FEF77CFD0AE0FEF77BFE07E07B
:1047A000FEF7F4FE04E0FFF72DF801E0FFF780F8D4
:1047B0006079401CC0B2B0FBF5F105FB11006071DF
:1047C0000020608170BD401CFBE70000D400002089
:1047D0000A480B4900680278B0F83B300B80B0F80B
:1047E00041004880022A07D000200871044A4FF493
:1047F00080710448FBF7D2BF0120F6E7D00000200B
:10480000A6000020000400200A480221006890F859
:104810005A00B1EB101F03D00421B1EB101F08D1D7
:10482000054900090A4608704FF482710348FBF7F6
:10483000B5BF7047D0000020C60000200004002053
:10484000064801680648D1F85610816100F1180247
:1048500040F203110348FBF7A1BF0000D000002085
:10486000A6000020000400200E480F49006801F156
:104870000803828D0A81027E012A02D0652A02D0B5
:1048800003E0002200E001229A70028E21F80B2F33
:10489000C08D4880044A40F2011108320348FBF7FA
:1048A0007DBF0000D0000020A600002000040020F2
:1048B000064801680648D1F84610016100F110026F
:1048C0004FF481710348FBF769BF0000D00000205E
:1048D000A60000200004002038B5044600680168E6
:1048E00040680090304884420CD1A06B0068016899
:1048F00021F0010101602D48FFF758F84FF4AF7126
:104900002A484DE02A4884421CD1A06B0068016807
:1049100021F001010160A06B01684A68062A06D1F6
:104920000968090301D5416C00E0C16B8847A16BA0
:10493000182009684860A06B0068016841F0010117
:10494000016038BD1B4884420BD1A06B0068016830
:1049500021F0010101601848FFF77EF8C8211648D0
:104960001EE0164884420DD1A06B0068016821F05A
:10497000010101601048C830FFF78CF80E48C821CB
:10498000C8300DE00E488442DBD1A06B006801689E
:1049900021F0010101600B48FFF79AF8C82109488E
:1049A000FBF7EFFDC7E70000E4040020BC45002052
:1049B000280500206C0500204A4700205C040020E8
:1049C000A0040020DA4800200A4601460148FDF70D
:1049D000B7BF0000A0040020D0E9013201699A604D
:1049E000D0E901235A604A68824201D182684A6054
:1049F000002202610868401E0860086870470000D5
:104A0000034B036003F1540008608020106070477E
:104A1000AC01002000F108014FF0FF32C0E90112A3
:104A2000C160016100210160704700210161704790
:104A300030B50B685A1C02D000F1080202E002698E
:104A400004E02246546825689D42FAD953684B60B9
:104A500099608A60516008610168491C016030BD3D
:104A600042684A6093688B609368596091600861FE
:104A70000168491C01607047502080F31188BFF322
:104A80004F8FBFF36F8F0A494868401C4860012868
:104A90000CD10848006810F0FF0F07D0502080F3B9
:104AA0001188BFF34F8FBFF36F8FFEE77047000091
:104AB0007800002004ED00E00849486828B1401E55
:104AC000486001D180F311887047502080F311882D
:104AD000BFF34F8FBFF36F8FFEE700007800002019
:104AE00070B500282AD0164DA0F1080460686969E5
:104AF000084207D1502080F31188BFF34F8FBFF3D6
:104B00006F8FFEE722683AB1502080F31188BFF31F
:104B10004F8FBFF36F8FFEE78843606000F080F82F
:104B200060686968084468602046FFF745FD2869A9
:104B3000401C2861BDE8704000F0E0B970BD000085
:104B4000580000204FF0E0200021016181610549FB
:104B50004FF47A720968B1FBF2F1491E41610721F5
:104B6000016170471800002010B5020014D00F48F2
:104B7000006B38B1502080F31188BFF34F8FBFF323
:104B80006F8FFEE700F04CF800211046FFF7B8FBEE
:104B900000F0B4F9002807D105494FF080500860B3
:104BA000BFF34F8FBFF36F8F10BD00001C000020BC
:104BB00004ED00E010B586B00024039405AA04A912
:104BC00003A80494FFF71CFFDDE903010094CDE97D
:104BD000011000230EA11048059A00F0FEF80F49BD
:104BE0000028C86211D0502080F31188BFF34F8F86
:104BF000BFF36F8F4FF0FF30886201204861CC60B7
:104C000006B0BDE8104000F041B806B010BD00008D
:104C100049444C4500000000C14400081C0000202D
:104C20000248016B491C0163704700001C00002012
:104C30001448016B11B10121C16170470021C161AC
:104C40000169B1FA81F1C1F11F0101EB81020E4945
:104C500051F822306BB101EB820101F108034A687F
:104C600052684A609A4201D152684A60D168016034
:104C70007047502080F31188BFF34F8FBFF36F8FC1
:104C8000FEE700001C000020980800201CB53748F3
:104C90000168374A914207D1502080F31188BFF351
:104CA0004F8FBFF36F8FFEE700683149491E88427E
:104CB00007D1502080F31188BFF34F8FBFF36F8F60
:104CC000FEE72C4908780190FF20087008788DF8DD
:104CD00000009DF800009DF8002000F0F0009042D8
:104CE00007D0502080F31188BFF34F8FBFF36F8F31
:104CF000FEE79DF80000204C00F0500020700720D7
:104D0000A06005E09DF8002052008DF80020401EB4
:104D10009DF800201206F5D4A060032807D050208B
:104D200080F31188BFF34F8FBFF36F8FFEE74FF40F
:104D30004070A060019808700C482030016841F470
:104D400070010160016841F070410160FFF7FAFEF7
:104D500000206060FBF7ACFA0848016841F0404170
:104D60000160FBF791FA00201CBD000000ED00E09F
:104D700071C20F4100E400E07800002034EF00E051
:104D80002DE9FF5F8346DDE90E87994616468A4680
:104D90009000FFF75BFC05001CD05420FFF756FC89
:104DA000040014D00020256384F85100CDE90240AE
:104DB000CDE900874B46324651465846FFF7B0FBD7
:104DC0002046FFF7D5FA012004B0BDE8F09F284641
:104DD000FFF786FE4FF0FF30F6E7F0B585B0DDE96E
:104DE0000B640A9DA6B1DCB1542700972663022606
:104DF00084F85160002604AFCDE90246CDE90057A2
:104E0000FFF78EFB2046FFF7B3FA049805B0F0BD1C
:104E1000502080F31188BFF34F8FBFF36F8FFEE7F1
:104E2000502080F31188BFF34F8FBFF36F8FFEE7E1
:104E30002DE9F0412F4C0026206B28B1A069401CC1
:104E4000A0613046BDE8F081E5686D1CE56013D1D6
:104E5000606B006838B1502080F31188BFF34F8F2A
:104E6000BFF36F8FFEE7606BA16B6163A063206A85
:104E7000401C2062FFF7C6FBA06ADFF87C808542F9
:104E800009D3606B0068A0B1606BC068C7687868C0
:104E9000854211D2A0622068C06A00EB800158F8F8
:104EA0002100012800D90126E0690028C9D0012687
:104EB000C7E74FF0FF30EDE7381DFFF78DFDB86A0B
:104EC00018B107F11800FFF787FDF96A0120226980
:104ED00088401043206101EB810108EB8100391DFE
:104EE000FFF7BEFDF86A2168C96A8842C9D3012666
:104EF000C7E700001C000020980800202DE9F047BB
:104F00002C4D00242746286B38B1FFF7B5FD286BE0
:104F1000401E2863286B40B146E0502080F3118882
:104F2000BFF34F8FBFF36F8FFEE7A968224E0120BA
:104F3000D1B3A6F1B40980463068E8B1F068C4681E
:104F400004F11800FFF748FD201DFFF745FDE06A5A
:104F50002A6908FA00F11143296100EB800109EB8D
:104F60008100211DFFF77CFDE06A2968C96A88423B
:104F7000E2D3C5F81C80DFE70CB1FFF743FBAC6957
:104F800044B14646FFF754FF00B1EE61641EF9D10B
:104F90000020A861E86938B108490127380708608E
:104FA000BFF34F8FBFF36F8FFFF786FD3846BDE825
:104FB000F08700001C0000204C09002004ED00E0F8
:104FC0004FF04070E1EE100A7047000030530008C7
:104FD000E12C00080000000000000000800000003C
:104FE000000000000000000024530008D50700085E
:104FF00002000000000000000004000000000000AB
:105000000000000000061016000610160000000048
:105010000000000001020304060708090000000068
:1050200001020304005EBCE2613FDD83C29C7E207E
:10503000A3FD1F419DC3217FFCA2401E5F01E3BD74
:105040003E6082DC237D9FC1421CFEA0E1BF5D0368
:1050500080DE3C62BEE0025CDF81633D7C22C09E5C
:105060001D43A1FF4618FAA427799BC584DA386648
:10507000E5BB5907DB856739BAE406581947A5FB34
:105080007826C49A653BD987045AB8E6A7F91B4528
:10509000C6987A24F8A6441A99C7257B3A6486D81C
:1050A0005B05E7B98CD2306EEDB3510F4E10F2AC08
:1050B0002F7193CD114FADF3702ECC92D38D6F31F4
:1050C000B2EC0E50AFF1134DCE90722C6D33D18FE8
:1050D0000C52B0EE326C8ED0530DEFB1F0AE4C12DC
:1050E00091CF2D73CA947628ABF517490856B4EAC8
:1050F0006937D58B5709EBB536688AD495CB2977B4
:10510000F4AA4816E9B7550B88D6346A2B7597C9A7
:105110004A14F6A8742AC896154BA9F7B6E80A549B
:10512000D7896B350000891112239B322446AD5775
:105130003665BF74488CC19D5AAFD3BE6CCAE5DBDF
:105140007EE9F7F88110080193331A22A5562C47FF
:10515000B7753E64C99C408DDBBF52AEEDDA64CBBF
:10516000FFF976E802218B30100299132667AF769B
:105170003444BD554AADC3BC588ED19F6EEBE7FA9F
:105180007CC8F5D983310A2091121803A7772E66BF
:10519000B5543C45CBBD42ACD99E508FEFFB66EA7F
:1051A000FDD874C904428D5316619F702004A9155F
:1051B0003227BB364CCEC5DF5EEDD7FC6888E1995F
:1051C0007AABF3BA85520C4397711E60A11428057F
:1051D000B3373A26CDDE44CFDFFD56ECE99860893F
:1051E000FBBB72AA06638F7214409D512225AB341B
:1051F0003006B9174EEFC7FE5CCCD5DD6AA9E3B81F
:10520000788AF19B87730E6295501C41A3352A243E
:10521000B1163807CFFF46EEDDDC54CDEBB962A8FE
:10522000F99A708B088481951AA793B62CC2A5D3DE
:105230003EE1B7F04008C919522BDB3A644EED5FEE
:10524000766DFF7C899400859BB712A6ADD224C3EE
:10525000BFF136E0C1184809D33B5A2AE55E6C4FCE
:10526000F77D7E6C0AA583B4188691972EE3A7F28A
:105270003CC0B5D14229CB38500AD91B666FEF7EAE
:10528000744CFD5D8BB502A499961087AFF326E2AE
:10529000BDD034C1C3394A28D11A580BE77F6E6E8E
:1052A000F55C7C4D0CC685D71EE597F42880A1914E
:1052B0003AA3B3B2444ACD5B5669DF78600CE91D6E
:1052C000722FFB3E8DD604C79FF516E4A99020816E
:1052D000BBB332A2C55A4C4BD7795E68E11C680D4E
:1052E000F33F7A2E0EE787F61CC495D52AA1A3B00A
:1052F0003882B193466BCF7A5448DD59622DEB3C2E
:10530000700EF91F8FF706E69DD414C5ABB122A02D
:10531000B9923083C77B4E6AD5585C49E33D6A2C0D
:10532000F11E780F436F6E74726F6C5461736B0073
:1053300064656661756C745461736B005C5300083E
:1053400000000020AC010000C4010008B4530008B4
:10535000AC0100206452000020020008C13201822A
:1053600010036124F41AAA014123FFFF2290024492
:10537000206B304A481CBC038BD112012A01D73163
:105380006B7041E4093A0811000A15535550455213
:105390004341503A080914544F505F4D4F44451E45
:1053A0000F14564953494F4E1C210D16465249437E
:0453B0001C5100008C
:040000050800018965
:00000001FF
