:020000040800F2
:100000003866002029030008EF350008B5300008E5
:10001000ED350008C70500084B3F00080000000050
:10002000000000000000000000000000690200085D
:10003000130F000800000000C5020008A9370008DF
:100040004303000843030008430300084303000878
:100050004303000843030008430300084303000868
:10006000430300084303000843030008710B000822
:100070007D0B0008890B0008950B0008A10B0008F8
:10008000AD0B0008430300084303000843030008C6
:100090005106000843030008430300084303000817
:1000A0004303000843030008430300084303000818
:1000B0007D38000843030008430300084303000899
:1000C00043030008430300084303000843030008F8
:1000D00043030008B93D00080D3E0008813E0008BA
:1000E00043030008430300084303000843030008D8
:1000F000430300084303000843030008B90B00084A
:1001000043030008430300084303000843030008B7
:100110005D3B0008753B00084303000843030008EB
:100120004303000843030008C50B0008430300080D
:100130004303000843030008430300084303000887
:100140002107000843030008430300084303000895
:100150004303000843030008D10B000843030008D1
:100160004303000843030008430300084303000857
:100170004303000843030008430300080000000095
:10018000430300084303000800F002F800F05CF8A5
:100190000AA090E8000C82448344AAF10107DA45E2
:1001A00001D100F051F8AFF2090EBAE80F0013F0D8
:1001B000010F18BFFB1A43F00103184760690000E4
:1001C000806900000A444FF0000C10F8013B13F066
:1001D000070408BF10F8014B1D1108BF10F8015BA0
:1001E000641E05D010F8016B641E01F8016BF9D193
:1001F00013F0080F1EBF10F8014BAD1C0C1B09D1EA
:100200006D1E58BF01F801CBFAD505E014F8016B5B
:1002100001F8016B6D1EF9D59142D6D370470000ED
:100220000023002400250026103A28BF78C1FBD8FF
:10023000520728BF30C148BF0B6070471FB506F09A
:1002400019FC1FBD10B510BD00F088F91146FFF76D
:10025000F5FF04F000FF00F0A6F903B4FFF7F2FF8A
:1002600003BC00F0A9F900002C4B19680868B0E83D
:10027000F04F80F30988BFF36F8F4FF0000080F3D9
:10028000118870470000000008480068006880F38B
:1002900008884FF0000080F3148862B661B6BFF39F
:1002A0004F8FBFF36F8F00DF00BF00BF08ED00E08E
:1002B000DFF80C00016841F470010160704700BF75
:1002C00088ED00E0EFF30980BFF36F8F134B1A68DE
:1002D0001EF0100F08BF20ED108A20E9F04F1060CB
:1002E00009B44FF0500080F31188BFF34F8FBFF374
:1002F0006F8F06F0F7F94FF0000080F3118809BC0A
:1003000019680868B0E8F04F1EF0100F08BFB0EC95
:10031000108A80F30988BFF36F8F70472000002098
:10032000EFF30580704700000948804709480047FF
:10033000FEE7FEE7FEE7FEE7FEE7FEE7FEE7FEE795
:10034000FEE7FEE704480549054A064B70470000F2
:100350006D380008890100083860002038660020E8
:10036000386200203862002053EA020C00F06980F5
:100370002DE9F04B4FF00006002B1FBFB3FA83F5B9
:1003800003FA05F424FA05F65E4012BF1643B2FAEA
:1003900082F502FA05F4C5F120051EBF22FA05FC1C
:1003A00044EA0C04203556EA044C4FEA144418BFC2
:1003B000641C4FF000084FF00009904271EB030CF1
:1003C00039D3002919BFB1FA81F701FA07F6B0FA5B
:1003D00080F700FA07F6C7F120071EBF20FA07FCD6
:1003E00046EA0C062037B6FBF4FCA7EB0507103FE6
:1003F00007F01F0BCBF120060CFA0BFB2CFA06F6CC
:1004000044BFB3460026202FA4BF5E464FF0000B2A
:100410005BEA060C08BF4FF0010B19EB0B09ABFBB5
:10042000027C48EB0608C01B06FB02CC0BFB03CC8E
:1004300071EB0C01C1E70B46024641464846BDE858
:10044000F08B13B54FF000004FF00001AFF30080C8
:10045000BDE81C40704710B5203AC0F00B80B1E8F1
:100460001850203AA0E81850B1E81850A0E81850E9
:10047000BFF4F5AF5FEA027C24BFB1E81850A0E8F2
:10048000185044BF18C918C0BDE810405FEA827C0C
:1004900024BF51F8043B40F8043B08BF7047D20723
:1004A00028BF31F8023B48BF11F8012B28BF20F8C4
:1004B000023B48BF00F8012B70474FF000020429AF
:1004C000C0F0128010F0030C00F01B80CCF1040C83
:1004D000BCF1020F18BF00F8012BA8BF20F8022BB7
:1004E000A1EB0C0100F00DB85FEAC17C24BF00F85D
:1004F000012B00F8012B48BF00F8012B70474FF08B
:10050000000200B5134694469646203922BFA0E863
:100510000C50A0E80C50B1F12001BFF4F7AF09076F
:1005200028BFA0E80C5048BF0CC05DF804EB890060
:1005300028BF40F8042B08BF704748BF20F8022BA3
:1005400011F0804F18BF00F8012B704770477047BB
:100550007047000000487047D85F00207546FFF7DD
:10056000F9FFAE4605006946534620F00700854670
:1005700018B020B5FFF7E6FEBDE820404FF00006BA
:100580004FF000074FF000084FF0000B21F007017B
:10059000AC46ACE8C009ACE8C009ACE8C009ACE8BE
:1005A000C0098D46704710B50446AFF30080204661
:1005B000BDE81040FFF751BE01491820ABBEFEE771
:1005C000260002007047FEE730B4144A144BA0F234
:1005D0000120052820D2DFE800F003080D121700E3
:1005E000D2F8E03108220D4814E0D2F8E4330822B2
:1005F0000A480DE0D2F8E83508220A480AE0D3F8A4
:10060000E0310822064805E0D3F8E4330448082224
:1006100000F5017030BC184730BC70470001002065
:100620000C0700200805002000B58BB0684600F0DC
:10063000A3F86946054800F0E5FC0221034800F0F4
:100640006BFC024801F00CF80BB000BD3417002021
:10065000014800F0D2BD0000341700201CB50A8804
:10066000120A8DF800200A788DF801204A88120AB3
:100670008DF802208A788DF803208A88120A8DF876
:1006800004200A798DF80520CA88120A8DF8062000
:1006900089798DF8071001466A46024800F07AF819
:1006A0001CBD0000341700200F4AA0F5007001386F
:1006B0000AD001280DD0022810D0032813D1D2F877
:1006C000EC37082209481847D2F8E03108220648DA
:1006D000F9E7D2F8E43308220548F4E7D2F8E83520
:1006E00008220448EFE77047140B00202011002077
:1006F000180D00201C0F002000B58BB0684600F0DC
:100700003BF86946054800F07DFC0221034800F0F3
:1007100003FC024800F0A4FF0BB000BD5C170020F2
:10072000014800F06ABD00005C1700201CB50A8873
:10073000120A8DF800200A788DF801204A88120AE2
:100740008DF802208A788DF803208A88120A8DF8A5
:1007500004200A798DF80520CA88120A8DF806202F
:1007600089798DF8071001466A46024800F012F8B0
:100770001CBD00005C170020002101604160816009
:10078000C160016101224161C0E90612C0E908218E
:100790007047000010B50B4C036888B0A34202D02C
:1007A000094CA3420BD10091002102910391082131
:1007B000049106AB694600F0C1FB002800D001207F
:1007C00008B010BD006400400068004008B1012876
:1007D00002D1024981F8310070470000AC000020CE
:1007E000704700B5034608680A46002821D05068C3
:1007F00000281ED0906800281BD0D068002818D090
:10080000106910B90020FFF7E1FF90689860106848
:10081000186050685860D068D8604FF4FA509886D5
:1008200042F6E060D886002083F83100322083F859
:10083000300000BD2DE9F041044600686268B0F95F
:100840000210B2F90270A268D0F8F431B2F9026075
:10085000E268B2F90250B4F9202000EE102A00F14B
:100860002C021046F8EEC00A00EE101AB8EEC00ACC
:100870009847BDEEC00A10EE100A2085B4F9220098
:1008800000EE100A6068F8EEC00A00EE107A00F17F
:100890002C01D0F8F421B8EEC00A08469047BDEE0E
:1008A000C00A10EE100A6085B4F9240000EE100AA8
:1008B000A068F8EEC00A00EE106A00F12C01D0F832
:1008C000F421B8EEC00A08469047BDEEC00A10EE0B
:1008D000100AA085B4F9260000EE100AE068F8EED0
:1008E000C00A00EE105A00F12C01D0F8F421B8EE45
:1008F000C00A08469047BDEEC00A10EE100AE08517
:10090000BDE8F081FCB53749B0F92840364EC96BD7
:100910009FED361AB1F90010ADF8004000EE101A44
:10092000B0F92A30ADF80230B8EEC00AB0F92C2088
:10093000ADF8042010EE105AB0F92E10ADF80610E4
:10094000B54201DDB0EE410A10EE105AC0EE010AC8
:10095000274FBD4201DA60EEA00A10EE105A9FED5B
:10096000250AB54201DA20EE800A002C00DC644240
:10097000002B00DC5B422344002A00DC52421A4474
:10098000002900DC4942114400EE901AF8EEE00A1A
:1009900080EE201AF4EEC00AF1EE10FA14DB00210A
:1009A0004FEA0D0232F9113000EE103AB8EEC00AEB
:1009B00020EE010ABDEEC00A10EE103A22F8113006
:1009C000491CC9B20429EDD3BDF800100185BDF85A
:1009D00002104185BDF804108185BDF80610C1855F
:1009E000FCBD0000AC00002000007042000070421E
:1009F0000000C8410000FA4630B58C18E51805849F
:100A0000551A1D44891A458419448184191BC184CF
:100A100030BD30B5B0F91030002B01DD194600E0D3
:100A20005942B0F91220002A01DD144600E0544278
:100A30000D19B0F91410002901DD0C4600E04C42FC
:100A40002C44C58E24B2A5420ADA00EE105AF8EE04
:100A5000400A00EE104AB8EEC01A80EE810A01E0AA
:100A6000B7EE000A00EE903AF8EEE00A60EE800A77
:100A7000FDEEE00A10EE903A00EE902A0382F8EEC6
:100A8000E00A60EE800AFDEEE00A10EE902A00EE29
:100A9000901A4282F8EEE00A20EE800ABDEEC00A0B
:100AA00010EE101A818230BD10B50446B0F9101056
:100AB000B0F91220B0F91430FFF79EFF2046FFF77F
:100AC000A8FF2046FFF7B6FE2046FFF71BFF0548AC
:100AD000218D0180618D4180A18D8180E18DC1805A
:100AE00010BD00009800002008B1012802D1024981
:100AF00081F8320070470000AC00002002F04AFE8E
:100B0000154D4FF40076771E144805F00DF968680E
:100B10008078B8B105F0ECF8114934463046FFF75B
:100B20009DFD10492046FFF701FE0F493C4638461F
:100B3000FFF794FD0D492046FFF7F8FD012004F072
:100B400077FEE1E7044805F0FFF903F007FF04F042
:100B5000C7F803F0B9FADFE7D8140020B814002072
:100B6000880000209800002090000020A0000020B5
:100B7000014800F003BE0000281A0020014800F0E0
:100B8000FDBD0000081C0020014800F0F7BD00007A
:100B900068190020014800F0F1BD0000681C002029
:100BA000014800F0EBBD0000C8190020014800F02A
:100BB000E5BD0000A81B0020014800F0DFBD0000DB
:100BC000881A0020014800F0D9BD0000E81A002072
:100BD000014800F0D3BD0000481B00202DE9F04F74
:100BE00085680024099E802D18D0894DC563894DE4
:100BF000456490F83450012D15D0012580F834500B
:100C000090F83550012D10D0002180F834100224C6
:100C1000002180F834102046BDE8F08F4FF4807139
:100C200041650120F8E70220F6E7022580F83550FB
:100C30000025456505682F6847F480272F60056803
:100C40002B6103685E608368402B03682AD099603B
:100C50000168CA60714D704E704FDFF8BC81DFF8DB
:100C6000B891DFF8B8A1DFF8B4B1EA14DFF8A8E171
:100C70000168183630379302A9F148090AF1600A71
:100C80000BF1180BAEF1300E4FF0006C41452DD931
:100C9000A94205D0494503D0514501D0B14205D103
:100CA000202220E09A600268D160D3E759451AD02B
:100CB000714518D0594D7835A94214D0564D30356C
:100CC000A94210D0B9420BD0534A183A914207D0EA
:100CD000524A9032914203D04F4A4832914201D158
:100CE0001A4600E062464C494C392EE0DFF82C8170
:100CF00008F1A80841452AD9A94205D0494503D0A1
:100D0000514501D0B14201D120221CE059451AD0F1
:100D1000714518D0414D7835A94214D03E4D30353B
:100D2000A94210D0B9420BD03B4A183A914207D0A1
:100D30003A4A9032914203D0374A4832914201D127
:100D40001A4600E06246344950390A605AE0DFF83A
:100D5000CC8008F1480841452AD9A94205D0494527
:100D600003D0514501D0B14201D120221CE05945A8
:100D70001AD0714518D0294D7835A94214D0264D86
:100D80003035A94210D0B9420BD0234A183A9142CB
:100D900007D0224A9032914203D01F4A48329142F2
:100DA00001D11A4600E062461C491039CA6029E0A8
:100DB000A94205D0494503D0514501D0B14201D1E6
:100DC00020221CE059451AD0714518D0134D7835B2
:100DD000A94214D0104D3035A94210D0B9420BD0E1
:100DE0000D4A183A914207D00C4A9032914203D0F2
:100DF000094A4832914201D11A4600E06246074949
:100E000010398A6001680A6842F001020A60FFE650
:100E1000E5430008F94300085864024010600240AE
:100E200001681823CAB2103AB2FBF3F2054B6FF314
:100E30000901032A9B5CC36500D9091D8165084629
:100E400070470000D46A000810B5014600208B6985
:100E50008A6A4FF0C07453B1B3F5005F15D072B118
:100E6000012A0CD0022A0AD0032A09D104E01AB1BF
:100E7000012A06D0022A03D1C96AC90100D501207E
:100E800010BDC96AA142FAD010BD002AF7D0012ACC
:100E9000F2D0022AF3D0032AF3D010BD70B590F837
:100EA00034500024012D0CD0012580F8345090F8E6
:100EB00035600025012E06D080F8345002242046EB
:100EC00070BD022070BD022680F83560456505685A
:100ED0002E6826F480262E6005686B608368402BA0
:100EE000036808D099600168CA600068016841F031
:100EF00001010160E3E79A600268D160F5E70168EB
:100F00000A68D20604D5C968C90601D505F046BAF3
:100F10007047704772B6FEE790F82020012A07D08C
:100F2000022A05D0416A41F48021416201207047C4
:100F3000006842690A43426100207047F0B590F8AA
:100F400020500468A468012D05D0022D03D0416A09
:100F500041F4802153E014F0406F01D1E5004BD5FE
:100F6000C4F30164022C03D9416A41F4000146E054
:100F70000125A5401D608D684FF4C0739DB1CE68FA
:100F800035434E6845EAC605066803EB0417F5517C
:100F90004FF4C275076805EB04150E697E51097D93
:100FA000012905D009E00E88CD6845EA4655EBE7F2
:100FB00001684E5946F480764E511179D2F80550A9
:100FC0004FF4C67641EA0525016806EB04168D51FB
:100FD0001178D2F801204FF4C47541EA0221026869
:100FE00005EB04155151006803EB0411425842F01F
:100FF000010242500020F0BD416A41F400114162FB
:101000000120F0BD10B590F82020012A07D0022A57
:1010100005D0416A41F480214162012010BD3B4866
:10102000D0F8002242F00102C0F80022D0F80022DD
:1010300022F47C52C0F80022D0F800224B6A42EA27
:101040000322C0F800220A7D02F01F0301229A4009
:10105000D0F81C329343C0F81C32CB69B3B9D0F836
:101060000C329343C0F80C328C894B6864F31F43F5
:101070004C6900EBC404C4F840320C890B6864F37B
:101080001F434C6900EBC404C4F84432CB69012B04
:1010900016D1D0F80C321343C0F80C320C884B68D0
:1010A00064F31F434C6900EBC404C4F840320C895C
:1010B000CB6864F31F434C6900EBC404C4F84432AA
:1010C0008B69002BD0F804320ED01343C0F80432E1
:1010D0000B69002BD0F8143208D01343C0F8143237
:1010E000096A012904D008E09343EFE79343F5E749
:1010F000D0F81C121143C0F81C12D0F8001221F0D5
:101100000101C0F80012002010BD00000064004082
:10111000704730B590F82040012C05D0022C03D048
:10112000416A41F480215DE00468002955D02469BA
:10113000A40754D04FF4D874056804EB01142D595A
:1011400015F00405956005682D594ED0ED085560E1
:1011500005682C5904F00204D4604FF4DA74056871
:1011600004EB01142D5905F00F05156105682D5983
:10117000C5F30725956105682C59240C54614FF47B
:10118000DC72046802EB0112A4581C700468A458B5
:10119000240A5C700468A458240C9C700468A2584B
:1011A000120EDA704FF4DE72046802EB0112A458DA
:1011B0001C710468A458240A5C710468A458240CA7
:1011C0009C710468A258120EDA71006881B101693D
:1011D00041F020010161002030BDE468A8E7416AC8
:1011E00041F400114162012030BD6D0D1560AFE783
:1011F000C16841F02001C160EDE72DE9F05F0546CF
:10120000006800244669D0F804908768D0F80CB0D4
:10121000D0F810A0D0F81880F10748D0F90714D002
:1012200001218160B80703D5284600F046FA0CE09A
:10123000780702D54FF4006407E0380702D54FF471
:10124000805402E0284600F037FAF80516D52968E0
:101250004FF480708860B80503D5284600F02FFA57
:101260000CE0780502D544F4005407E0380502D5B7
:1012700044F4804402E0284600F020FAF80316D532
:1012800029684FF480308860B80303D5284600F001
:1012900018FA0CE0780302D544F4004407E0380360
:1012A00002D544F4803402E0284600F009FA300701
:1012B00007D55FEACB6004D52968102044F4007498
:1012C000C86070074FF0080707D55FEA0B7004D5B8
:1012D0002868C760284600F099F9B00706D5286845
:1012E000C068800702D0284600F092F9700607D542
:1012F0005FEACA6004D52968102044F4806408615C
:10130000B00607D55FEA0A7004D528680761284649
:1013100000F0A2F9F00606D528680069800702D01F
:10132000284600F09AF9B00308D55FEAC96005D5F0
:10133000296810204860284600F090F9F00307D58E
:101340005FEA097004D528684760284600F0BAF9BA
:10135000300446D55FEA497040D5F00504D55FEA10
:10136000C87001D044F00104B00504D55FEA88706C
:1013700001D544F00204700504D55FEA487001D538
:1013800044F00404300529D518F0700F26D008F079
:101390007000402815D006DC102809D020280AD07B
:1013A000302816D10AE050280ED0602811D10EE066
:1013B00044F008040DE044F010040AE044F0200476
:1013C00007E044F0400404E044F0800401E044F409
:1013D00080742868816921F0700181612968042086
:1013E0004860002C05D0686A204368622846FFF7F1
:1013F0008FFEBDE8F09F70B5040003D094F8200084
:1014000010B104E0012070BD204600F081F8206892
:10141000016841F00101016000F0E8FB0546052686
:1014200004E000F0E3FB401B0A2811D82068406864
:10143000C007F6D02068016821F00201016000F0C9
:10144000D5FB05460BE000F0D1FB401B0A2806D96E
:10145000606A40F40030606284F82060D2E720685F
:1014600040688007EFD4207E0128206801683DD0C5
:1014700021F080010160607E01282068016838D079
:1014800021F040010160A07E01282068016833D06E
:1014900021F020010160E07E0128206801682ED043
:1014A00041F010010160207F01282068016829D0E7
:1014B00021F008010160607F01282068016824D0C4
:1014C00021F004010160D4E902010843D4E90412C7
:1014D000114308436168491E08432168C861002020
:1014E0006062012084F82000002070BD41F080017E
:1014F000C0E741F04001C5E741F02001CAE721F013
:101500001001CFE741F00801D4E741F00401D9E729
:10151000F0B587B0044614216846FEF7F0FF364B5D
:101520003648DFF8D0E01968D4F800C0334A032504
:101530000226092710300024491CF44522D11960E5
:10154000012907D1016841F000710160006800F0D5
:1015500000700590106840F0080010601068CDE938
:10156000005600F00800CDE9047069462448CDE932
:10157000024500F03DFA00220521142000F0C2FBD4
:10158000142032E0DFF87CE0F44530D1D0F800C020
:101590004CF0806CC0F800C0D0F800C001290CF0FD
:1015A000806CCDF814C0196007D1016841F000715A
:1015B0000160006800F000700590106840F00200C3
:1015C0001060106802AB00F0020005906020CDE9C9
:1015D000000683E8B00069460B4800F009FA0022D3
:1015E0000521402000F08EFB402000F07DFB07B07D
:1015F000F0BD0000006400400C00002030380240C4
:10160000000C0240006800400004024070470000E7
:1016100070B50E4B04461D46A3F11C020021FFF7D6
:1016200078FD0A480A491C388C4205D100682946D1
:10163000BDE87040FEF7C8BF06498C4205D100687E
:101640002946BDE87040FFF72FB870BD3C5A002016
:10165000341700205C170020704770477047000067
:1016600070B5044690F82000012804D0606A40F468
:101670000020606218E0022084F8200020680168E1
:1016800021F00101016000F0B1FA05460EE000BF53
:1016900000F0ACFA401B0A2808D9606A40F4003018
:1016A0006062052084F82000012070BD2068406839
:1016B000C007EDD1606270BD7047704770477047DA
:1016C0007047704770472DE9F0410446876D00F080
:1016D0008DFA064694F835000025022806D08020B1
:1016E000606584F834500120BDE8F081206801680D
:1016F00021F0160101602068416921F080014161FB
:10170000206C08B9A06C20B12068016821F00801A4
:1017100001602068016821F0010101600CE000F027
:1017200065FA801B052807D920206065032084F80E
:10173000350084F83450D7E720680068C007EED140
:1017400094F85C103F208840B860012084F8350090
:1017500084F834500020C7E790F83510022903D0F0
:101760008021416501207047052180F8351000680F
:10177000016821F001010160002070472DE9F84364
:1017800004464FF00009CDF8009063484FF416511D
:10179000A56D0068B0FBF1F72E6894F85C10082086
:1017A00000FA01F131420FD021680A6852070BD5C7
:1017B0000A6822F004020A6094F85C108840A8606D
:1017C000606D40F00100606594F85C104FF0010816
:1017D00008FA01F0304208D021684969090604D5A9
:1017E000A860606D40F00200606594F85C10042011
:1017F0008840304208D021680968890704D5A8606C
:10180000606D40F00400606594F85C101020884022
:10181000304218D021680968090714D5A8602068EB
:101820000168490304D50068000308D5A16C07E0EE
:101830000168C90503D4016821F008010160216C29
:1018400009B12046884794F85C1020208840304237
:1018500031D021680968C9062DD5A86094F83500F3
:1018600005282068016806D0490347D500680003B1
:101870001DD4616C1CE021F01601016020684169F3
:1018800021F080014161206C08B9A06C20B1206872
:10189000016821F00801016094F85C103F20884045
:1018A000A86084F8358084F83490216D1FE0E16BE6
:1018B00009B120468847606D00282BD0606DC007B5
:1018C00014D0052084F835002068016821F001015A
:1018D00001600098401C0090B84203D8206800685E
:1018E000C007F6D184F8358084F83490E16C002983
:1018F00010D001B02046BDE8F04308470168C90593
:10190000D5D4016821F01001016084F8358084F895
:101910003490CCE7BDE8F8831C0000202DE9F041AD
:10192000044600F063F906465CB1022084F83500F5
:10193000002584F834502068016821F0010101601D
:101940000DE00120BDE8F08100F050F9801B052872
:1019500005D920206065032084F83500F2E720686F
:101960000068C007F0D12268116820480140D4E91E
:1019700001031843D4E9033633431843636918431A
:10198000A3691843E3691843236A18430843616A4B
:10199000042903D1D4E90B131943084310602068CC
:1019A0004069666A20F0070130460E43012704288B
:1019B0000CD1A06A0643E06A40B12046FFF744FA22
:1019C00020B14020606584F83570BAE72068466130
:1019D0002046FFF725FA94F85C203F219140816072
:1019E000656584F835700020ACE700003F8010F09A
:1019F0002DE9F84FDFF8BCA1002201250AF1040B04
:101A000003264FF00F090BF1040E00BF0B6805FA17
:101A100002F42340A34270D10F7907F00307012F8E
:101A200001D0022F16D187684FEA420806FA08FC57
:101A300027EA0C07D1F80CC00CFA08FC4CEA070C9A
:101A4000C0F808C04768A7430C79C4F30014944059
:101A50003C4344600C79E443A4070AD0C4684FEACD
:101A6000420C06FA0CF7BC438F6807FA0CF72743C1
:101A7000C7600C7904F00304022C12D1D40800EBE7
:101A8000840CDCF820405707FF0E09FA07F824EA17
:101A90000804D1F8108008FA07F848EA0408CCF8DE
:101AA000208004684FEA420C06FA0CF7BC430F7919
:101AB00007F0030707FA0CF7274307604C6814F494
:101AC000403F70D03C4C276847F48047276024682B
:101AD00022F0030704F480440094384C07EB040C14
:101AE000DCF8084897074FEA177809FA08F7BC436B
:101AF000334FB84202D1002724E054E0314FB842BE
:101B000001D101271EE0304FB84201D1022719E070
:101B10002E4FB84201D1032714E02D4FB84201D116
:101B200004270FE02B4FB84201D105270AE02A4FC6
:101B3000B84201D1062705E0284FB84201D1072756
:101B400000E0082707FA08F72743CCF80878DAF806
:101B500000405746D1F804C09C435FEACC3C00D516
:101B60001C433C60DBF800405F46D1F804C09C4356
:101B70005FEA8C3C00D51C433C60DEF800407746B1
:101B8000D1F804C09C435FEACC2C00D51C433C60D8
:101B9000084F0C373C68D1F804C09C435FEA8C2C9A
:101BA00000D51C433C60521C102AFFF42FAFBDE847
:101BB000F88F0000003C01404438024000300140F2
:101BC000000002400004024000080240000C0240F5
:101BD000001002400014024000180240001C0240A5
:101BE0000AB1816170470904FBE700000148806881
:101BF00070470000100000200248816802781144FC
:101C000081607047100000200B4810B5016841F456
:101C100000710160016841F480610160016841F474
:101C200080710160032000F08DF80F2000F006F8AD
:101C300000F03EF8002010BD003C024010B5014607
:101C400088B000221C2000F05DF81C2000F04CF849
:101C500014480024016841F001010160006805A9F1
:101C600000F001000690684600F02AF900F048F9FB
:101C70000D494000B0FBF1F10C484FF08042491E85
:101C8000026040F2E732C0E90324C0E9011400F029
:101C9000B3FB10B1012008B010BD044800F0FCFBFC
:101CA000F9E700004038024040420F00C81C002005
:101CB0000C4882B0016841F480410160006800F482
:101CC000804000900748001F016841F0805101608A
:101CD0000068002200F0805000900F21901E02B09A
:101CE00000F010B844380240002809DB00F01F0261
:101CF000012191404009800000F1E020C0F800116E
:101D000070470000F0B40E4B1B680C46C3F302236F
:101D1000C3F10705042D00D90425191D072901D297
:101D2000002300E0DB1E012606FA05F1491E2140D2
:101D300099409E40761E16403143F0BC02F006B931
:101D40000CED00E0064900F0070208684FF6FF03BB
:101D5000184040EA0220034A104308607047000020
:101D60000CED00E00000FA05BFF34F8F0548016855
:101D7000054A01F4E06111430160BFF34F8F00BFDA
:101D8000FDE700000CED00E00400FA052DE9F04746
:101D90000E46050065D0DFF81481D8F80000F7B2D0
:101DA00000F00700B04207D288F80070D8F80000B1
:101DB00000F00700B04254D128683D4C810712D58D
:101DC000400703D5206840F4E050206028780007E1
:101DD00003D5206840F4604020602068A96820F0A6
:101DE000F000084320602878C0072DD0304968688B
:101DF0000839012812D0022813D0032811D009680D
:101E0000890700292DDA216821F0030101432160AF
:101E1000FFF7ECFE814641F2883A0EE0096889033B
:101E2000EFE709688901ECE7FFF7E0FEA0EB0901A5
:101E3000514502D90320BDE8F0872068696800F0A9
:101E40000C00B0EB810FEFD1D8F80010404601F044
:101E50000701B14207D90770006800F00700B042DF
:101E600001D00120E7E72878400705D52068E96818
:101E700020F4E050084320602878000706D5206849
:101E8000296920F4604040EAC100206000F058F861
:101E90002168084AC1F30311515CC8400649086033
:101EA00006480068FFF7CAFE0020C4E7003C024075
:101EB00008380240DC6A00081C00002014000020E2
:101EC0000F2202600C4A136803F003034360136897
:101ED00003F0F0038360136803F4E053C3601268F7
:101EE0004FF4E05303EAD20202610448006800F0B4
:101EF000070008607047000008380240003C0240BC
:101F00000448054900680968044AC1F38221515C0C
:101F1000C84070471C00002008380240EC6A0008E6
:101F20000448054900680968044AC1F34231515C1C
:101F3000C84070471C00002008380240EC6A0008C6
:101F4000154810B5006810F00C02144813D014495D
:101F5000042A0FD0082A0ED10F4C241F22682368B0
:101F600002F03F025B0207D52068C0F38810A0FB97
:101F7000010106E0084610BD2168C1F38811A1FBEC
:101F800000010023FEF7F0F92168C1F30141491C6B
:101F90004900B0FBF1F010BD083802400024F40005
:101FA00040787D012DE9F84F04006ED02078DFF8ED
:101FB0004C93C007A9F104054AD009F10400016857
:101FC000C1F38101012908D00068C0F38100022813
:101FD0000AD1D9F80000400206D52868800337D519
:101FE00060680028E1D033E06068B0F5803F10D031
:101FF000B0F5A02F286810D020F480302860286821
:1020000020F4802028606068A8B1FFF7EFFD064645
:102010000DE0286840F48030F4E740F48020286028
:10202000F7E700BFFFF7E2FD801B642873D828683C
:102030008003F7D50CE0FFF7D9FD064605E000BFA9
:10204000FFF7D4FD801B6428F0D828688003F7D4FC
:102050002078DFF8AC8280074FF0000A3ED5A74811
:10206000001D016811F00C0F08D00068C0F381005A
:1020700002280BD1D9F80000400207D42868800755
:1020800016D5E068012800D112E033E1E068B8B16C
:102090000120C8F80000FFF7A9FD064605E000BFD3
:1020A000FFF7A4FD801B0228C0D828688007F7D559
:1020B0002868216920F0F80040EAC10028600DE09E
:1020C000C8F800A0FFF792FD064604E0FFF78EFD7A
:1020D000801B02281FD828688007F7D420780007C3
:1020E00022D5864F87486169703771B1012101603F
:1020F000FFF77CFD064604E0FFF778FD801B022811
:1021000009D838688007F7D50EE0C0F800A0FFF7BF
:102110006DFD064605E082E0FFF768FD801B0228A2
:102120007DD838688007F7D42078400768D5DFF875
:10213000CCB100270BF13C0BDBF80000C0000BD446
:10214000DBF8001041F08051CBF80010DBF8000004
:10215000012700F0805000906B4E3068C00510D40D
:10216000306840F480703060FFF740FD009005E07B
:10217000FFF73CFD0099401A022850D83068C0058E
:10218000F6D55E4EA0686C3601280FD00528306861
:1021900010D020F001003060306820F00400306082
:1021A000A068B8B1FFF722FD00900FE0306840F062
:1021B0000100F4E740F004003060F7E7FFF716FD98
:1021C0000099411A41F28830814266D83068800710
:1021D000F4D50EE0FFF70AFD009007E0FFF706FDDB
:1021E0000099411A41F28830814256D83068800700
:1021F000F4D42FB1DBF8001021F08051CBF800109F
:10220000A069C8B33D49091D0968C1F381010229CC
:102210004AD00228504607D0C8F8600000E03CE0F1
:10222000FFF7E4FC04463BE04746C8F86000FFF7D0
:10223000DDFC064605E000BFFFF7D8FC801B022846
:102240002BD828688001F7D4D4E907010843A16A94
:102250002E4A490802EB0141626A41EA82110843B1
:1022600094F82C1040EA0161C9F80010012038668A
:10227000FFF7BCFC044606E03EE000BFFFF7B6FCFB
:10228000001B022809D828688001F7D534E000BF78
:10229000FFF7ACFC001B022802D90320BDE8F88F31
:1022A00028688001F4D427E00128F7D0D9F800008D
:1022B000E26900F4800191421CD1226A00F03F01E2
:1022C000914217D147F6C071626A0140B1EB821F9B
:1022D00010D1A26A4FF0FF3300F4403103EB5202F9
:1022E000B1EB024F06D194F82C1000F07060B0EB07
:1022F000016F01D00120D1E70020CFE70438024070
:1023000000004742800E4742007000400000FFFF7F
:102310007047704710B590F83C20012A22D0012266
:1023200080F83C20CA688C6822F4407222434C68D2
:1023300022F4806222430C6822F4006222430C697A
:1023400022F4805222434C6922F400522243C9698C
:10235000002322F480420A4301684A6480F83C303A
:10236000002010BD022010BD70B590F83C20012A5D
:1023700032D0012480F83C40022280F83D200368DE
:102380005A689D6822F070060A6832435A60134BFF
:1023900002689A4214D0B2F1804F11D0104B9A4289
:1023A0000ED0104B9A420BD00F4B9A4208D00F4BD5
:1023B0009A4205D00E4B9A4202D00E4B9A4204D15B
:1023C000496825F080031943916080F83D40002161
:1023D00080F83C10084670BD022070BD000001402E
:1023E0000004004000080040000C004000040140D0
:1023F000004001400018004010B5040003D094F8DC
:102400003D0010B107E0012010BD002084F83C0021
:10241000204600F01FF8022084F83D00211D2068AE
:1024200001F032FA012084F8460084F83E0084F876
:102430003F0084F8400084F8410084F8420084F8AA
:10244000430084F8440084F8450084F83D000020EF
:1024500010BD000008B500680C49884208D10C483E
:10246000016841F001010160006800F001000BE02B
:102470000849884209D10648001F016841F004015B
:102480000160006800F00400009008BD00000140F9
:10249000443802400008004090F83D10012901D066
:1024A00001207047022180F83D100168CA6842F09F
:1024B0000102CA6000681149884214D0B0F1804F0F
:1024C00011D00F4988420ED00E4988420BD00E49D8
:1024D000884208D00D49884205D00D49884202D073
:1024E0000C49884204D1816801F00701062903D014
:1024F000016841F0010101600020704700000140C7
:102500000004004000080040000C004000040140AE
:10251000004001400018004070B5044690F83C00AF
:102520000025012817D0012684F83C60022084F899
:102530003D002068826822F0770222F47F428260A8
:102540000868502838D00DDC20284FD005DC90B327
:10255000102811D14AE0022070BD302846D0402812
:102560000AD13BE060282FD070280DD0B0F5805FF5
:1025700003D0B0F5005F12D0012584F83D60002043
:1025800084F83C00284670BDCB68D1E90121206861
:1025900001F0EBF92068816841F0770109E0CB6830
:1025A000D1E90121206801F0E0F92068816841F457
:1025B00080418160E1E719E0CA684968206801F05C
:1025C000A9FA5021206806E0CA684968206801F02D
:1025D000B2FA6021206801F0D2F9CEE7CA684968F2
:1025E000206801F097FA40212068F4E7226801464C
:1025F0001046F0E7704770B50446006801694FF077
:102600000005C943890715D4C168C943890711D496
:10261000E91E01610120207720688069800720463B
:1026200002D0FFF7E7FF04E000F0C2F8204600F018
:1026300054F9257720680169C943490717D4C1684F
:10264000C943490713D46FF00401016102202077C8
:102650002068806910F4407F204602D0FFF7CAFF4F
:1026600004E000F0A5F8204600F037F9257720684F
:102670000169C943090716D4C168C943090712D4BF
:102680006FF008010161042020772068C06980078D
:10269000204602D0FFF7AEFF04E000F089F82046A4
:1026A00000F01BF9257720680169C943C90617D4D2
:1026B000C168C943C90613D46FF010010161082035
:1026C00020772068C06910F4407F204602D0FFF7D1
:1026D00091FF04E000F06CF8204600F0FEF825774A
:1026E00020680169C943C90708D1C168C943C9073E
:1026F00004D1891E0161204600F054F92068016967
:10270000C943090609D4C168C943090605D46FF055
:10271000800101612046FFF7FBFD20680169C94384
:10272000490609D4C168C943490605D46FF0400180
:102730000161204600F03DF920680169C94389061E
:102740000BD4C168C943890607D46FF02001016129
:102750002046BDE87040FFF7DCBD70BD10B586B007
:10276000044614216846FDF7CAFE0E4920688842D7
:1027700016D10D480021026842F010020260006884
:1027800000F0100005904FF4206000900220CDE989
:1027900001010120CDE9031069460448FFF728F93B
:1027A00006B010BD00000140303802400010024069
:1027B000704770B5044690F83C0000260D4601288D
:1027C0000FD0012084F83C006AB1042A1DD0082AE9
:1027D0002FD00C2A3FD00126002084F83C00304640
:1027E00070BD022070BD206801F0D2F820688169B8
:1027F00041F0080181612068816921F00401816153
:10280000206881692A69114311E0206801F0F0F81D
:102810002068816941F4006181612068816921F447
:1028200080618161206881692A6941EA02218161B0
:10283000D2E7206801F012F92068C16941F008016F
:10284000C1612068C16921F00401C1612068C169CA
:102850002A69114311E0206801F034F92068C16948
:1028600041F40061C1612068C16921F48061C161E6
:102870002068C1692A6941EA0221C161ACE710B54B
:10288000040003D094F83D0010B107E0012010BD12
:10289000002084F83C00204600F01EF8022084F856
:1028A0003D00211D206800F0EFFF012084F8460064
:1028B00084F83E0084F83F0084F8400084F841002A
:1028C00084F8420084F8430084F8440084F845000A
:1028D00084F83D00002010BD7047704710B50446D5
:1028E000022249B104290ED0082913D094F84100DE
:1028F000012816D0012010BD94F83E000128F9D11E
:1029000084F83E200FE094F83F000128F2D184F8CB
:102910003F2008E094F840000128EBD184F84020E3
:1029200001E084F841200122206801F011F81649E5
:102930002068164A884201D0904203D1436C43F488
:10294000004343642068884213D0B0F1804F10D018
:102950000F4988420DD00F4988420AD00E4988425B
:1029600007D0904205D00D49884202D00C498842D8
:1029700004D1816801F00701062903D0016841F004
:1029800001010160002010BD000001400004014071
:102990000004004000080040000C004000400140DE
:1029A000001800400068B0F1804F01D1FFF724B952
:1029B0007047704770477047F8B50168044608686B
:1029C000CA684B6910F00F0F4FF000055AD003F0A2
:1029D000010602F49077374365D0C10705D0D105D1
:1029E00003D5216C41F001012164410705D5D907C8
:1029F00003D0216C41F002012164810705D5D9077C
:102A000003D0216C41F004012164010707D502F0D5
:102A10002001314303D0216C41F008012164216C75
:102A200000293BD0800604D5900602D5204601F04F
:102A3000DCF820684069216CC0F3801001F00801C7
:102A4000014320462BD001F0A9F8206840694006D8
:102A500021D52068143050E8001F21F0400140E8E3
:102A60000012002AF5D1A06BA8B16C490165A06BDA
:102A7000FEF772FE002811D0A06B016D01B0BDE819
:102A8000F040084783060ED593060CD52046BDE8D6
:102A9000F84001F0AAB82046FFF78DFFF8BDFFF718
:102AA0008AFF2564F8BD266B2023012E79D1C60646
:102AB00077D5D60675D508684868009048694006FD
:102AC00040D5A16B086840680004000CEAD0A28DD4
:102AD0008242E7D9E085C869B0F5807F2DD02068B3
:102AE0000C3050E8001F21F4807140E80012002AE9
:102AF000F5D12068143050E8001F21F0010140E8B2
:102B00000012002AF5D12068143050E8001F21F08F
:102B1000400140E80012002AF5D184F83E302563D8
:102B200020680C3050E8001F21F0100140E800122E
:102B3000002AF5D1A06BFEF7C6FDA08DE18D401AED
:102B400081B229E0A08DE18D401A81B2E08D00288C
:102B5000A8D00029A6D020680C3050E8002F22F41D
:102B6000907240E80026002EF5D12068143050E81D
:102B7000002F22F0010240E80026002EF5D184F853
:102B80003E30256320680C3050E8002F22F0100200
:102B900040E80023002BF5D12046FFF70BFFF8BDDE
:102BA000FFE705062BD5150629D594F83D00212809
:102BB000F5D1A068B0F5805F01D12069B0B1206A7D
:102BC000411C2162216800784860E08C401E0004AE
:102BD000000CE084E3D12068C16821F08001C1606D
:102BE0002068C16841F04001C160D8E7206A0088D0
:102BF000C0F308004860206A801C2062E5E74006B8
:102C0000CDD55006CBD5CA68204622F04002CA6016
:102C100084F83D3000F04DFAC1E700008D3B00081C
:102C200070B5040004D094F83D00002510B106E012
:102C3000012070BD84F83C50204600F023F8242089
:102C400084F83D002068C16821F40051C16020462D
:102C500001F02CF82068016921F49041016120689D
:102C6000416921F02A0141612068C16841F40051A5
:102C7000C1602564202084F83D0084F83E000020D7
:102C800070BD00002DE9F04F87B00446142168465E
:102C9000FDF735FCF848DFF8DC8310380222D4F861
:102CA00000C0F54B0321DFF8D4E300259606071595
:102CB0004FF480794FF0400AC44557D1D3F800C093
:102CC000A8464CF4002CC3F800C01B6803F4002392
:102CD0000593036843F001030360006800F00100FE
:102CE00005908DE826000820CDE90310694670465E
:102CF000FEF77EFEDFF88CB3E1495846CBF80010B2
:102D0000C0E90165C0E90357CBF81450C0E9065982
:102D1000CBF82050CBF82450FEF700FE08B1FEF7A8
:102D2000F9F8D84DD648C4F838B060353030CBF813
:102D3000384085E84104C5E90387C5F81480C5F823
:102D40001880C5F81C80C5F820802846C5F8248066
:102D5000FEF7E4FD08B1FEF7DDF86563002205210A
:102D60003420AC63FEF7CEFF342073E0DFF8188325
:102D7000C44575D1D3F800C000254CF4801CC3F8BD
:102D800000C01B6803F480130593036843F0040339
:102D90000360036803F004030593036843F008032A
:102DA000036000684FF0080800F0080005904FF439
:102DB0008050CDE900020320CDE9025093466946D8
:102DC000CDF81080B148FEF713FE0420CDE9000BCA
:102DD0000320CDE902506946CDF81080AC48FEF7DB
:102DE00007FEDFF8A082A64908F1C0083039404646
:102DF000C8F80010C0E90165C0E90357C8F81450CD
:102E0000C0E90659C8F82050C8F82450FEF786FDDE
:102E100008B1FEF77FF89A489E4DC4F838807830A4
:102E2000C8F8384085E841040020C5E90307686117
:102E3000A861E861286268622846FEF76FFD08B164
:102E4000FEF768F86563002205213520AC63FEF7C4
:102E500059FF3520FEF748FF07B0BDE8F08FFFE7C8
:102E6000DFF834824FF0070BC4455CD1824BA84693
:102E70001B1DD3F800C04CF0100CC3F800C01B6839
:102E800003F010030593036843F001030360006837
:102E9000CDE9025100F0010005904FF4C060CDE98A
:102EA0000002CDF810B069467046FEF7A1FDDFF8CC
:102EB000E4B17A490BF1600B5846CBF80010C0E939
:102EC0000165C0E90357CBF81450C0E906594FF427
:102ED0004039CBE90895FEF721FD08B1FEF71AF855
:102EE0006C4D6E48C4F838B0C0357830CBF83840F7
:102EF00085E84104C5E90387C5F81480C5F8188042
:102F0000C5E907892846C5F82480FEF707FD08B102
:102F1000FEF700F86563002205212520AC63FEF76B
:102F2000F1FE252096E7DFF87881C44541D1D3F83A
:102F300000C04CF4003CC3F800C01B6803F400332D
:102F40000593036843F0010303600068CDE9025173
:102F500000F0010005900C20CDE90002CDF810B082
:102F600069467046FEF744FD4549DFF8388148312F
:102F70004046C8F80010C0E90165C0E90357C8F829
:102F80001450C8F81850C8F81C50C8F82050C8F899
:102F90002450FEF7C3FC08B1FDF7BCFFC4F838802D
:102FA000002205212620C8F83840FEF7ABFE262077
:102FB00050E7DFF8F480C4457FF44EAFD3F800C08B
:102FC000A8464CF4802CC3F800C01B6803F480238F
:102FD0000593036843F0020303600068CDE90251E2
:102FE00000F0020005904FF44060CDE90002CDF8FA
:102FF00010B069462D48FEF7FBFCDFF8A8B0204969
:103000000BF1600B18395846CBF80010C0E9016588
:10301000C0E90357CBF81450C0E906594FF4003902
:10302000CBE90895FEF77AFC08B1FDF773FF1D4D5B
:103030001348C4F838B0C0351830CBF8384085E8AC
:103040004104C5E90387C5F81480C5F81880C5E9AF
:1030500007892846C5F82480FEF760FC08B1FDF713
:1030600059FF6563002205212720AC63FEF74AFE65
:103070002720EFE6004C00404038024000000240AC
:1030800040600240681900200050004000080240E3
:10309000000C0240881A00200010014040640240E9
:1030A00000440040A81B00200048004000040240EB
:1030B00070477047FEE700000B49096891F88110DE
:1030C00005290ED2DFE801F00D0D0D0D0300074AB2
:1030D000116811F0010305D00BB103234370491CA3
:1030E000116070470223F9E7D8140020C0140020B3
:1030F0000F49096891F87B10052913D2DFE801F028
:1031000012090309090042680621926891700121A1
:103110000AE04178022906D0032903D1406805213D
:103120008068817070470021406840680170704776
:10313000D814002000B50346FFF7DAFF18465DF803
:1031400004EBFFF7B9BF0000104810B50E4901604D
:103150000321416000214FF400228160C0E9031285
:103160004FF4401242610176012242768276C176A6
:1031700001774277FEF73FF9002803D0BDE8104001
:10318000FDF7C8BE10BD00000064004034170020E9
:10319000104810B50E4901600321416000214FF431
:1031A00000228160C0E903124FF4401242610176AF
:1031B000012242768276C17601774277FEF71BF9CB
:1031C000002803D0BDE81040FDF7A4BE10BD0000EC
:1031D000006800405C1700202D4808B5016841F4E4
:1031E00000110160016801F400110091016841F4CF
:1031F000800101600068002200F480000090052139
:103200000B20FEF77FFD0B20FEF76EFD002205214F
:103210000C20FEF777FD0C20FEF766FD002205214D
:103220000D20FEF76FFD0D20FEF75EFD002205214B
:103230000E20FEF767FD0E20FEF756FD0022052149
:103240000F20FEF75FFD0F20FEF74EFD0022052147
:103250001020FEF757FD1020FEF746FD0022052145
:103260002F20FEF74FFD2F20FEF73EFD0022052107
:103270003A20FEF747FD3A20FEF736FD00220521F1
:103280004620FEF73FFDBDE808404620FEF72CBD76
:103290003038024010B596B01C2211496846FDF73F
:1032A000DAF80021684602F0CFFA0E4C0C491C22D5
:1032B00020601C3107A8FDF7CEF8002107A802F016
:1032C000C3FA074960601C2238310EA8FDF7C3F825
:1032D00000210EA802F0B8FAA06016B010BD0000E0
:1032E000806A00080000002070B586B0142168468E
:1032F000FDF705F921480025016841F080010160D2
:10330000016801F080010591016841F0010101604F
:10331000016801F001010591016841F010010160AF
:10332000016801F010010591016841F0020101609E
:10333000016801F002010591016841F00801016096
:10334000016801F008010591016841F00401016084
:103350000068012200F00400094E54020590214645
:103360003046FEF73DFC0121CDE90041CDE90215D3
:1033700069463046FEF73CFB06B070BD303802406F
:10338000000C024010B596B000240F9410941194D4
:10339000129413941C2168461494FDF7B0F8202170
:1033A00007A8FDF7ACF82D482B49016040F28F616A
:1033B000C0E9011440F2E731C0E9031444618461BB
:1033C000FFF71AF808B1FDF7A5FD4FF480500F90F4
:1033D0000FA92248FFF7A0F808B1FDF79BFD1F4891
:1033E000FFF74DFA08B1FDF795FD139413A91B489B
:1033F0001494FEF7B9FF08B1FDF78CFD6020CDE90C
:10340000000402940394049405940022694613482E
:103410000694FFF7CEF908B1FDF77CFD042269465A
:103420000E48FFF7C6F908B1FDF774FD079408943C
:1034300009944FF400500A94CDE90B4007A90748BE
:103440000E94FEF767FF08B1FDF764FD0348FFF730
:1034500085F916B010BD000000000140841700205F
:1034600010B586B000241848009401940294039487
:10347000049414490594016042F2CF01C0E901149B
:1034800041F26F71C0E9031480218161FEF7B4FF3E
:1034900008B1FDF73FFD4FF48050009069460A489F
:1034A000FFF73AF808B1FDF735FD049404A9064882
:1034B0000594FEF759FF002801D0FDF72BFD06B05B
:1034C00010BD000000080040CC1700200C4810B5CB
:1034D0000A4901604FF4E1314160002181600C2212
:1034E000C160C0E904128161C161FFF799FB002846
:1034F00003D0BDE81040FDF70DBD10BD004C0040ED
:10350000141800200C4810B50A4901604FF4E1314D
:103510004160002181600C22C160C0E90412816118
:10352000C161FFF77DFB002803D0BDE81040FDF727
:10353000F1BC10BD00500040581800200C4810B5D8
:103540000A4901604FF4E1314160002181600C22A1
:10355000C160C0E904128161C161FFF761FB00280D
:1035600003D0BDE81040FDF7D5BC10BD00100140F0
:103570009C1800200D4810B50B4901600C494160B2
:1035800000214FF480628160C0E903120C22C0E97F
:103590000521C161FFF744FB002803D0BDE81040BE
:1035A000FDF7B8BC10BD000000440040E01800204A
:1035B000A08601000C4810B50A4901604FF4E131C2
:1035C0004160002181600C22C160C0E90412816168
:1035D000C161FFF725FB002803D0BDE81040FDF7CF
:1035E00099BC10BD0048004024190020FEE7FEE70A
:1035F00010B50548FEF750FF04210448FFF76EF9A7
:1036000003490020886310BDCC17002084170020D8
:103610000000014070B530490124022309680322EB
:103620008E7A2E49012E3AD00625022E1CD0032E6A
:1036300015D14678012E12D0022E04D0032E0ED1C1
:103640004068806836E044686468A57049688C7A90
:10365000012C04D1097A19B140684068437070BDEB
:1036600040684068427070BD4278012AFBD0022A4F
:1036700006D0032AF7D1406800218068017070BD30
:1036800042685268957049684A7A002AF7D1097AE7
:103690000029F4D1406804214068417070BD45782C
:1036A000012D07D0022D07D0032DF7D14068806887
:1036B000037070BD047070BD49688B7A012BFAD11C
:1036C0000B7A1BB1497A0029CAD070BD4068052128
:1036D0004068817070BD0000D81400205014002094
:1036E000094909684A7B0021012A08D0022A03D02F
:1036F000032A07D1012104E00170022101E00170D9
:103700000321417070470000D814002010B5044612
:10371000FFF7E6FF2046FFF77DFF2046BDE810409B
:10372000AFF300800D490968897C012915D0022971
:1037300013D0032911D1407801280ED10849002067
:103740004A6810704A6890704968087105494A686B
:1037500090704A685070496808707047D81400200B
:103760005014002094130020064802F01DFD01F0C3
:10377000C5FA01F059F900F039FD012002F058F8BE
:10378000F2E70000D8140020014988637047000068
:103790000000014004210148FFF7A0B88417002071
:1037A000012002F045F8FBE710B5502080F31188A6
:1037B000BFF34F8FBFF36F8F03F094F818B1044934
:1037C0004FF080500860002080F3118810BD000089
:1037D00004ED00E030B593B030216846FCF78FFE71
:1037E00014210CA8FCF78BFE1E480025016841F04F
:1037F00080510160006800F0805011901A48016803
:1038000041F4804101600068022400F4804011907E
:1038100001200090000401908001CDE906401920AC
:1038200008904FF4A870CDE9090404200B90684675
:10383000FEF7B8FB08B172B6FEE70CA90F2081E8CD
:1038400031004FF4A0500F904FF48050109005219C
:103850000CA8FEF79BFA002801D072B6FEE713B061
:1038600030BD00004038024000700040024801684E
:1038700041F470010160704788ED00E00148FEF7F7
:10388000BABE0000C81C0020F0B50268254C264DC9
:10389000264E274F274B4FF0804CA04209D0604561
:1038A00007D0A84205D0B04203D0B84201D0984218
:1038B00004D122F0700E4A6842EA0E02A0421BD0E8
:1038C000604519D0A84217D0B04215D0B84213D0E5
:1038D000984211D0184DA8420ED0184DA8420BD0D6
:1038E000174DA84208D0174DA84205D0164DA84242
:1038F00002D0164DA84203D122F44075CA682A436B
:103900004D6922F080022A4302608A68C2620A6816
:103910008262A04201D0984201D10969016301216C
:103920004161F0BD0000014000040040000800407B
:10393000000C0040000401400040014000440140F0
:103940000048014000180040001C004000200040DA
:1039500010B501F01F030121046A99408C430462F1
:10396000016A9A401143016210BD10B5846842EAB1
:10397000032224F47F440A432243826010BD8268FC
:1039800022F070020A4342F0070181607047000094
:10399000F0B5026A22F001020262036A4268846999
:1039A000124E24F073050C682C4323F002058B683B
:1039B0002B430D4DA84201D0B04205D123F008079A
:1039C000CB683B4323F00403A84201D0B04205D1A9
:1039D0004D6922F4407215438A692A43426084612A
:1039E000496841630362F0BD0000014000040140EA
:1039F000F0B5026A22F010020262026A436884692A
:103A00000D6824F4E64444EA05248D6822F020027F
:103A100042EA05120F4D104EA84201D0B04206D125
:103A2000CF6822F0800242EA071222F04002A84248
:103A300001D0B04207D14D6923F4406343EA8503C6
:103A40008D6943EA8503436084614968816302624A
:103A5000F0BD00000000014000040140F0B5026A22
:103A600022F480720262026A4368C46922F400721E
:103A700024F073050C68124E2C438D6842EA05222F
:103A80000E4DA84201D0B04206D1CF6822F40062A8
:103A900042EA072222F48062A84201D0B04207D154
:103AA0004D6923F4405343EA05138D6943EA051336
:103AB0004360C4614968C1630262F0BD0000014017
:103AC0000004014030B5026A22F480520262046AA6
:103AD0004268C3690D6823F4E64343EA05238D6811
:103AE00024F4005444EA0534084DA84202D0084D9D
:103AF000A84204D14D6922F4804242EA8512426014
:103B0000C36149680164046230BD000000000140E7
:103B10000004014010B5036A046A24F00104046241
:103B2000846924F0F00444EA021423F00A020A43F0
:103B30008461026210BD10B5036A23F010030362B2
:103B40008369046A23F4704343EA023224F0A00339
:103B500043EA01118261016210BD000010B5044802
:103B6000FDF7CDF9BDE810400148FEF725BF000084
:103B70001418002010B50448FDF7C1F9BDE8104045
:103B80000148FEF719BF00005818002010B5806BDF
:103B90000021C185C184FEF70EFF10BD01680C3104
:103BA00051E8002F22F4907241E80023002BF5D158
:103BB0000168143151E8002F22F0010241E800238E
:103BC000002BF5D1016B012909D101680C3151E8B5
:103BD000002F22F0100241E80023002BF5D1202114
:103BE00080F83E1000210163704708B590F83E1040
:103BF000222901D0022008BD82684FF480539A42E6
:103C000001D1016921B1816A9A421BD04AB10AE00F
:103C10000268816A5268C2F308020A80816A891CBC
:103C200008E0026972B10268526802F07F020A700D
:103C3000816A491C8162C18D491E0904090CC18534
:103C400003D019E002685268F1E70168CA6822F0FF
:103C50002002CA600168CA6822F48072CA600168E2
:103C60004A6922F001024A61202180F83E10016B6E
:103C7000012903D0FFF71CFA002008BD00210163D1
:103C800001680C3151E8002F22F0100241E80023B6
:103C9000002BF5D101680A68D20602D50A68496886
:103CA0000091818DFEF786FEE6E7000070B50446C0
:103CB00000680169E26821F4405111430161216902
:103CC000A068E26908436169114308432168CA6832
:103CD00049F20C639A430243CA6020684169A269B1
:103CE00021F440711143416131492068884202D07A
:103CF0003049884202D1FEF713F901E0FEF700F9DE
:103D0000E2690023192164253226B2F5004F62686A
:103D100028D0A0FB0101930F9200FCF725FB014680
:103D2000B0FBF5F06FF01802504301EB800006EB9A
:103D30000010B0FBF5F000F0F002B1FBF5F002EB83
:103D40000012B1FBF5F06FF01803584301EB80004F
:103D500006EB0010B0FBF5F000F00F0021681044F6
:103D6000886070BDA0FB010192185B41FCF7FCFA72
:103D70000146B0FBF5F00201B1FBF5F06FF018035E
:103D8000584301EB800006EBC000B0FBF5F000F0FB
:103D9000F80002EB4002B1FBF5F0584301EB800064
:103DA00006EBC000B0FBF5F000F00700D6E700001E
:103DB000001001400014014010B50448FDF79FF8C1
:103DC000BDE810400148FEF7F7BD00009C18002038
:103DD0000B4882B001680A684A680092CA6842F0DB
:103DE0001002CA6001684A6942F040024A610168F3
:103DF000806B4FF4AF73034A091D02B0FDF74EB854
:103E00009C180020445A00207047000010B5044858
:103E1000FDF775F8BDE810400148FEF7CDBD000084
:103E2000E01800200C4808B501680A684A6800924A
:103E3000CA6842F01002CA6001684A6942F0400252
:103E40004A61122100910168044B806BA3F11802B2
:103E5000091DFCF7C3FE08BDE0180020BA5B002076
:103E600010B5064C0146206801F0DBFF206801F028
:103E700077FF2046BDE8104002F00AB9D8140020B0
:103E800010B50448FDF73BF8BDE810400148FEF7C7
:103E900093BD0000241900200B4882B001680A6815
:103EA0004A680092CA6842F01002CA6001684A6912
:103EB00042F040024A610168806BC823034A091D31
:103EC00002B0FCF7EBBF000024190020D25B0020F9
:103ED000704700000B4882B001680A684A68009287
:103EE000CA6842F01002CA6001684A6942F04002A2
:103EF0004A610168806BC823034A091D02B0FCF7C0
:103F0000CDBF0000141800209A5C0020704700000C
:103F10000B4882B001680A684A680092CA6842F099
:103F20001002CA6001684A6942F040024A610168B1
:103F3000806BC823034A091D02B0FCF7AFBF000025
:103F400058180020625D00207047FEE70907090E3F
:103F5000002804DB00F1E02080F80014704700F036
:103F60000F0000F1E02080F8141D704710B50446E2
:103F70001A3000F0B5FC04F1200000F0B1FC04F1AF
:103F8000260000F0ADFC04F12C0000F0A9FC04F1C7
:103F9000320000F0A5FC04F1380000F0A1FC04F1AF
:103FA0003E0000F09DFC04F1440000F099FC04F197
:103FB0004A0000F095FC04F1500000F091FC04F17F
:103FC000560000F08DFC04F15C0000F089FC04F167
:103FD000620000F085FC04F1680000F081FC04F14F
:103FE0006E0000F07DFC04F1740000F079FC04F137
:103FF0007A0000F075FC04F18000BDE8104000F08C
:104000006FBC00B503461A3000F08CFC03F12000B1
:1040100000F088FC03F1260000F084FC03F12C0082
:1040200000F080FC03F1320000F07CFC03F138006A
:1040300000F078FC03F13E0000F074FC03F1440052
:1040400000F070FC03F14A0000F06CFC03F150003A
:1040500000F068FC03F1560000F064FC03F15C0022
:1040600000F060FC03F1620000F05CFC03F168000A
:1040700000F058FC03F16E0000F054FC03F17400F2
:1040800000F050FC03F17A0000F04CFC03F18000DA
:104090005DF804EB00F046BC00B550B149B1027DBB
:1040A0003AB190F82520531E022B04D800F0C6FB2D
:1040B00006E0002000BD121F012A01D800F0CEFA50
:1040C000204600BD7047000010B5054800F00AF812
:1040D000034800F0F1F8BDE81040014800F01CB8BA
:1040E000841400200A4949688968097861B1012966
:1040F00007D0022904D19FED070A406880ED000A2D
:104100007047B0EE000AF8E7B7EE000AF5E70000E6
:10411000B81400209A99993E10B5044602783048A8
:10412000017812B1012A56D10EE0002009B101290F
:1041300051D1A1694882A1690882A16988821821A8
:104140002848FCF7BAF946E0F1BB6068406801F026
:1041500041FF60684168D0ED000AB1F9041001EB3D
:104160004101890000EE101AA169B8EEC00A20EEE4
:10417000200ABDEEC00A10EE100A0882606841688D
:10418000D0ED000AB1F90A1001EB4101890000EEFF
:10419000101AA169B8EEC00A20EE200ABDEEC00ACE
:1041A00010EE100A488210480068B0F9000000EBD9
:1041B0004000800000EE100A6068B8EEC00AD0ED42
:1041C000000A20EE200A00E005E0BDEEC00AA16969
:1041D00010EE100A8882A069416CBDE810400847C3
:1041E000B8140020F05E0020D814002010B50B4C4D
:1041F0002046D4F8D4118847D4F8D81304F50170B8
:104200008847D4F8DC1504F58160884704F20C6017
:10421000D4F8E017BDE8104008470000140B002058
:104220002DE9F041204C2046D4F8D011884704F500
:104230000170D4F8D4130746884704F58160D4F898
:10424000D8150646884704F20C60D4F8DC170546FA
:104250008847D4F8D821154904F12C009047D4F8A8
:10426000DC23124904F50C709047D4F8E0250F497F
:1042700004F234409047D4F8E4270C4904F5C760B1
:1042800090470A480A491C30C0E90247C0E9046562
:10429000C1E90047C1E902650649816105480A6C28
:1042A000BDE8F04102491047140B002068140020BB
:1042B000DC5E0020AC00002006494A78002132B1C3
:1042C000012A04D0022A02D0032A01D1012101705F
:1042D00070470000B81400202DE9F041064605693A
:1042E00044680078F6EE000A0027F8B1012804D0EF
:1042F00002281BD100F07AFD18E0304600F042F8A9
:10430000207901282AD01C4894ED080A0068B0F9E9
:10431000000001EE100A0120B8EEC11A01EE600A99
:1043200084ED080A00F05CFE84ED080AE87D134C79
:10433000E8B17068007801280ED11148D5F8E41171
:10434000406890ED080A28468847BDEEC00A296AF1
:1043500010EE100A24F81100BDE8F08195ED040A72
:10436000B8EEC00A84ED080A27716785DEE7286A7F
:1043700024F81070F0E70000D81400208800002016
:1043800094130020016991ED400AB5EEC00AF1EEE8
:1043900010FA01DCB1EE400A10EE102A094B9A42E5
:1043A00008DBB1F90210491D0A2903D841684A8D7A
:1043B000521C4A854068418D142901D301210171A5
:1043C000704700000000C84210B500F0A9FC044886
:1043D00001F0F2FDFFF724FFBDE8104000F034BB10
:1043E000D81400200068016841F4002101600148F0
:1043F000FFF736BDA25B00200068016821F40021B0
:1044000001600148FFF72CBDBA5B002010B5FCF736
:104410000BF9FCF771F9FFF7DBFCFFF703FDFFF782
:104420003BFDFFF757FDFFF773FDBDE81040FFF7B9
:10443000DFB800002DE9F0410446007820B10128E2
:1044400005D0022802D10EE000F040FBB8E0E068A1
:1044500090ED040A6068B8EEC00A80ED0E0A61694A
:1044600020468847ACE05F4E002570684068817840
:10447000052902D0062906D106E05B485B49C068E1
:10448000006A21F810509BE04078022851D00227A2
:10449000032802D004284CD187E060688179012983
:1044A00047D190F82910DFF84881022902D003296A
:1044B0003FD15FE0416A69B9E1680969A1F5F2415C
:1044C000993900EE101AB8EEC00A80ED0E0A606845
:1044D00080ED0F0A6068416A491C4162204600F085
:1044E0009BF8042130B3606890F82020022A14D28F
:1044F000032180F82910E06843F6CD4100690844A3
:1045000000EE100A6068B8EEC00A80ED0E0A60681E
:1045100010F8201F491C017009E070684068417064
:1045200060684562606880F8205060684572606825
:10453000058345E0E06890ED400AB5EEC00AF1EE73
:1045400010FA01DCB1EE400A10EE100A404537DAED
:104550006068406A052833D37068406841706068BD
:104560004562606880F8205060684572616801208B
:10457000087225E0204600F04FF868B9E06890ED39
:10458000400AB5EEC00AF1EE10FA01DCB1EE400AC5
:1045900010EE100A404513DA606890ED0F0A80EDC6
:1045A0000E0A606880F82970C1E7606880F8297099
:1045B000E06890ED040A6068B8EEC00A80ED0E0A6B
:1045C0006068017901290AD1E168C97D012906D114
:1045D00090ED0E0A20466169BDE8F0410847BDE84C
:1045E000F0810000B814002050140020900000203A
:1045F0000000964310B5C4682046D4F8E4118847FB
:10460000BDEEC00A034A216A10EE100A22F811001A
:1046100010BD000090000020C16891ED400AB5EE89
:10462000C00AF1EE10FA01DCB1EE400A10EE102AD9
:10463000094B9A4208DBB1F90210C91C062903D8BC
:104640004268118B491C11834068008BC82801D334
:10465000012070470020704700009643F0B50D78A8
:10466000D0F8CC31002403F10C024FF6FF76942DE4
:1046700079D008DC302D0DD0332D18D0902D26D0D8
:10468000922D13D139E09A2D7CD09C2D6AD09D2D8E
:10469000F7D196E08A781A70CA785A700A799A70B7
:1046A0004A79DA708A791A71C97959719AE0CA79A6
:1046B00012025A868D792A4312025A864D792A436C
:1046C00012025A8609790A43110259868AE0CB7888
:1046D00006EA032313818D782B4313814B7906EA75
:1046E000032353810D792B435381CB7906EA0323AE
:1046F000938189790B43938174E0CD79220242EA58
:1047000015622D02C3E90A528E791202354342EA3C
:1047100015622D02C3E90A524E791202354342EA6C
:1047200015622D02C3E90A520E791202354342EA9C
:1047300015622D02C3E90A52CE781202354342EACD
:1047400015622D02C3E90A528E783543160246EAF5
:1047500015662A02C3E90A2649780A439A6241E0AB
:1047600001E00FE01AE0CA7912021A628D792A4339
:1047700012021A624D792A4312021A6209790A4317
:104780001A622FE04B7813700B7906EA03235380EB
:10479000CD782B435380C979117123E04D78157082
:1047A000CD782D02D5808D78D5804D792D021D864E
:1047B0000D791D86CB7906EA03231381897911814E
:1047C00010E04B781370CB781B02D3818B78D381A8
:1047D0004B791B0213820B791382CB791B02538214
:1047E000897951828475F0BD002822D01149C0F822
:1047F000E0111149C0F8DC1190F8252040F2FF11BA
:10480000012A0BD04B1C022A01D0032A11D1C26904
:10481000A2F20122042A08D2836107E0C269A2F24F
:104820000522042A01D340F2FF21816102F0030135
:104830000162704799400008C54000080A88184B7B
:1048400052BA1A8002804A8852BA42808A8852BA82
:1048500082808A8852BA02818979C180B0F90A10AF
:1048600041F6FE7209B903696BB10388591A09B29E
:1048700001F6FF73934207D90269002906DBA1F50F
:10488000F851FF3905E00021026902E041F6FF73AB
:1048900019440A44026102884281002181757047EF
:1048A000A80000204FF4FA7120F81E1F4A00C180B2
:1048B000818142820183C183828442850286C186CE
:1048C0008187A0F84210A0F84810A0F84E10A0F878
:1048D0005410A0F85A10A0F86010A0F866107047A5
:1048E000427800214AB10223032A0AD0042A07D1C0
:1048F0000278002A04D1437012E00278012A0ED017
:1049000070470278002AF6D0012AF9D14188491C63
:104910000AB24280B0F904108A42F1DB04224270EC
:1049200041807047417801290ED0022911D0032916
:1049300012D14188491C0AB24280B0F904108A425F
:104940000ADB0422027006E0032141704188491C01
:1049500001E00021417041807047000010B5074818
:1049600000F00EF8054800F0A9F9044800F096FBA5
:10497000BDE810400148FFF75DBD00005014002065
:1049800070B50446104840684068407802281AD143
:1049900061680025C869401CC8616168B0F52F7F57
:1049A00002D30D726068C5614B20FEF7EDFE6068B2
:1049B0004571606885716068C5716068457260683E
:1049C000C5626068056370BDB814002042680021AC
:1049D0009FED140A82F82010426851834368022236
:1049E00083F82920426851714268516242681183FC
:1049F0004268D170426882ED0F0A426811724268C3
:104A000091714268D171426811634268D1824268F3
:104A10009182426851704268D16242685172406826
:104A2000C16170470000000010B5064C2046D4F864
:104A3000D411884704F50170D4F8D813BDE81040AC
:104A4000084700000C07002070B51E4C2046D4F823
:104A5000D011884704F50170D4F8D413054688476F
:104A6000D4F8D821184904F59E7090471649D4F817
:104A7000D8211C3104F1F80090471349D4F8D8210B
:104A8000383104F12C0090470F49D4F8DC2354311D
:104A900004F5507090470C49D4F8DC23703104F5CC
:104AA0003F7090470849D4F8DC238C3104F50C7032
:104AB00090470549A8310020C1E90245496881F8BD
:104AC000280070BD0C070020A81300202DE9F0413C
:104AD000724CA06890ED0D0AB5EEC00AF1EE10FA26
:104AE00001DCB1EE400A10EE101ADFF8B481414546
:104AF00008DBB0F90200C01C062803D86068C18A30
:104B0000491CC182606801260025C18A32291BD355
:104B1000C58260680670A068616890ED040AB8EE0E
:104B2000C00A81ED0D0A90ED040AB8EEC00A81EDCD
:104B3000040AA0685B490069084400EE100A606836
:104B4000B8EEC00A80ED030AA068574FC17DC1B11D
:104B500061680978012914D09FED540AD0F8EC114E
:104B60008847A168BDEEC00A096A10EE100A27F84E
:104B7000110060684E4F90F8281031B1012971D1B1
:104B800040E0006A27F81050F3E7E0689FED490A1B
:104B9000D0F8EC118847E068BDEEC00A026A10EE5A
:104BA000101A27F8121090ED0D0AB5EEC00AF1EEBA
:104BB00010FA01DCB1EE400A10EE101A414508DB94
:104BC000B0F90200C01C062803D86068418B491C5C
:104BD00041836068418BC82944D390F82010022992
:104BE00003D2456280F8286009E08670606802217F
:104BF0000572606880F8291000F8205F45606068E1
:104C000045832FE0416A11B190ED0E0A0AE0E16898
:104C10000969A1F57051CD3900EE101AB8EEC00A3D
:104C200080ED0E0A61691D4888471C48FFF7F4FCB7
:104C300070B9E06890ED400AB5EEC00AF1EE10FAE6
:104C400001DCB1EE400A10EE100A1B49884205DA79
:104C5000606810F8201F491C017005726068416A85
:104C6000491C4162E068C17D19B1616889780129F8
:104C700009D1006A27F8105060688178012902D1B3
:104C80000178012903D060680571BDE8F0810671E3
:104C9000BDE8F0410148FFF799BE00005014002024
:104CA0000000C84270D50A00880000200000FAC346
:104CB0009000002000401C450000964307494A78B8
:104CC0003AB10121012A05D0022A05D0032A02D1D6
:104CD00000E00021017070470221FBE7B8140020BA
:104CE00010B5054800F0A0F9034801F09FFABDE8AF
:104CF00010400148FFF7F0BA9413002010B5074C9C
:104D0000A068D0F8D4118847E068D0F8D41188475B
:104D10002069D0F8D411BDE8104008479413002052
:104D200070B52C4C2046D4F8D01104F5E8748847AF
:104D30002948D4F80412064688472848D4F80814AD
:104D400005468847A26826492648904724492148B5
:104D50005439A2682C30904721491F485439D4F85F
:104D60000C222C3090471E491C485439D4F810248A
:104D70002C3090471A4918483839A268C8389047EB
:104D8000174914481C39A268F83090471449134851
:104D90003839D4F80C22C838904711490E481C39CC
:104DA000D4F80C22F83090470D49D4F81024383943
:104DB0000D4890470A490C481C39D4F8102444384F
:104DC000A4F5E874904706491C310D61C1E902461B
:104DD00070BD000000010020040300200805002031
:104DE00078130020585E0020440600202DE9F04191
:104DF000744C2DED028BA16891ED0D0AB5EEC00A41
:104E0000F1EE10FA01DCB1EE400A6E4810EE102A05
:104E10006D4F4068BA4204DBB1F90210C91C062983
:104E200012D9E16891ED0D0AB5EEC00AF1EE10FA63
:104E300001DCB1EE400A10EE102ABA4207DBB1F9EC
:104E40000210C91C062902D8818C491C8184818CDE
:104E500000254FF001080A2927D3858480F80180B6
:104E6000A0680561A06801884181E0680561E0688B
:104E7000018841819FED550A60684EF6602280ED01
:104E8000060AA1680969114400EE101A5049B8EEEB
:104E9000C00A80ED030AA0680069084400EE100A09
:104EA0006068B8EEC00A80ED020AA068494EC17D74
:104EB0009FED498AF1B3E168C97DD9B3616809788A
:104EC000012967D0D0F8EC11B0EE480A8847A168F4
:104ED000BDEEC00A096A10EE100AB0EE480A26F8C4
:104EE0001100E068D0F8EC118847E168BDEEC00A17
:104EF000096A10EE100A26F811002069D0ED0D0A9B
:104F0000F5EEC00AF1EE10FA01DCF1EE600A10EEE7
:104F1000901AB94208DBB0F90200C01C062803D879
:104F20006168C88C401CC8846068C18C0A2918D389
:104F3000C58400E02EE080F8028021696068DFED22
:104F4000270A91ED040AB8EEC00A80ED080A91ED37
:104F5000040AB8EEC00A80ED050A30EE200A80EDA2
:104F6000040A2069C17DE9B161688978012919D0F5
:104F7000D0F8EC11B0EE480A88472169BDEEC00AAE
:104F8000096A10EE100A26F811006068817801297C
:104F90000CD00EE0006A26F81050E068006A26F88F
:104FA0001050AAE7006A26F81050EEE74178012970
:104FB00004D00570BDEC028BBDE8F08180F8008064
:104FC000F8E70000941300200000C8420000000031
:104FD0001823ED008800002000803BC5ECB4D24AC5
:104FE0001049496848B1012810D1D1ED040AF4EE06
:104FF000C00AF1EE10FA07D30CE0D1ED020AF4EE8C
:10500000C00AF1EE10FA02D2B0EE600A7047D1ED9C
:10501000030A01E0D1ED050AF4EEC00AF1EE10FA40
:10502000F2DC70479413002007494A783AB1002116
:10503000012A05D0022A05D0032A02D100E002216C
:10504000017070470121FBE7B814002070EEC00A20
:1050500000EE810A7047FCF7D7FDFEF7BBFBFEF7B9
:1050600043F9FEF771F8FEF7B7F8FEF783FAFEF79B
:105070008FF8FEF763FAFEF79DFAFEF727FAFEF7C0
:1050800041FAFEF7EDF9FEF77DF9FFF7BFF9FFF7FB
:105090009BF9FEF7FFF800F0D2FBFEE72DE9F041A7
:1050A00004469FED5F0A5F48656800260068B0F916
:1050B000060000EE900A2078F8EEE00A60EE800A22
:1050C00020B1012804D0022802D102E0FFF7FEFC43
:1050D00091E05548406840688178052902D006294A
:1050E00012D11CE0204600F0CFF8504840684078CC
:1050F00001280AD095ED0D0A30EE600A85ED0D0A03
:1051000000F0ACF885ED0D0A75E0A06890ED040A9A
:10511000B8EEC00A85ED0D0AAE826E706BE0407885
:10512000022868D00127032802D0042863D157E061
:105130006F7260688179E9BBC16AC1B1A16891ED04
:10514000400AB5EEC00AF1EE10FA01DCB1EE400AF9
:1051500010EE101ADFF8D880414511DDC179012920
:105160000ED0C6716068C16A491CC16243E04B2021
:10517000FEF70AFB606890ED030A80ED0D0AF1E787
:10518000C820FEF701FB6068C7716068C169491CEF
:10519000C1616068B1F52F7FE4D3016BD9B1A1681B
:1051A00091ED400AB5EEC00AF1EE10FA01DCB1EE65
:1051B000400A00E01FE010EE101A414506DC87713E
:1051C0006068C6616068C662606806636068016B9B
:1051D000491C0163C6E790ED040A80ED0D0AF5E76E
:1051E000AF72A06890ED040A6068B8EEC00A80ED66
:1051F0000D0A6068C661A068C17D51B16068007821
:1052000001280AD195ED0D0A20462169BDE8F0413B
:105210000847006A074921F81060BDE8F0810000E6
:105220009A99993ED8140020B814002050140020F8
:105230000000FA448800002010B584682046D4F8A5
:10524000E4118847BDEEC00A034A216A10EE100A35
:1052500022F8110010BD00008800002009484068B5
:10526000D0ED030AF4EEC00AF1EE10FA06D3D0ED49
:10527000040AF4EEC00AF1EE10FA01DDB0EE600AA5
:105280007047000050140020816891ED400AB5EE8F
:10529000C00AF1EE10FA01DCB1EE400A10EE102A5D
:1052A000094B9A4208DBB1F902100A31142903D8DC
:1052B00041688A8A521C8A824068818A1E2901D3E9
:1052C00001214170704700000000A041014600200C
:1052D000842900D0C81C7047002811D0017D002906
:1052E0000ED0817D491CCAB28275417D8A4202D9A5
:1052F0008175002103E0C17D002901D10121C17523
:105300007047000010B5040034D094F8250005283B
:1053100003D1D4F8CC0100282CD00020E075A07572
:105320006420607594F8240008B1012802D1204659
:10533000FFF75AFA1048C4F8D8011048C4F8D4014D
:105340000F48C4F800020F48C4F8FC010E48C4F826
:10535000F8010E48C4F8EC010D48C4F8E8010D4806
:10536000C4F8E4010C48C4F8F4010C48C4F8F00196
:105370000120207510BD0000A1530008D95200087B
:1053800015540008F7540008C5540008F1570008E8
:105390004155000895570008DD5700086957000877
:1053A000002834D0002932D09FED190A80ED000A80
:1053B00080ED010A80ED020A80ED030A80ED040A07
:1053C00080ED050A80ED060A80ED070A80ED080AE7
:1053D00091ED000A80ED0A0A91ED010A80ED0B0AB9
:1053E00091ED020A80ED0C0A91ED030A80ED0D0AA1
:1053F00091ED040A80ED0E0A91ED050A80ED0F0A89
:1054000091ED060A012180ED100A80F82410704702
:1054100000000000027D0021EAB1C27DDAB1D0EDCA
:10542000710AF5EEC00AF1EE10FA01DCF1EE600A45
:10543000F4EEC00AF1EE10FA11DDB0F90220121DEF
:10544000082A0CD890F8C821521CD2B280F8C82182
:10545000642A02D006E000207047012102E0002209
:1054600080F8C82108467047B5EEC00AF1EE10FA80
:1054700002D230EE200A7047B4EEE00AF1EE10FAE4
:10548000F9DB30EE600A7047B5EEC00AF1EE10FAB3
:1054900002DDB0EE401A01E0B1EE401AF6EE001A5D
:1054A00060EEA11AB4EEE11AF1EE10FA06DDB5EEE7
:1054B000C00AF1EE10FA02DB30EE600A704730EEFF
:1054C000200A704710B5B0F90030B0F928401A1B17
:1054D000A34200DA0A4412B2A2EB5103002B01DC12
:1054E000C2EB5103B3EB910F01DA012100E000217F
:1054F00080F82A1010BD10B5B0F90030B0F928407E
:105500001A1BA34200DA0A4412B28A1A02EB910271
:1055100012B28A4201DD521A12B2A2EB910200EEDF
:10552000102A00EE901AB8EEC00AF8EE600AFFF7F3
:105530009BFFBDEEC00A10EE101A818110BD000065
:1055400010B50446007DDFED100AD0B194F8940048
:10555000B8B184ED1C0AB4F90200012200EE100A71
:10556000B4F9000004F1B401F8EEC00A00EE100A2C
:1055700004F17000B8EEC00A00F094F884ED710AEE
:1055800010BDB0EE600A10BD0000000090F82410BD
:105590009FED430A00297CD0D0ED020A00F12801DA
:1055A000F5EEC00AF1EE10FA01DCF1EE600A91EDC1
:1055B000031AF4EEC10AF1EE10FA01D880ED020AE6
:1055C00090ED040AD0ED020A30EE200A80ED040AC4
:1055D000D1ED040AB4EEE00AF1EE10FA06DCF1EEC9
:1055E000600AB4EEE00AF1EE10FA01D2B0EE600A01
:1055F00080ED040A91ED000AD0ED020A20EE200AA7
:1056000080ED050A91ED010AD0ED040A20EE200A92
:1056100080ED060A90ED020AD0ED030A30EE600A32
:10562000D1ED020A20EE200A80ED070A90ED060A6D
:10563000D1ED050AB4EEE00AF1EE10FA06DCF1EE67
:10564000600AB4EEE00AF1EE10FA01D2B0EE600AA0
:1056500080ED060AD0ED050A30EE800AD0ED070A8B
:1056600030EE200A80ED080AD1ED060AB4EEE00A19
:10567000F1EE10FA06DCF1EE600AB4EEE00AF1EEAB
:1056800010FA01D2B0EE600A80ED080A90ED020A2D
:1056900000E003E080ED030A90ED080A7047000087
:1056A0000000000010B5F0EE602A0C4603000CD09C
:1056B0009FED2A1A9FED2A2A54B100F059F8DAB367
:1056C000012A26D0022A37D128E09FED260A10BDF4
:1056D00000F04EF8BAB1012A02D0022A13D104E038
:1056E00093ED020AF0EE410A09E093ED020AF0EEB2
:1056F000410AFFF7C9FE83ED020AF0EE420AFFF706
:10570000C3FE83ED020A1846FFF740FF93ED080A37
:1057100010BD93ED020AF0EE410A09E093ED020A92
:10572000F0EE410AFFF7B0FE83ED020AF0EE420A06
:10573000FFF7AAFE83ED020A1846FFF727FF93ED55
:10574000080A204684ED000AB0EE620A00F010F864
:105750002046FFF71BFF94ED080A10BD00F8FF4537
:1057600000F07F450000000080ED001AFFF79ABFAF
:1057700090F8241041B180ED010AD0ED000A30EE1E
:10578000C00A80ED020A70479FED010A70470000D1
:105790000000000010B50446007DDFED0F0AC0B127
:1057A00094F81C01A8B184ED3E0AB4F9020000226D
:1057B00000EE100A04F59E7104F1F800F8EEC00A3C
:1057C00094ED040AB8EEC00AFFF76CFF84ED710A8D
:1057D00010BDB0EE600A10BD00000000C0ED000A70
:1057E0000022DFED020A1146FFF75CBF0000000057
:1057F00010B50446007DDFED0D0A98B194F8500015
:1058000080B184ED0B0AB4F90200002200EE100A08
:10581000114604F12C00B8EEC00AFFF743FF84EDF7
:10582000710A10BDB0EE600A10BD0000000000005B
:1058300010B500B9012000F0F1FE002010BD10B538
:1058400000F012FF002010BD7FB50D4604464169EF
:10585000B0F9080081B1A16971B1FFF737FDD4E952
:1058600005128DE80700D4E900102B46226901F0EB
:105870000EF8039004B070BDFFF728FD03A9CDE931
:105880000001208A2B4682B2D4E9001000F0D2FF3A
:10589000012801D00020EDE70398EBE72DE9F04166
:1058A000184C0F460546E6682068001D00F0EEFD26
:1058B00038B9206890F82C10012088402169814374
:1058C0002161681C07D137B12168BDE8F0410E485D
:1058D000091D00F01FBE20683544B54245602168AF
:1058E00005D2A06BBDE8F041091D00F0FBBD606B67
:1058F000091D00F0F7FDA06A854200D2A562BDE84F
:10590000F081000020000020EC1D00202DE9F04176
:10591000054600F00BFE2E4CA068401CA0602068DD
:105920002C4F10B1606940B32DE02560A0680128BC
:1059300029D1002606EB860007EB800000F0C4FDAD
:10594000761C072EF6D323488C3000F0BDFD21488D
:10595000A03000F0B9FD1F48B43000F0B5FD1D487F
:10596000C83000F0B1FD1B48DC3000F0ADFD194837
:105970008C3060631430A06305E02068E96AC06A77
:10598000884200D82560606A401C6062E96A012094
:10599000226988401043206101EB810007EB800001
:1059A000291D00F0B7FD00F0E1FD606900280CD072
:1059B0002068E96AC06A884207D207494FF08050E0
:1059C0000860BFF34F8FBFF36F8FBDE8F081000019
:1059D00020000020101D002004ED00E010B504465A
:1059E00090F8510058B101280CD002280FD0502057
:1059F00080F31188BFF34F8FBFF36F8FFEE7206BEB
:105A000000F0C8FD2046BDE8104000F0C3BD10BD49
:105A100010484FF47051420706D0C01D0D4920F0C8
:105A20000700411AC1F570510B4A00230144C2E935
:105A300000030839183A21F0070111604B600B6030
:105A40000B1AC0E9001393604FF00040536050619F
:105A500070470000001E002074000020144E154CFA
:105A6000A6F1C8074FF08058DFF84C9012E000BF55
:105A700000F05CFDF068C568281D00F007FDA06817
:105A8000401EA0606068401E606000F06FFD284608
:105A9000FFF7A4FF60680028EAD138680128F9D927
:105AA000C9F80080BFF34F8FBFF36F8FF2E700009C
:105AB000D81D00202000002004ED00E02DE9F04773
:105AC0009A46DDE9098481466FF00303206B03EBFE
:105AD00082021044089E20F00707780707D0502064
